{
  "_format": "hh3-artifact-1",
  "contractName": "NFTCollectionFactory",
  "sourceName": "contracts/NFTCollectionFactory.sol",
  "abi": [
    {
      "inputs": [],
      "stateMutability": "nonpayable",
      "type": "constructor"
    },
    {
      "inputs": [
        {
          "internalType": "address",
          "name": "owner",
          "type": "address"
        }
      ],
      "name": "OwnableInvalidOwner",
      "type": "error"
    },
    {
      "inputs": [
        {
          "internalType": "address",
          "name": "account",
          "type": "address"
        }
      ],
      "name": "OwnableUnauthorizedAccount",
      "type": "error"
    },
    {
      "inputs": [],
      "name": "ReentrancyGuardReentrantCall",
      "type": "error"
    },
    {
      "anonymous": false,
      "inputs": [
        {
          "indexed": true,
          "internalType": "uint256",
          "name": "collectionId",
          "type": "uint256"
        },
        {
          "indexed": true,
          "internalType": "address",
          "name": "contractAddress",
          "type": "address"
        },
        {
          "indexed": true,
          "internalType": "address",
          "name": "creator",
          "type": "address"
        }
      ],
      "name": "CollectionCreated",
      "type": "event"
    },
    {
      "anonymous": false,
      "inputs": [
        {
          "indexed": true,
          "internalType": "address",
          "name": "previousOwner",
          "type": "address"
        },
        {
          "indexed": true,
          "internalType": "address",
          "name": "newOwner",
          "type": "address"
        }
      ],
      "name": "OwnershipTransferred",
      "type": "event"
    },
    {
      "inputs": [],
      "name": "LLM_GENERATION_FEE",
      "outputs": [
        {
          "internalType": "uint256",
          "name": "",
          "type": "uint256"
        }
      ],
      "stateMutability": "view",
      "type": "function"
    },
    {
      "inputs": [],
      "name": "PLATFORM_FEE_PERCENT",
      "outputs": [
        {
          "internalType": "uint256",
          "name": "",
          "type": "uint256"
        }
      ],
      "stateMutability": "view",
      "type": "function"
    },
    {
      "inputs": [],
      "name": "PLATFORM_WALLET",
      "outputs": [
        {
          "internalType": "address",
          "name": "",
          "type": "address"
        }
      ],
      "stateMutability": "view",
      "type": "function"
    },
    {
      "inputs": [
        {
          "internalType": "uint256",
          "name": "",
          "type": "uint256"
        }
      ],
      "name": "collectionInfo",
      "outputs": [
        {
          "internalType": "uint256",
          "name": "id",
          "type": "uint256"
        },
        {
          "internalType": "address",
          "name": "contractAddress",
          "type": "address"
        },
        {
          "internalType": "address",
          "name": "creator",
          "type": "address"
        },
        {
          "internalType": "string",
          "name": "name",
          "type": "string"
        },
        {
          "internalType": "string",
          "name": "symbol",
          "type": "string"
        },
        {
          "internalType": "string",
          "name": "prompt",
          "type": "string"
        },
        {
          "internalType": "uint256",
          "name": "maxSupply",
          "type": "uint256"
        },
        {
          "internalType": "uint256",
          "name": "mintPrice",
          "type": "uint256"
        },
        {
          "internalType": "uint256",
          "name": "createdAt",
          "type": "uint256"
        }
      ],
      "stateMutability": "view",
      "type": "function"
    },
    {
      "inputs": [
        {
          "internalType": "uint256",
          "name": "",
          "type": "uint256"
        }
      ],
      "name": "collections",
      "outputs": [
        {
          "internalType": "address",
          "name": "",
          "type": "address"
        }
      ],
      "stateMutability": "view",
      "type": "function"
    },
    {
      "inputs": [
        {
          "internalType": "string",
          "name": "name",
          "type": "string"
        },
        {
          "internalType": "string",
          "name": "symbol",
          "type": "string"
        },
        {
          "internalType": "string",
          "name": "prompt",
          "type": "string"
        },
        {
          "internalType": "uint256",
          "name": "maxSupply",
          "type": "uint256"
        },
        {
          "internalType": "uint256",
          "name": "mintPrice",
          "type": "uint256"
        }
      ],
      "name": "createCollection",
      "outputs": [
        {
          "internalType": "uint256",
          "name": "",
          "type": "uint256"
        }
      ],
      "stateMutability": "payable",
      "type": "function"
    },
    {
      "inputs": [
        {
          "internalType": "address",
          "name": "",
          "type": "address"
        },
        {
          "internalType": "uint256",
          "name": "",
          "type": "uint256"
        }
      ],
      "name": "creatorCollections",
      "outputs": [
        {
          "internalType": "uint256",
          "name": "",
          "type": "uint256"
        }
      ],
      "stateMutability": "view",
      "type": "function"
    },
    {
      "inputs": [],
      "name": "getAllCollections",
      "outputs": [
        {
          "components": [
            {
              "internalType": "uint256",
              "name": "id",
              "type": "uint256"
            },
            {
              "internalType": "address",
              "name": "contractAddress",
              "type": "address"
            },
            {
              "internalType": "address",
              "name": "creator",
              "type": "address"
            },
            {
              "internalType": "string",
              "name": "name",
              "type": "string"
            },
            {
              "internalType": "string",
              "name": "symbol",
              "type": "string"
            },
            {
              "internalType": "string",
              "name": "prompt",
              "type": "string"
            },
            {
              "internalType": "uint256",
              "name": "maxSupply",
              "type": "uint256"
            },
            {
              "internalType": "uint256",
              "name": "mintPrice",
              "type": "uint256"
            },
            {
              "internalType": "uint256",
              "name": "createdAt",
              "type": "uint256"
            }
          ],
          "internalType": "struct NFTCollectionFactory.CollectionInfo[]",
          "name": "",
          "type": "tuple[]"
        }
      ],
      "stateMutability": "view",
      "type": "function"
    },
    {
      "inputs": [],
      "name": "getCollectionPrice",
      "outputs": [
        {
          "internalType": "uint256",
          "name": "",
          "type": "uint256"
        }
      ],
      "stateMutability": "pure",
      "type": "function"
    },
    {
      "inputs": [
        {
          "internalType": "address",
          "name": "creator",
          "type": "address"
        }
      ],
      "name": "getCollectionsByCreator",
      "outputs": [
        {
          "internalType": "uint256[]",
          "name": "",
          "type": "uint256[]"
        }
      ],
      "stateMutability": "view",
      "type": "function"
    },
    {
      "inputs": [],
      "name": "getTotalCollections",
      "outputs": [
        {
          "internalType": "uint256",
          "name": "",
          "type": "uint256"
        }
      ],
      "stateMutability": "view",
      "type": "function"
    },
    {
      "inputs": [],
      "name": "owner",
      "outputs": [
        {
          "internalType": "address",
          "name": "",
          "type": "address"
        }
      ],
      "stateMutability": "view",
      "type": "function"
    },
    {
      "inputs": [],
      "name": "renounceOwnership",
      "outputs": [],
      "stateMutability": "nonpayable",
      "type": "function"
    },
    {
      "inputs": [
        {
          "internalType": "address",
          "name": "newOwner",
          "type": "address"
        }
      ],
      "name": "transferOwnership",
      "outputs": [],
      "stateMutability": "nonpayable",
      "type": "function"
    },
    {
      "inputs": [
        {
          "internalType": "address",
          "name": "collectionAddress",
          "type": "address"
        },
        {
          "internalType": "uint256",
          "name": "tokenId",
          "type": "uint256"
        },
        {
          "internalType": "string",
          "name": "newTokenURI",
          "type": "string"
        }
      ],
      "name": "updateTokenURI",
      "outputs": [],
      "stateMutability": "nonpayable",
      "type": "function"
    }
  ],
  "bytecode": "0x608060405234801561000f575f80fd5b50338061003557604051631e4fbdf760e01b81525f600482015260240160405180910390fd5b61003e81610048565b5060018055610097565b5f80546001600160a01b038381166001600160a01b0319831681178455604051919092169283917f8be0079c531659141344cd1fd0a4f28419497f9722a3daafe3b4186f6b6457e09190a35050565b613d92806100a45f395ff3fe608060405260043610620000f7575f3560e01c80637ad3e1cf1162000092578063f2fde38b116200005e578063f2fde38b146200028f578063f553840714620002b3578063f56b836914620002ce578063fdbda0ec1462000301575f80fd5b80637ad3e1cf14620002075780638da5cb5b146200021e578063939bf6dd1462000250578063eb8b12d41462000266575f80fd5b8063560d52d411620000d2578063560d52d414620001905780635cf7987c14620001a65780636804a95814620001ca578063715018a614620001f0575f80fd5b80630fb4d2e514620000fb5780630fcd7f8f146200013f57806324a8bec01462000165575b5f80fd5b34801562000107575f80fd5b506200011f62000119366004620010ca565b62000339565b604051620001369998979695949392919062001127565b60405180910390f35b3480156200014b575f80fd5b50620001636200015d3660046200126b565b62000537565b005b34801562000171575f80fd5b506200018166038d7ea4c6800081565b60405190815260200162000136565b3480156200019c575f80fd5b506200018160fa81565b348015620001b2575f80fd5b5062000181620001c4366004620012c4565b62000604565b348015620001d6575f80fd5b50620001e162000630565b604051620001369190620012ef565b348015620001fc575f80fd5b50620001636200096b565b6200018162000218366004620013e6565b62000982565b3480156200022a575f80fd5b505f546001600160a01b03165b6040516001600160a01b03909116815260200162000136565b3480156200025c575f80fd5b5060025462000181565b34801562000272575f80fd5b506200023773e55e9c8e6e2efb0c7b62e78816b6a9fed9218c8181565b3480156200029b575f80fd5b5062000163620002ad36600462001483565b62000f66565b348015620002bf575f80fd5b5066038d7ea4c6800062000181565b348015620002da575f80fd5b50620002f2620002ec36600462001483565b62000fa9565b604051620001369190620014e1565b3480156200030d575f80fd5b50620002376200031f366004620010ca565b60036020525f90815260409020546001600160a01b031681565b60056020525f9081526040902080546001820154600283015460038401805493946001600160a01b039384169493909216926200037690620014f5565b80601f0160208091040260200160405190810160405280929190818152602001828054620003a490620014f5565b8015620003f35780601f10620003c957610100808354040283529160200191620003f3565b820191905f5260205f20905b815481529060010190602001808311620003d557829003601f168201915b5050505050908060040180546200040a90620014f5565b80601f01602080910402602001604051908101604052809291908181526020018280546200043890620014f5565b8015620004875780601f106200045d5761010080835404028352916020019162000487565b820191905f5260205f20905b8154815290600101906020018083116200046957829003601f168201915b5050505050908060050180546200049e90620014f5565b80601f0160208091040260200160405190810160405280929190818152602001828054620004cc90620014f5565b80156200051b5780601f10620004f1576101008083540402835291602001916200051b565b820191905f5260205f20905b815481529060010190602001808311620004fd57829003601f168201915b5050505050908060060154908060070154908060080154905089565b6200054162001014565b6001600160a01b0383166200059d5760405162461bcd60e51b815260206004820152601a60248201527f496e76616c696420636f6c6c656374696f6e206164647265737300000000000060448201526064015b60405180910390fd5b6040516318e97fd160e01b815283906001600160a01b038216906318e97fd190620005cf908690869060040162001529565b5f604051808303815f87803b158015620005e7575f80fd5b505af1158015620005fa573d5f803e3d5ffd5b5050505050505050565b6004602052815f5260405f2081815481106200061e575f80fd5b905f5260205f20015f91509150505481565b60605f60025467ffffffffffffffff811115620006515762000651620011c6565b604051908082528060200260200182016040528015620006e057816020015b620006cc6040518061012001604052805f81526020015f6001600160a01b031681526020015f6001600160a01b031681526020016060815260200160608152602001606081526020015f81526020015f81526020015f81525090565b815260200190600190039081620006705790505b50905060015b600254811162000965575f818152600560209081526040918290208251610120810184528154815260018201546001600160a01b03908116938201939093526002820154909216928201929092526003820180549192916060840191906200074e90620014f5565b80601f01602080910402602001604051908101604052809291908181526020018280546200077c90620014f5565b8015620007cb5780601f10620007a157610100808354040283529160200191620007cb565b820191905f5260205f20905b815481529060010190602001808311620007ad57829003601f168201915b50505050508152602001600482018054620007e690620014f5565b80601f01602080910402602001604051908101604052809291908181526020018280546200081490620014f5565b8015620008635780601f10620008395761010080835404028352916020019162000863565b820191905f5260205f20905b8154815290600101906020018083116200084557829003601f168201915b505050505081526020016005820180546200087e90620014f5565b80601f0160208091040260200160405190810160405280929190818152602001828054620008ac90620014f5565b8015620008fb5780601f10620008d157610100808354040283529160200191620008fb565b820191905f5260205f20905b815481529060010190602001808311620008dd57829003601f168201915b5050509183525050600682015460208201526007820154604082015260089091015460609091015282620009316001846200155f565b815181106200094457620009446200157b565b602002602001018190525080806200095c906200158f565b915050620006e6565b50919050565b6200097562001014565b620009805f62001042565b565b5f6200098d62001091565b5f865111620009d65760405162461bcd60e51b81526020600482015260146024820152734e616d652063616e6e6f7420626520656d70747960601b604482015260640162000594565b5f85511162000a215760405162461bcd60e51b815260206004820152601660248201527553796d626f6c2063616e6e6f7420626520656d70747960501b604482015260640162000594565b5f84511162000a6c5760405162461bcd60e51b815260206004820152601660248201527550726f6d70742063616e6e6f7420626520656d70747960501b604482015260640162000594565b5f8311801562000a7e57506127108311155b62000ac15760405162461bcd60e51b8152602060048201526012602482015271496e76616c6964206d617820737570706c7960701b604482015260640162000594565b5f821162000b1c5760405162461bcd60e51b815260206004820152602160248201527f4d696e74207072696365206d7573742062652067726561746572207468616e206044820152600360fc1b606482015260840162000594565b66038d7ea4c6800034101562000b855760405162461bcd60e51b815260206004820152602760248201527f496e73756666696369656e74207061796d656e7420666f72204c4c4d2067656e60448201526632b930ba34b7b760c91b606482015260840162000594565b60028054905f62000b96836200158f565b9091555050600280546040805183815260608101825291925f929160208301908036833750506040805160028082526060820183529394505f93909250906020830190803683370190505090505f61271062000bf460fa88620015aa565b62000c009190620015c4565b90505f62000c1666038d7ea4c6800083620015e4565b90505f62000c2583896200155f565b905033855f8151811062000c3d5762000c3d6200157b565b60200260200101906001600160a01b031690816001600160a01b03168152505080845f8151811062000c735762000c736200157b565b60200260200101818152505073e55e9c8e6e2efb0c7b62e78816b6a9fed9218c818560018151811062000caa5762000caa6200157b565b60200260200101906001600160a01b031690816001600160a01b031681525050818460018151811062000ce15762000ce16200157b565b6020026020010181815250505f8c8c8c8c33308b8b60405162000d0490620010bc565b62000d17989796959493929190620015fa565b604051809103905ff08015801562000d31573d5f803e3d5ffd5b505f88815260036020908152604080832080546001600160a01b0319166001600160a01b03861690811790915533808552600484528285208054600181018255908652948490209094018c90558151610120810183528c815292830152810191909152606081018f9052608081018e905260a081018d905260c081018c9052909150819060e0810162000dc58686620015e4565b8152426020918201525f8a81526005825260409081902083518155918301516001830180546001600160a01b03199081166001600160a01b03938416179091559184015160028401805490931691161790556060820151600382019062000e2d90826200170e565b506080820151600482019062000e4490826200170e565b5060a0820151600582019062000e5b90826200170e565b5060c0820151600682015560e082015160078201556101009091015160089091015560405173e55e9c8e6e2efb0c7b62e78816b6a9fed9218c81903480156108fc02915f818181858888f1935050505015801562000ebb573d5f803e3d5ffd5b50604051630355d30960e11b81523360048201526001600160a01b038316906306aba612906024015f604051808303815f87803b15801562000efb575f80fd5b505af115801562000f0e573d5f803e3d5ffd5b50506040513392506001600160a01b03841691508a907fee4d8764b6b7ece682a156063b005e7b6669f9677a19d90b218fc10632eb7ab1905f90a45095965050505050505062000f5d60018055565b95945050505050565b62000f7062001014565b6001600160a01b03811662000f9b57604051631e4fbdf760e01b81525f600482015260240162000594565b62000fa68162001042565b50565b6001600160a01b0381165f908152600460209081526040918290208054835181840281018401909452808452606093928301828280156200100857602002820191905f5260205f20905b81548152602001906001019080831162000ff3575b50505050509050919050565b5f546001600160a01b03163314620009805760405163118cdaa760e01b815233600482015260240162000594565b5f80546001600160a01b038381166001600160a01b0319831681178455604051919092169283917f8be0079c531659141344cd1fd0a4f28419497f9722a3daafe3b4186f6b6457e09190a35050565b600260015403620010b557604051633ee5aeb560e01b815260040160405180910390fd5b6002600155565b61258580620017d883390190565b5f60208284031215620010db575f80fd5b5035919050565b5f81518084525f5b818110156200110857602081850181015186830182015201620010ea565b505f602082860101526020601f19601f83011685010191505092915050565b8981526001600160a01b03898116602083015288166040820152610120606082018190525f906200115b8382018a620010e2565b90508281036080840152620011718189620010e2565b905082810360a0840152620011878188620010e2565b60c0840196909652505060e0810192909252610100909101529695505050505050565b80356001600160a01b0381168114620011c1575f80fd5b919050565b634e487b7160e01b5f52604160045260245ffd5b5f82601f830112620011ea575f80fd5b813567ffffffffffffffff80821115620012085762001208620011c6565b604051601f8301601f19908116603f01168101908282118183101715620012335762001233620011c6565b816040528381528660208588010111156200124c575f80fd5b836020870160208301375f602085830101528094505050505092915050565b5f805f606084860312156200127e575f80fd5b6200128984620011aa565b925060208401359150604084013567ffffffffffffffff811115620012ac575f80fd5b620012ba86828701620011da565b9150509250925092565b5f8060408385031215620012d6575f80fd5b620012e183620011aa565b946020939093013593505050565b5f6020808301818452808551808352604092508286019150828160051b8701018488015f5b83811015620013d857603f19898403018552815180518452878101516001600160a01b039081168986015287820151168785015260608082015161012082870181905291906200136783880182620010e2565b9250505060808083015186830382880152620013848382620010e2565b9250505060a08083015186830382880152620013a18382620010e2565b60c0858101519089015260e08086015190890152610100948501519490970193909352505050938601939086019060010162001314565b509098975050505050505050565b5f805f805f60a08688031215620013fb575f80fd5b853567ffffffffffffffff8082111562001413575f80fd5b6200142189838a01620011da565b9650602088013591508082111562001437575f80fd5b6200144589838a01620011da565b955060408801359150808211156200145b575f80fd5b506200146a88828901620011da565b9598949750949560608101359550608001359392505050565b5f6020828403121562001494575f80fd5b6200149f82620011aa565b9392505050565b5f8151808452602080850194508084015f5b83811015620014d657815187529582019590820190600101620014b8565b509495945050505050565b602081525f6200149f6020830184620014a6565b600181811c908216806200150a57607f821691505b6020821081036200096557634e487b7160e01b5f52602260045260245ffd5b828152604060208201525f620015436040830184620010e2565b949350505050565b634e487b7160e01b5f52601160045260245ffd5b818103818111156200157557620015756200154b565b92915050565b634e487b7160e01b5f52603260045260245ffd5b5f60018201620015a357620015a36200154b565b5060010190565b80820281158282048414176200157557620015756200154b565b5f82620015df57634e487b7160e01b5f52601260045260245ffd5b500490565b808201808211156200157557620015756200154b565b5f6101008083526200160f8184018c620010e2565b905060208382038185015262001626828c620010e2565b915083820360408501526200163c828b620010e2565b606085018a90526001600160a01b03898116608087015288811660a087015285820360c08701528751808352838901945090918301905f5b818110156200169457855184168352948401949184019160010162001674565b505085810360e0870152620016aa8188620014a6565b9e9d5050505050505050505050505050565b601f82111562001709575f81815260208120601f850160051c81016020861015620016e45750805b601f850160051c820191505b818110156200170557828155600101620016f0565b5050505b505050565b815167ffffffffffffffff8111156200172b576200172b620011c6565b62001743816200173c8454620014f5565b84620016bc565b602080601f83116001811462001779575f8415620017615750858301515b5f19600386901b1c1916600185901b17855562001705565b5f85815260208120601f198616915b82811015620017a95788860151825594840194600190910190840162001788565b5085821015620017c757878501515f19600388901b60f8161c191681555b5050505050600190811b0190555056fe608060405234801562000010575f80fd5b5060405162002585380380620025858339810160408190526200003391620004de565b8388885f62000043838262000670565b50600162000052828262000670565b50506001600755506001600160a01b0381166200008957604051631e4fbdf760e01b81525f60048201526024015b60405180910390fd5b6200009481620001db565b508051825114620000f35760405162461bcd60e51b815260206004820152602260248201527f50617965657320616e6420616d6f756e7473206c656e677468206d69736d61746044820152610c6d60f31b606482015260840162000080565b5f825111620001455760405162461bcd60e51b815260206004820152601c60248201527f4d7573742068617665206174206c65617374206f6e6520706179656500000000604482015260640162000080565b600b62000153878262000670565b50600a859055600c80546001600160a01b038087166001600160a01b031992831617909255600d80549286169290911691909117905542600e8190556200019e9062278d0062000738565b600f558151620001b69060109060208501906200022c565b508051620001cc90601190602084019062000294565b5050505050505050506200075e565b600880546001600160a01b038381166001600160a01b0319831681179093556040519116919082907f8be0079c531659141344cd1fd0a4f28419497f9722a3daafe3b4186f6b6457e0905f90a35050565b828054828255905f5260205f2090810192821562000282579160200282015b828111156200028257825182546001600160a01b0319166001600160a01b039091161782556020909201916001909101906200024b565b5062000290929150620002d0565b5090565b828054828255905f5260205f2090810192821562000282579160200282015b8281111562000282578251825591602001919060010190620002b3565b5b8082111562000290575f8155600101620002d1565b634e487b7160e01b5f52604160045260245ffd5b604051601f8201601f191681016001600160401b0381118282101715620003255762000325620002e6565b604052919050565b5f82601f8301126200033d575f80fd5b81516001600160401b03811115620003595762000359620002e6565b60206200036f601f8301601f19168201620002fa565b828152858284870101111562000383575f80fd5b5f5b83811015620003a257858101830151828201840152820162000385565b505f928101909101919091529392505050565b6001600160a01b0381168114620003ca575f80fd5b50565b8051620003da81620003b5565b919050565b5f6001600160401b03821115620003fa57620003fa620002e6565b5060051b60200190565b5f82601f83011262000414575f80fd5b815160206200042d6200042783620003df565b620002fa565b82815260059290921b840181019181810190868411156200044c575f80fd5b8286015b84811015620004745780516200046681620003b5565b835291830191830162000450565b509695505050505050565b5f82601f8301126200048f575f80fd5b81516020620004a26200042783620003df565b82815260059290921b84018101918181019086841115620004c1575f80fd5b8286015b84811015620004745780518352918301918301620004c5565b5f805f805f805f80610100898b031215620004f7575f80fd5b88516001600160401b03808211156200050e575f80fd5b6200051c8c838d016200032d565b995060208b015191508082111562000532575f80fd5b620005408c838d016200032d565b985060408b015191508082111562000556575f80fd5b620005648c838d016200032d565b975060608b015196506200057b60808c01620003cd565b95506200058b60a08c01620003cd565b945060c08b0151915080821115620005a1575f80fd5b620005af8c838d0162000404565b935060e08b0151915080821115620005c5575f80fd5b50620005d48b828c016200047f565b9150509295985092959890939650565b600181811c90821680620005f957607f821691505b6020821081036200061857634e487b7160e01b5f52602260045260245ffd5b50919050565b601f8211156200066b575f81815260208120601f850160051c81016020861015620006465750805b601f850160051c820191505b81811015620006675782815560010162000652565b5050505b505050565b81516001600160401b038111156200068c576200068c620002e6565b620006a4816200069d8454620005e4565b846200061e565b602080601f831160018114620006da575f8415620006c25750858301515b5f19600386901b1c1916600185901b17855562000667565b5f85815260208120601f198616915b828110156200070a57888601518255948401946001909101908401620006e9565b50858210156200072857878501515f19600388901b60f8161c191681555b5050505050600190811b01905550565b808201808211156200075857634e487b7160e01b5f52601160045260245ffd5b92915050565b611e19806200076c5f395ff3fe6080604052600436106101db575f3560e01c806370a08231116100fd578063b88d4fde11610092578063d5abeb0111610062578063d5abeb011461051e578063e985e9c514610533578063f2fde38b14610552578063fc5be82f14610571575f80fd5b8063b88d4fde146104a2578063c45a0155146104c1578063c547c6fc146104e0578063c87b56dd146104ff575f80fd5b80638da5cb5b116100cd5780638da5cb5b1461043d578063931e2e491461045a57806395d89b411461046f578063a22cb46514610483575f80fd5b806370a08231146103e1578063715018a614610400578063717a002b146104145780637c65d71114610429575f80fd5b806323b872dd116101735780634f3e1efc116101435780634f3e1efc1461037057806360ac632b1461038457806363037b0c146103a35780636352211e146103c2575f80fd5b806323b872dd146102f157806342842e0e1461031057806345f0a44f1461032f5780634b94f50e1461035c575f80fd5b8063081812fc116101ae578063081812fc1461028c578063095ea7b3146102ab5780631249c58b146102ca57806318e97fd1146102d2575f80fd5b806301ffc9a7146101df57806302d05d3f1461021357806306aba6121461024a57806306fdde031461026b575b5f80fd5b3480156101ea575f80fd5b506101fe6101f93660046118c5565b610585565b60405190151581526020015b60405180910390f35b34801561021e575f80fd5b50600c54610232906001600160a01b031681565b6040516001600160a01b03909116815260200161020a565b348015610255575f80fd5b506102696102643660046118fb565b6105af565b005b348015610276575f80fd5b5061027f6106e1565b60405161020a9190611961565b348015610297575f80fd5b506102326102a6366004611973565b610770565b3480156102b6575f80fd5b506102696102c536600461198a565b610797565b6102696107a6565b3480156102dd575f80fd5b506102696102ec366004611a39565b610a69565b3480156102fc575f80fd5b5061026961030b366004611a90565b610b60565b34801561031b575f80fd5b5061026961032a366004611a90565b610be9565b34801561033a575f80fd5b5061034e610349366004611973565b610c08565b60405190815260200161020a565b348015610367575f80fd5b5061034e610c27565b34801561037b575f80fd5b5060095461034e565b34801561038f575f80fd5b506101fe61039e366004611973565b610c76565b3480156103ae575f80fd5b506102326103bd366004611973565b610cbe565b3480156103cd575f80fd5b506102326103dc366004611973565b610ce6565b3480156103ec575f80fd5b5061034e6103fb3660046118fb565b610cf0565b34801561040b575f80fd5b50610269610d35565b34801561041f575f80fd5b5061034e600f5481565b348015610434575f80fd5b5061027f610d46565b348015610448575f80fd5b506008546001600160a01b0316610232565b348015610465575f80fd5b5061034e600e5481565b34801561047a575f80fd5b5061027f610dd2565b34801561048e575f80fd5b5061026961049d366004611ac9565b610de1565b3480156104ad575f80fd5b506102696104bc366004611b02565b610dec565b3480156104cc575f80fd5b50600d54610232906001600160a01b031681565b3480156104eb575f80fd5b5061027f6104fa366004611973565b610e04565b34801561050a575f80fd5b5061027f610519366004611973565b610eca565b348015610529575f80fd5b5061034e600a5481565b34801561053e575f80fd5b506101fe61054d366004611b79565b610fe5565b34801561055d575f80fd5b5061026961056c3660046118fb565b611012565b34801561057c575f80fd5b5061027f61104c565b5f6001600160e01b03198216632483248360e11b14806105a957506105a98261105b565b92915050565b6105b76110aa565b600d546001600160a01b0316331461060e5760405162461bcd60e51b815260206004820152601560248201527413db9b1e48199858dd1bdc9e4818d85b881b5a5b9d605a1b60448201526064015b60405180910390fd5b600a54600954106106565760405162461bcd60e51b815260206004820152601260248201527113585e081cdd5c1c1b1e481c995858da195960721b6044820152606401610605565b60098054905f61066583611bbe565b909155505060095461067782826110d4565b5f8181526012602052604090819020805460ff19169055516001600160a01b0383169082907f2d03118aa776f7008445f6ca8490a6782ede2db364d741513555ba656ab1879f906106cb9042815260200190565b60405180910390a3506106de6001600755565b50565b60605f80546106ef90611bd6565b80601f016020809104026020016040519081016040528092919081815260200182805461071b90611bd6565b80156107665780601f1061073d57610100808354040283529160200191610766565b820191905f5260205f20905b81548152906001019060200180831161074957829003601f168201915b5050505050905090565b5f61077a82611135565b505f828152600460205260409020546001600160a01b03166105a9565b6107a282823361116d565b5050565b6107ae6110aa565b600e544210156107f65760405162461bcd60e51b8152602060048201526013602482015272135a5b9d1a5b99c81b9bdd081cdd185c9d1959606a1b6044820152606401610605565b600f544211156108385760405162461bcd60e51b815260206004820152600d60248201526c135a5b9d1a5b99c8195b991959609a1b6044820152606401610605565b600a54600954106108805760405162461bcd60e51b815260206004820152601260248201527113585e081cdd5c1c1b1e481c995858da195960721b6044820152606401610605565b5f610889610c27565b9050803410156108d25760405162461bcd60e51b8152602060048201526014602482015273125b9cdd59999a58da595b9d081c185e5b595b9d60621b6044820152606401610605565b5f5b6010548110156109e657601081815481106108f1576108f1611c08565b5f91825260209091200154601180546001600160a01b03909216916108fc91908490811061092157610921611c08565b905f5260205f20015490811502906040515f60405180830381858888f19350505050158015610952573d5f803e3d5ffd5b506010818154811061096657610966611c08565b5f91825260209091200154601180546001600160a01b03909216917f59d9f8b94d1de65b8eeb1b14e24d5d70c2782e96b3abef17ba687f3ee33a754a9190849081106109b4576109b4611c08565b905f5260205f2001546040516109cc91815260200190565b60405180910390a2806109de81611bbe565b9150506108d4565b5060098054905f6109f683611bbe565b9091555050600954610a0833826110d4565b5f8181526012602052604090819020805460ff1916905551339082907f2d03118aa776f7008445f6ca8490a6782ede2db364d741513555ba656ab1879f90610a539042815260200190565b60405180910390a35050610a676001600755565b565b600d546001600160a01b03163314610acd5760405162461bcd60e51b815260206004820152602160248201527f4f6e6c7920666163746f72792063616e2075706461746520746f6b656e2055526044820152604960f81b6064820152608401610605565b5f828152600260205260409020546001600160a01b0316610b005760405162461bcd60e51b815260040161060590611c1c565b610b0a828261117a565b5f8281526012602052604090819020805460ff191660011790555182907f931f495b9a8e5d8e61946ea5d61e021f636cfe213a801f97589c18c152e408bd90610b54908490611961565b60405180910390a25050565b6001600160a01b038216610b8957604051633250574960e11b81525f6004820152602401610605565b5f610b958383336111c9565b9050836001600160a01b0316816001600160a01b031614610be3576040516364283d7b60e01b81526001600160a01b0380861660048301526024820184905282166044820152606401610605565b50505050565b610c0383838360405180602001604052805f815250610dec565b505050565b60118181548110610c17575f80fd5b5f91825260209091200154905081565b5f80805b601154811015610c705760118181548110610c4857610c48611c08565b905f5260205f20015482610c5c9190611c4a565b915080610c6881611bbe565b915050610c2b565b50919050565b5f818152600260205260408120546001600160a01b0316610ca95760405162461bcd60e51b815260040161060590611c1c565b505f9081526012602052604090205460ff1690565b60108181548110610ccd575f80fd5b5f918252602090912001546001600160a01b0316905081565b5f6105a982611135565b5f6001600160a01b038216610d1a576040516322718ad960e21b81525f6004820152602401610605565b506001600160a01b03165f9081526003602052604090205490565b610d3d6112bb565b610a675f6112e8565b600b8054610d5390611bd6565b80601f0160208091040260200160405190810160405280929190818152602001828054610d7f90611bd6565b8015610dca5780601f10610da157610100808354040283529160200191610dca565b820191905f5260205f20905b815481529060010190602001808311610dad57829003601f168201915b505050505081565b6060600180546106ef90611bd6565b6107a2338383611339565b610df7848484610b60565b610be333858585856113d7565b5f818152600260205260409020546060906001600160a01b0316610e3a5760405162461bcd60e51b815260040161060590611c1c565b600b8054610e4790611bd6565b80601f0160208091040260200160405190810160405280929190818152602001828054610e7390611bd6565b8015610ebe5780601f10610e9557610100808354040283529160200191610ebe565b820191905f5260205f20905b815481529060010190602001808311610ea157829003601f168201915b50505050509050919050565b6060610ed582611135565b505f8281526006602052604081208054610eee90611bd6565b80601f0160208091040260200160405190810160405280929190818152602001828054610f1a90611bd6565b8015610f655780601f10610f3c57610100808354040283529160200191610f65565b820191905f5260205f20905b815481529060010190602001808311610f4857829003601f168201915b505050505090505f610f91604080518082019091526007815266697066733a2f2f60c81b602082015290565b905080515f03610fa2575092915050565b815115610fd4578082604051602001610fbc929190611c5d565b60405160208183030381529060405292505050919050565b610fdd846114ff565b949350505050565b6001600160a01b039182165f90815260056020908152604080832093909416825291909152205460ff1690565b61101a6112bb565b6001600160a01b03811661104357604051631e4fbdf760e01b81525f6004820152602401610605565b6106de816112e8565b6060600b80546106ef90611bd6565b5f6001600160e01b031982166380ac58cd60e01b148061108b57506001600160e01b03198216635b5e139f60e01b145b806105a957506301ffc9a760e01b6001600160e01b03198316146105a9565b6002600754036110cd57604051633ee5aeb560e01b815260040160405180910390fd5b6002600755565b6001600160a01b0382166110fd57604051633250574960e11b81525f6004820152602401610605565b5f61110983835f6111c9565b90506001600160a01b03811615610c03576040516339e3563760e11b81525f6004820152602401610605565b5f818152600260205260408120546001600160a01b0316806105a957604051637e27328960e01b815260048101849052602401610605565b610c038383836001611580565b5f8281526006602052604090206111918282611cd0565b506040518281527ff8e1a15aba9398e019f0b49df1a4fde98ee17ae345cb5f6b5e2c27f5033e8ce79060200160405180910390a15050565b5f828152600260205260408120546001600160a01b03908116908316156111f5576111f5818486611684565b6001600160a01b0381161561122f576112105f855f80611580565b6001600160a01b0381165f90815260036020526040902080545f190190555b6001600160a01b0385161561125d576001600160a01b0385165f908152600360205260409020805460010190555b5f8481526002602052604080822080546001600160a01b0319166001600160a01b0389811691821790925591518793918516917fddf252ad1be2c89b69c2b068fc378daa952ba7f163c4a11628f55a4df523b3ef91a4949350505050565b6008546001600160a01b03163314610a675760405163118cdaa760e01b8152336004820152602401610605565b600880546001600160a01b038381166001600160a01b0319831681179093556040519116919082907f8be0079c531659141344cd1fd0a4f28419497f9722a3daafe3b4186f6b6457e0905f90a35050565b6001600160a01b03821661136b57604051630b61174360e31b81526001600160a01b0383166004820152602401610605565b6001600160a01b038381165f81815260056020908152604080832094871680845294825291829020805460ff191686151590811790915591519182527f17307eab39ab6107e8899845ad3d59bd9653f200f220920489ca2b5937696c31910160405180910390a3505050565b6001600160a01b0383163b156114f857604051630a85bd0160e11b81526001600160a01b0384169063150b7a0290611419908890889087908790600401611d8c565b6020604051808303815f875af1925050508015611453575060408051601f3d908101601f1916820190925261145091810190611dc8565b60015b6114ba573d808015611480576040519150601f19603f3d011682016040523d82523d5f602084013e611485565b606091505b5080515f036114b257604051633250574960e11b81526001600160a01b0385166004820152602401610605565b805160208201fd5b6001600160e01b03198116630a85bd0160e11b146114f657604051633250574960e11b81526001600160a01b0385166004820152602401610605565b505b5050505050565b606061150a82611135565b505f611530604080518082019091526007815266697066733a2f2f60c81b602082015290565b90505f81511161154e5760405180602001604052805f815250611579565b80611558846116e8565b604051602001611569929190611c5d565b6040516020818303038152906040525b9392505050565b808061159457506001600160a01b03821615155b15611655575f6115a384611135565b90506001600160a01b038316158015906115cf5750826001600160a01b0316816001600160a01b031614155b80156115e257506115e08184610fe5565b155b1561160b5760405163a9fbf51f60e01b81526001600160a01b0384166004820152602401610605565b81156116535783856001600160a01b0316826001600160a01b03167f8c5be1e5ebec7d5bd14f71427d1e84f3dd0314c0f7b2291e5b200ac8c7c3b92560405160405180910390a45b505b50505f90815260046020526040902080546001600160a01b0319166001600160a01b0392909216919091179055565b61168f838383611778565b610c03576001600160a01b0383166116bd57604051637e27328960e01b815260048101829052602401610605565b60405163177e802f60e01b81526001600160a01b038316600482015260248101829052604401610605565b60605f6116f4836117d9565b60010190505f8167ffffffffffffffff811115611713576117136119b2565b6040519080825280601f01601f19166020018201604052801561173d576020820181803683370190505b5090508181016020015b5f19016f181899199a1a9b1b9c1cb0b131b232b360811b600a86061a8153600a850494508461174757509392505050565b5f6001600160a01b03831615801590610fdd5750826001600160a01b0316846001600160a01b031614806117b157506117b18484610fe5565b80610fdd5750505f908152600460205260409020546001600160a01b03908116911614919050565b5f8072184f03e93ff9f4daa797ed6e38ed64bf6a1f0160401b83106118175772184f03e93ff9f4daa797ed6e38ed64bf6a1f0160401b830492506040015b6d04ee2d6d415b85acef81000000008310611843576d04ee2d6d415b85acef8100000000830492506020015b662386f26fc10000831061186157662386f26fc10000830492506010015b6305f5e1008310611879576305f5e100830492506008015b612710831061188d57612710830492506004015b6064831061189f576064830492506002015b600a83106105a95760010192915050565b6001600160e01b0319811681146106de575f80fd5b5f602082840312156118d5575f80fd5b8135611579816118b0565b80356001600160a01b03811681146118f6575f80fd5b919050565b5f6020828403121561190b575f80fd5b611579826118e0565b5f5b8381101561192e578181015183820152602001611916565b50505f910152565b5f815180845261194d816020860160208601611914565b601f01601f19169290920160200192915050565b602081525f6115796020830184611936565b5f60208284031215611983575f80fd5b5035919050565b5f806040838503121561199b575f80fd5b6119a4836118e0565b946020939093013593505050565b634e487b7160e01b5f52604160045260245ffd5b5f67ffffffffffffffff808411156119e0576119e06119b2565b604051601f8501601f19908116603f01168101908282118183101715611a0857611a086119b2565b81604052809350858152868686011115611a20575f80fd5b858560208301375f602087830101525050509392505050565b5f8060408385031215611a4a575f80fd5b82359150602083013567ffffffffffffffff811115611a67575f80fd5b8301601f81018513611a77575f80fd5b611a86858235602084016119c6565b9150509250929050565b5f805f60608486031215611aa2575f80fd5b611aab846118e0565b9250611ab9602085016118e0565b9150604084013590509250925092565b5f8060408385031215611ada575f80fd5b611ae3836118e0565b915060208301358015158114611af7575f80fd5b809150509250929050565b5f805f8060808587031215611b15575f80fd5b611b1e856118e0565b9350611b2c602086016118e0565b925060408501359150606085013567ffffffffffffffff811115611b4e575f80fd5b8501601f81018713611b5e575f80fd5b611b6d878235602084016119c6565b91505092959194509250565b5f8060408385031215611b8a575f80fd5b611b93836118e0565b9150611ba1602084016118e0565b90509250929050565b634e487b7160e01b5f52601160045260245ffd5b5f60018201611bcf57611bcf611baa565b5060010190565b600181811c90821680611bea57607f821691505b602082108103610c7057634e487b7160e01b5f52602260045260245ffd5b634e487b7160e01b5f52603260045260245ffd5b602080825260149082015273151bdad95b88191bd95cc81b9bdd08195e1a5cdd60621b604082015260600190565b808201808211156105a9576105a9611baa565b5f8351611c6e818460208801611914565b835190830190611c82818360208801611914565b01949350505050565b601f821115610c03575f81815260208120601f850160051c81016020861015611cb15750805b601f850160051c820191505b818110156114f657828155600101611cbd565b815167ffffffffffffffff811115611cea57611cea6119b2565b611cfe81611cf88454611bd6565b84611c8b565b602080601f831160018114611d31575f8415611d1a5750858301515b5f19600386901b1c1916600185901b1785556114f6565b5f85815260208120601f198616915b82811015611d5f57888601518255948401946001909101908401611d40565b5085821015611d7c57878501515f19600388901b60f8161c191681555b5050505050600190811b01905550565b6001600160a01b03858116825284166020820152604081018390526080606082018190525f90611dbe90830184611936565b9695505050505050565b5f60208284031215611dd8575f80fd5b8151611579816118b056fea26469706673582212201d6f01cc390a468bb94c3f3acadb5bb8517f76ef0cbbbf06b8da7b334df7275d64736f6c63430008140033a264697066735822122031df3e8ac5937a598047769e45577e90a53d540484d8ebda4a1058d2c955410264736f6c63430008140033",
  "linkReferences": {},
  "deployedLinkReferences": {},
  "immutableReferences": {},
  "inputSourceName": "project/contracts/NFTCollectionFactory.sol",
  "buildInfoId": "solc-0_8_20-f894b8dc7836c610bf079dac5b63784ee2d57172"
}