{
  "_format": "hh3-artifact-1",
  "contractName": "NFTCollectionFactory",
  "sourceName": "contracts/NFTCollectionFactory.sol",
  "abi": [
    {
      "inputs": [],
      "stateMutability": "nonpayable",
      "type": "constructor"
    },
    {
      "inputs": [
        {
          "internalType": "address",
          "name": "owner",
          "type": "address"
        }
      ],
      "name": "OwnableInvalidOwner",
      "type": "error"
    },
    {
      "inputs": [
        {
          "internalType": "address",
          "name": "account",
          "type": "address"
        }
      ],
      "name": "OwnableUnauthorizedAccount",
      "type": "error"
    },
    {
      "inputs": [],
      "name": "ReentrancyGuardReentrantCall",
      "type": "error"
    },
    {
      "anonymous": false,
      "inputs": [
        {
          "indexed": true,
          "internalType": "uint256",
          "name": "collectionId",
          "type": "uint256"
        },
        {
          "indexed": true,
          "internalType": "address",
          "name": "contractAddress",
          "type": "address"
        },
        {
          "indexed": true,
          "internalType": "address",
          "name": "creator",
          "type": "address"
        }
      ],
      "name": "CollectionCreated",
      "type": "event"
    },
    {
      "anonymous": false,
      "inputs": [
        {
          "indexed": true,
          "internalType": "address",
          "name": "previousOwner",
          "type": "address"
        },
        {
          "indexed": true,
          "internalType": "address",
          "name": "newOwner",
          "type": "address"
        }
      ],
      "name": "OwnershipTransferred",
      "type": "event"
    },
    {
      "inputs": [],
      "name": "LLM_GENERATION_FEE",
      "outputs": [
        {
          "internalType": "uint256",
          "name": "",
          "type": "uint256"
        }
      ],
      "stateMutability": "view",
      "type": "function"
    },
    {
      "inputs": [],
      "name": "PLATFORM_FEE_PERCENT",
      "outputs": [
        {
          "internalType": "uint256",
          "name": "",
          "type": "uint256"
        }
      ],
      "stateMutability": "view",
      "type": "function"
    },
    {
      "inputs": [],
      "name": "PLATFORM_WALLET",
      "outputs": [
        {
          "internalType": "address",
          "name": "",
          "type": "address"
        }
      ],
      "stateMutability": "view",
      "type": "function"
    },
    {
      "inputs": [
        {
          "internalType": "uint256",
          "name": "",
          "type": "uint256"
        }
      ],
      "name": "collectionInfo",
      "outputs": [
        {
          "internalType": "uint256",
          "name": "id",
          "type": "uint256"
        },
        {
          "internalType": "address",
          "name": "contractAddress",
          "type": "address"
        },
        {
          "internalType": "address",
          "name": "creator",
          "type": "address"
        },
        {
          "internalType": "string",
          "name": "name",
          "type": "string"
        },
        {
          "internalType": "string",
          "name": "symbol",
          "type": "string"
        },
        {
          "internalType": "string",
          "name": "prompt",
          "type": "string"
        },
        {
          "internalType": "string",
          "name": "referenceImageUrl",
          "type": "string"
        },
        {
          "internalType": "uint256",
          "name": "maxSupply",
          "type": "uint256"
        },
        {
          "internalType": "uint256",
          "name": "mintPrice",
          "type": "uint256"
        },
        {
          "internalType": "uint256",
          "name": "createdAt",
          "type": "uint256"
        }
      ],
      "stateMutability": "view",
      "type": "function"
    },
    {
      "inputs": [
        {
          "internalType": "uint256",
          "name": "",
          "type": "uint256"
        }
      ],
      "name": "collections",
      "outputs": [
        {
          "internalType": "address",
          "name": "",
          "type": "address"
        }
      ],
      "stateMutability": "view",
      "type": "function"
    },
    {
      "inputs": [
        {
          "internalType": "string",
          "name": "name",
          "type": "string"
        },
        {
          "internalType": "string",
          "name": "symbol",
          "type": "string"
        },
        {
          "internalType": "string",
          "name": "prompt",
          "type": "string"
        },
        {
          "internalType": "string",
          "name": "referenceImageUrl",
          "type": "string"
        },
        {
          "internalType": "uint256",
          "name": "maxSupply",
          "type": "uint256"
        },
        {
          "internalType": "uint256",
          "name": "mintPrice",
          "type": "uint256"
        }
      ],
      "name": "createCollection",
      "outputs": [
        {
          "internalType": "uint256",
          "name": "",
          "type": "uint256"
        }
      ],
      "stateMutability": "payable",
      "type": "function"
    },
    {
      "inputs": [
        {
          "internalType": "address",
          "name": "",
          "type": "address"
        },
        {
          "internalType": "uint256",
          "name": "",
          "type": "uint256"
        }
      ],
      "name": "creatorCollections",
      "outputs": [
        {
          "internalType": "uint256",
          "name": "",
          "type": "uint256"
        }
      ],
      "stateMutability": "view",
      "type": "function"
    },
    {
      "inputs": [],
      "name": "getAllCollections",
      "outputs": [
        {
          "components": [
            {
              "internalType": "uint256",
              "name": "id",
              "type": "uint256"
            },
            {
              "internalType": "address",
              "name": "contractAddress",
              "type": "address"
            },
            {
              "internalType": "address",
              "name": "creator",
              "type": "address"
            },
            {
              "internalType": "string",
              "name": "name",
              "type": "string"
            },
            {
              "internalType": "string",
              "name": "symbol",
              "type": "string"
            },
            {
              "internalType": "string",
              "name": "prompt",
              "type": "string"
            },
            {
              "internalType": "string",
              "name": "referenceImageUrl",
              "type": "string"
            },
            {
              "internalType": "uint256",
              "name": "maxSupply",
              "type": "uint256"
            },
            {
              "internalType": "uint256",
              "name": "mintPrice",
              "type": "uint256"
            },
            {
              "internalType": "uint256",
              "name": "createdAt",
              "type": "uint256"
            }
          ],
          "internalType": "struct NFTCollectionFactory.CollectionInfo[]",
          "name": "",
          "type": "tuple[]"
        }
      ],
      "stateMutability": "view",
      "type": "function"
    },
    {
      "inputs": [],
      "name": "getCollectionPrice",
      "outputs": [
        {
          "internalType": "uint256",
          "name": "",
          "type": "uint256"
        }
      ],
      "stateMutability": "pure",
      "type": "function"
    },
    {
      "inputs": [
        {
          "internalType": "address",
          "name": "creator",
          "type": "address"
        }
      ],
      "name": "getCollectionsByCreator",
      "outputs": [
        {
          "internalType": "uint256[]",
          "name": "",
          "type": "uint256[]"
        }
      ],
      "stateMutability": "view",
      "type": "function"
    },
    {
      "inputs": [],
      "name": "getTotalCollections",
      "outputs": [
        {
          "internalType": "uint256",
          "name": "",
          "type": "uint256"
        }
      ],
      "stateMutability": "view",
      "type": "function"
    },
    {
      "inputs": [],
      "name": "owner",
      "outputs": [
        {
          "internalType": "address",
          "name": "",
          "type": "address"
        }
      ],
      "stateMutability": "view",
      "type": "function"
    },
    {
      "inputs": [],
      "name": "renounceOwnership",
      "outputs": [],
      "stateMutability": "nonpayable",
      "type": "function"
    },
    {
      "inputs": [
        {
          "internalType": "address",
          "name": "newOwner",
          "type": "address"
        }
      ],
      "name": "transferOwnership",
      "outputs": [],
      "stateMutability": "nonpayable",
      "type": "function"
    },
    {
      "inputs": [
        {
          "internalType": "address",
          "name": "collectionAddress",
          "type": "address"
        },
        {
          "internalType": "uint256",
          "name": "tokenId",
          "type": "uint256"
        },
        {
          "internalType": "string",
          "name": "newTokenURI",
          "type": "string"
        }
      ],
      "name": "updateTokenURI",
      "outputs": [],
      "stateMutability": "nonpayable",
      "type": "function"
    }
  ],
  "bytecode": "0x608060405234801561000f575f80fd5b50338061003557604051631e4fbdf760e01b81525f600482015260240160405180910390fd5b61003e81610048565b5060018055610097565b5f80546001600160a01b038381166001600160a01b0319831681178455604051919092169283917f8be0079c531659141344cd1fd0a4f28419497f9722a3daafe3b4186f6b6457e09190a35050565b61404b806100a45f395ff3fe608060405260043610620000f7575f3560e01c8063715018a61162000092578063f2fde38b116200005e578063f2fde38b1462000290578063f553840714620002b4578063f56b836914620002cf578063fdbda0ec1462000302575f80fd5b8063715018a614620002085780638da5cb5b146200021f578063939bf6dd1462000251578063eb8b12d41462000267575f80fd5b8063560d52d411620000d2578063560d52d414620001915780635cf7987c14620001a75780636804a95814620001cb5780636c5abca514620001f1575f80fd5b80630fb4d2e514620000fb5780630fcd7f8f146200014057806324a8bec01462000166575b5f80fd5b34801562000107575f80fd5b506200011f620001193660046200127e565b6200033a565b604051620001379a99989796959493929190620012db565b60405180910390f35b3480156200014c575f80fd5b50620001646200015e36600462001437565b620005cc565b005b34801562000172575f80fd5b506200018266038d7ea4c6800081565b60405190815260200162000137565b3480156200019d575f80fd5b506200018260fa81565b348015620001b3575f80fd5b5062000182620001c536600462001490565b62000699565b348015620001d7575f80fd5b50620001e2620006c5565b604051620001379190620014bb565b6200018262000202366004620015d0565b62000a9f565b34801562000214575f80fd5b506200016462000fc7565b3480156200022b575f80fd5b505f546001600160a01b03165b6040516001600160a01b03909116815260200162000137565b3480156200025d575f80fd5b5060025462000182565b34801562000273575f80fd5b506200023873e55e9c8e6e2efb0c7b62e78816b6a9fed9218c8181565b3480156200029c575f80fd5b5062000164620002ae36600462001694565b62000fde565b348015620002c0575f80fd5b5066038d7ea4c6800062000182565b348015620002db575f80fd5b50620002f3620002ed36600462001694565b62001021565b604051620001379190620016f2565b3480156200030e575f80fd5b5062000238620003203660046200127e565b60036020525f90815260409020546001600160a01b031681565b60056020525f9081526040902080546001820154600283015460038401805493946001600160a01b03938416949390921692620003779062001706565b80601f0160208091040260200160405190810160405280929190818152602001828054620003a59062001706565b8015620003f45780601f10620003ca57610100808354040283529160200191620003f4565b820191905f5260205f20905b815481529060010190602001808311620003d657829003601f168201915b5050505050908060040180546200040b9062001706565b80601f0160208091040260200160405190810160405280929190818152602001828054620004399062001706565b8015620004885780601f106200045e5761010080835404028352916020019162000488565b820191905f5260205f20905b8154815290600101906020018083116200046a57829003601f168201915b5050505050908060050180546200049f9062001706565b80601f0160208091040260200160405190810160405280929190818152602001828054620004cd9062001706565b80156200051c5780601f10620004f2576101008083540402835291602001916200051c565b820191905f5260205f20905b815481529060010190602001808311620004fe57829003601f168201915b505050505090806006018054620005339062001706565b80601f0160208091040260200160405190810160405280929190818152602001828054620005619062001706565b8015620005b05780601f106200058657610100808354040283529160200191620005b0565b820191905f5260205f20905b8154815290600101906020018083116200059257829003601f168201915b505050505090806007015490806008015490806009015490508a565b620005d66200108c565b6001600160a01b038316620006325760405162461bcd60e51b815260206004820152601a60248201527f496e76616c696420636f6c6c656374696f6e206164647265737300000000000060448201526064015b60405180910390fd5b6040516318e97fd160e01b815283906001600160a01b038216906318e97fd1906200066490869086906004016200173a565b5f604051808303815f87803b1580156200067c575f80fd5b505af11580156200068f573d5f803e3d5ffd5b5050505050505050565b6004602052815f5260405f208181548110620006b3575f80fd5b905f5260205f20015f91509150505481565b60605f60025467ffffffffffffffff811115620006e657620006e662001392565b6040519080825280602002602001820160405280156200077c57816020015b620007686040518061014001604052805f81526020015f6001600160a01b031681526020015f6001600160a01b03168152602001606081526020016060815260200160608152602001606081526020015f81526020015f81526020015f81525090565b815260200190600190039081620007055790505b50905060015b600254811162000a99575f818152600560209081526040918290208251610140810184528154815260018201546001600160a01b0390811693820193909352600282015490921692820192909252600382018054919291606084019190620007ea9062001706565b80601f0160208091040260200160405190810160405280929190818152602001828054620008189062001706565b8015620008675780601f106200083d5761010080835404028352916020019162000867565b820191905f5260205f20905b8154815290600101906020018083116200084957829003601f168201915b50505050508152602001600482018054620008829062001706565b80601f0160208091040260200160405190810160405280929190818152602001828054620008b09062001706565b8015620008ff5780601f10620008d557610100808354040283529160200191620008ff565b820191905f5260205f20905b815481529060010190602001808311620008e157829003601f168201915b505050505081526020016005820180546200091a9062001706565b80601f0160208091040260200160405190810160405280929190818152602001828054620009489062001706565b8015620009975780601f106200096d5761010080835404028352916020019162000997565b820191905f5260205f20905b8154815290600101906020018083116200097957829003601f168201915b50505050508152602001600682018054620009b29062001706565b80601f0160208091040260200160405190810160405280929190818152602001828054620009e09062001706565b801562000a2f5780601f1062000a055761010080835404028352916020019162000a2f565b820191905f5260205f20905b81548152906001019060200180831162000a1157829003601f168201915b505050918352505060078201546020820152600882015460408201526009909101546060909101528262000a6560018462001770565b8151811062000a785762000a786200178c565b6020026020010181905250808062000a9090620017a0565b91505062000782565b50919050565b5f62000aaa620010ba565b5f87511162000af35760405162461bcd60e51b81526020600482015260146024820152734e616d652063616e6e6f7420626520656d70747960601b604482015260640162000629565b5f86511162000b3e5760405162461bcd60e51b815260206004820152601660248201527553796d626f6c2063616e6e6f7420626520656d70747960501b604482015260640162000629565b5f85511162000b895760405162461bcd60e51b815260206004820152601660248201527550726f6d70742063616e6e6f7420626520656d70747960501b604482015260640162000629565b5f8311801562000b9b57506127108311155b62000bde5760405162461bcd60e51b8152602060048201526012602482015271496e76616c6964206d617820737570706c7960701b604482015260640162000629565b5f821162000c395760405162461bcd60e51b815260206004820152602160248201527f4d696e74207072696365206d7573742062652067726561746572207468616e206044820152600360fc1b606482015260840162000629565b66038d7ea4c6800034101562000ca25760405162461bcd60e51b815260206004820152602760248201527f496e73756666696369656e74207061796d656e7420666f72204c4c4d2067656e60448201526632b930ba34b7b760c91b606482015260840162000629565b60028054905f62000cb383620017a0565b91905055505f8062000cc584620010e5565b915091505f89898989893330898960405162000ce19062001270565b62000cf599989796959493929190620017bb565b604051809103905ff08015801562000d0f573d5f803e3d5ffd5b5090508060035f60025481526020019081526020015f205f6101000a8154816001600160a01b0302191690836001600160a01b0316021790555060045f336001600160a01b03166001600160a01b031681526020019081526020015f20600254908060018154018082558091505060019003905f5260205f20015f90919091909150556040518061014001604052806002548152602001826001600160a01b03168152602001336001600160a01b031681526020018b81526020018a81526020018981526020018881526020018781526020018681526020014281525060055f60025481526020019081526020015f205f820151815f01556020820151816001015f6101000a8154816001600160a01b0302191690836001600160a01b031602179055506040820151816002015f6101000a8154816001600160a01b0302191690836001600160a01b03160217905550606082015181600301908162000e769190620018e7565b506080820151600482019062000e8d9082620018e7565b5060a0820151600582019062000ea49082620018e7565b5060c0820151600682019062000ebb9082620018e7565b5060e0820151600782015561010082015160088201556101209091015160099091015560405173e55e9c8e6e2efb0c7b62e78816b6a9fed9218c81903480156108fc02915f818181858888f1935050505015801562000f1c573d5f803e3d5ffd5b50604051630355d30960e11b81523360048201526001600160a01b038216906306aba612906024015f604051808303815f87803b15801562000f5c575f80fd5b505af115801562000f6f573d5f803e3d5ffd5b50506002546040513393506001600160a01b03851692507fee4d8764b6b7ece682a156063b005e7b6669f9677a19d90b218fc10632eb7ab1905f90a4600254935050505062000fbd60018055565b9695505050505050565b62000fd16200108c565b62000fdc5f62001221565b565b62000fe86200108c565b6001600160a01b0381166200101357604051631e4fbdf760e01b81525f600482015260240162000629565b6200101e8162001221565b50565b6001600160a01b0381165f908152600460209081526040918290208054835181840281018401909452808452606093928301828280156200108057602002820191905f5260205f20905b8154815260200190600101908083116200106b575b50505050509050919050565b5f546001600160a01b0316331462000fdc5760405163118cdaa760e01b815233600482015260240162000629565b600260015403620010de57604051633ee5aeb560e01b815260040160405180910390fd5b6002600155565b60408051600280825260608083018452928392919060208301908036833750506040805160028082526060820183529395509291506020830190803683370190505090505f6127106200113a60fa86620019b0565b620011469190620019ca565b905033835f815181106200115e576200115e6200178c565b6001600160a01b039092166020928302919091019091015262001182818562001770565b825f815181106200119757620011976200178c565b60200260200101818152505073e55e9c8e6e2efb0c7b62e78816b6a9fed9218c8183600181518110620011ce57620011ce6200178c565b6001600160a01b0390921660209283029190910190910152620011f966038d7ea4c6800082620019ea565b826001815181106200120f576200120f6200178c565b60200260200101818152505050915091565b5f80546001600160a01b038381166001600160a01b0319831681178455604051919092169283917f8be0079c531659141344cd1fd0a4f28419497f9722a3daafe3b4186f6b6457e09190a35050565b6126158062001a0183390190565b5f602082840312156200128f575f80fd5b5035919050565b5f81518084525f5b81811015620012bc576020818501810151868301820152016200129e565b505f602082860101526020601f19601f83011685010191505092915050565b8a81526001600160a01b038a8116602083015289166040820152610140606082018190525f906200130f8382018b62001296565b9050828103608084015262001325818a62001296565b905082810360a08401526200133b818962001296565b905082810360c084015262001351818862001296565b60e0840196909652505061010081019290925261012090910152979650505050505050565b80356001600160a01b03811681146200138d575f80fd5b919050565b634e487b7160e01b5f52604160045260245ffd5b5f82601f830112620013b6575f80fd5b813567ffffffffffffffff80821115620013d457620013d462001392565b604051601f8301601f19908116603f01168101908282118183101715620013ff57620013ff62001392565b8160405283815286602085880101111562001418575f80fd5b836020870160208301375f602085830101528094505050505092915050565b5f805f606084860312156200144a575f80fd5b620014558462001376565b925060208401359150604084013567ffffffffffffffff81111562001478575f80fd5b6200148686828701620013a6565b9150509250925092565b5f8060408385031215620014a2575f80fd5b620014ad8362001376565b946020939093013593505050565b5f6020808301818452808551808352604092508286019150828160051b8701018488015f5b83811015620015c257603f19898403018552815180518452878101516001600160a01b03908116898601528782015116878501526060808201516101408287018190529190620015338388018262001296565b925050506080808301518683038288015262001550838262001296565b9250505060a080830151868303828801526200156d838262001296565b9250505060c080830151868303828801526200158a838262001296565b60e0858101519089015261010080860151908901526101209485015194909701939093525050509386019390860190600101620014e0565b509098975050505050505050565b5f805f805f8060c08789031215620015e6575f80fd5b863567ffffffffffffffff80821115620015fe575f80fd5b6200160c8a838b01620013a6565b9750602089013591508082111562001622575f80fd5b620016308a838b01620013a6565b9650604089013591508082111562001646575f80fd5b620016548a838b01620013a6565b955060608901359150808211156200166a575f80fd5b506200167989828a01620013a6565b9350506080870135915060a087013590509295509295509295565b5f60208284031215620016a5575f80fd5b620016b08262001376565b9392505050565b5f8151808452602080850194508084015f5b83811015620016e757815187529582019590820190600101620016c9565b509495945050505050565b602081525f620016b06020830184620016b7565b600181811c908216806200171b57607f821691505b60208210810362000a9957634e487b7160e01b5f52602260045260245ffd5b828152604060208201525f62001754604083018462001296565b949350505050565b634e487b7160e01b5f52601160045260245ffd5b818103818111156200178657620017866200175c565b92915050565b634e487b7160e01b5f52603260045260245ffd5b5f60018201620017b457620017b46200175c565b5060010190565b5f610120808352620017d08184018d62001296565b9050602083820381850152620017e7828d62001296565b91508382036040850152620017fd828c62001296565b9150838203606085015262001813828b62001296565b608085018a90526001600160a01b0389811660a087015288811660c087015285820360e08701528751808352838901945090918301905f5b818110156200186b5785518416835294840194918401916001016200184b565b5050858103610100870152620018828188620016b7565b9f9e505050505050505050505050505050565b601f821115620018e2575f81815260208120601f850160051c81016020861015620018bd5750805b601f850160051c820191505b81811015620018de57828155600101620018c9565b5050505b505050565b815167ffffffffffffffff81111562001904576200190462001392565b6200191c8162001915845462001706565b8462001895565b602080601f83116001811462001952575f84156200193a5750858301515b5f19600386901b1c1916600185901b178555620018de565b5f85815260208120601f198616915b82811015620019825788860151825594840194600190910190840162001961565b5085821015620019a057878501515f19600388901b60f8161c191681555b5050505050600190811b01905550565b80820281158282048414176200178657620017866200175c565b5f82620019e557634e487b7160e01b5f52601260045260245ffd5b500490565b808201808211156200178657620017866200175c56fe608060405234801562000010575f80fd5b5060405162002615380380620026158339810160408190526200003391620004ee565b8389895f620000438382620006a6565b506001620000528282620006a6565b50506001600755506001600160a01b0381166200008957604051631e4fbdf760e01b81525f60048201526024015b60405180910390fd5b6200009481620001eb565b508051825114620000f35760405162461bcd60e51b815260206004820152602260248201527f50617965657320616e6420616d6f756e7473206c656e677468206d69736d61746044820152610c6d60f31b606482015260840162000080565b5f825111620001455760405162461bcd60e51b815260206004820152601c60248201527f4d7573742068617665206174206c65617374206f6e6520706179656500000000604482015260640162000080565b600b620001538882620006a6565b50600c620001628782620006a6565b50600a859055600d80546001600160a01b038087166001600160a01b031992831617909255600e80549286169290911691909117905542600f819055620001ad9062278d006200076e565b6010558151620001c59060119060208501906200023c565b508051620001db906012906020840190620002a4565b5050505050505050505062000794565b600880546001600160a01b038381166001600160a01b0319831681179093556040519116919082907f8be0079c531659141344cd1fd0a4f28419497f9722a3daafe3b4186f6b6457e0905f90a35050565b828054828255905f5260205f2090810192821562000292579160200282015b828111156200029257825182546001600160a01b0319166001600160a01b039091161782556020909201916001909101906200025b565b50620002a0929150620002e0565b5090565b828054828255905f5260205f2090810192821562000292579160200282015b8281111562000292578251825591602001919060010190620002c3565b5b80821115620002a0575f8155600101620002e1565b634e487b7160e01b5f52604160045260245ffd5b604051601f8201601f191681016001600160401b0381118282101715620003355762000335620002f6565b604052919050565b5f82601f8301126200034d575f80fd5b81516001600160401b03811115620003695762000369620002f6565b60206200037f601f8301601f191682016200030a565b828152858284870101111562000393575f80fd5b5f5b83811015620003b257858101830151828201840152820162000395565b505f928101909101919091529392505050565b6001600160a01b0381168114620003da575f80fd5b50565b8051620003ea81620003c5565b919050565b5f6001600160401b038211156200040a576200040a620002f6565b5060051b60200190565b5f82601f83011262000424575f80fd5b815160206200043d6200043783620003ef565b6200030a565b82815260059290921b840181019181810190868411156200045c575f80fd5b8286015b84811015620004845780516200047681620003c5565b835291830191830162000460565b509695505050505050565b5f82601f8301126200049f575f80fd5b81516020620004b26200043783620003ef565b82815260059290921b84018101918181019086841115620004d1575f80fd5b8286015b84811015620004845780518352918301918301620004d5565b5f805f805f805f805f6101208a8c03121562000508575f80fd5b89516001600160401b03808211156200051f575f80fd5b6200052d8d838e016200033d565b9a5060208c015191508082111562000543575f80fd5b620005518d838e016200033d565b995060408c015191508082111562000567575f80fd5b620005758d838e016200033d565b985060608c01519150808211156200058b575f80fd5b620005998d838e016200033d565b975060808c01519650620005b060a08d01620003dd565b9550620005c060c08d01620003dd565b945060e08c0151915080821115620005d6575f80fd5b620005e48d838e0162000414565b93506101008c0151915080821115620005fb575f80fd5b506200060a8c828d016200048f565b9150509295985092959850929598565b600181811c908216806200062f57607f821691505b6020821081036200064e57634e487b7160e01b5f52602260045260245ffd5b50919050565b601f821115620006a1575f81815260208120601f850160051c810160208610156200067c5750805b601f850160051c820191505b818110156200069d5782815560010162000688565b5050505b505050565b81516001600160401b03811115620006c257620006c2620002f6565b620006da81620006d384546200061a565b8462000654565b602080601f83116001811462000710575f8415620006f85750858301515b5f19600386901b1c1916600185901b1785556200069d565b5f85815260208120601f198616915b8281101562000740578886015182559484019460019091019084016200071f565b50858210156200075e57878501515f19600388901b60f8161c191681555b5050505050600190811b01905550565b808201808211156200078e57634e487b7160e01b5f52601160045260245ffd5b92915050565b611e7380620007a25f395ff3fe6080604052600436106101f1575f3560e01c806370a0823111610108578063aa4ffb061161009d578063c87b56dd1161006d578063c87b56dd1461053d578063d5abeb011461055c578063e985e9c514610571578063f2fde38b14610590578063fc5be82f146105af575f80fd5b8063aa4ffb06146104cc578063b88d4fde146104e0578063c45a0155146104ff578063c547c6fc1461051e575f80fd5b80638da5cb5b116100d85780638da5cb5b14610467578063931e2e491461048457806395d89b4114610499578063a22cb465146104ad575f80fd5b806370a082311461040b578063715018a61461042a578063717a002b1461043e5780637c65d71114610453575f80fd5b806323b872dd116101895780634f3e1efc116101595780634f3e1efc1461038657806360ac632b1461039a578063611b645b146103b957806363037b0c146103cd5780636352211e146103ec575f80fd5b806323b872dd1461030757806342842e0e1461032657806345f0a44f146103455780634b94f50e14610372575f80fd5b8063081812fc116101c4578063081812fc146102a2578063095ea7b3146102c15780631249c58b146102e057806318e97fd1146102e8575f80fd5b806301ffc9a7146101f557806302d05d3f1461022957806306aba6121461026057806306fdde0314610281575b5f80fd5b348015610200575f80fd5b5061021461020f36600461191f565b6105c3565b60405190151581526020015b60405180910390f35b348015610234575f80fd5b50600d54610248906001600160a01b031681565b6040516001600160a01b039091168152602001610220565b34801561026b575f80fd5b5061027f61027a366004611955565b6105ed565b005b34801561028c575f80fd5b5061029561071f565b60405161022091906119bb565b3480156102ad575f80fd5b506102486102bc3660046119cd565b6107ae565b3480156102cc575f80fd5b5061027f6102db3660046119e4565b6107d5565b61027f6107e4565b3480156102f3575f80fd5b5061027f610302366004611a93565b610aa7565b348015610312575f80fd5b5061027f610321366004611aea565b610b9e565b348015610331575f80fd5b5061027f610340366004611aea565b610c27565b348015610350575f80fd5b5061036461035f3660046119cd565b610c46565b604051908152602001610220565b34801561037d575f80fd5b50610364610c65565b348015610391575f80fd5b50600954610364565b3480156103a5575f80fd5b506102146103b43660046119cd565b610cb4565b3480156103c4575f80fd5b50610295610cfc565b3480156103d8575f80fd5b506102486103e73660046119cd565b610d0b565b3480156103f7575f80fd5b506102486104063660046119cd565b610d33565b348015610416575f80fd5b50610364610425366004611955565b610d3d565b348015610435575f80fd5b5061027f610d82565b348015610449575f80fd5b5061036460105481565b34801561045e575f80fd5b50610295610d93565b348015610472575f80fd5b506008546001600160a01b0316610248565b34801561048f575f80fd5b50610364600f5481565b3480156104a4575f80fd5b50610295610e1f565b3480156104b8575f80fd5b5061027f6104c7366004611b23565b610e2e565b3480156104d7575f80fd5b50610295610e39565b3480156104eb575f80fd5b5061027f6104fa366004611b5c565b610e46565b34801561050a575f80fd5b50600e54610248906001600160a01b031681565b348015610529575f80fd5b506102956105383660046119cd565b610e5e565b348015610548575f80fd5b506102956105573660046119cd565b610f24565b348015610567575f80fd5b50610364600a5481565b34801561057c575f80fd5b5061021461058b366004611bd3565b61103f565b34801561059b575f80fd5b5061027f6105aa366004611955565b61106c565b3480156105ba575f80fd5b506102956110a6565b5f6001600160e01b03198216632483248360e11b14806105e757506105e7826110b5565b92915050565b6105f5611104565b600e546001600160a01b0316331461064c5760405162461bcd60e51b815260206004820152601560248201527413db9b1e48199858dd1bdc9e4818d85b881b5a5b9d605a1b60448201526064015b60405180910390fd5b600a54600954106106945760405162461bcd60e51b815260206004820152601260248201527113585e081cdd5c1c1b1e481c995858da195960721b6044820152606401610643565b60098054905f6106a383611c18565b90915550506009546106b5828261112e565b5f8181526013602052604090819020805460ff19169055516001600160a01b0383169082907f2d03118aa776f7008445f6ca8490a6782ede2db364d741513555ba656ab1879f906107099042815260200190565b60405180910390a35061071c6001600755565b50565b60605f805461072d90611c30565b80601f016020809104026020016040519081016040528092919081815260200182805461075990611c30565b80156107a45780601f1061077b576101008083540402835291602001916107a4565b820191905f5260205f20905b81548152906001019060200180831161078757829003601f168201915b5050505050905090565b5f6107b88261118f565b505f828152600460205260409020546001600160a01b03166105e7565b6107e08282336111c7565b5050565b6107ec611104565b600f544210156108345760405162461bcd60e51b8152602060048201526013602482015272135a5b9d1a5b99c81b9bdd081cdd185c9d1959606a1b6044820152606401610643565b6010544211156108765760405162461bcd60e51b815260206004820152600d60248201526c135a5b9d1a5b99c8195b991959609a1b6044820152606401610643565b600a54600954106108be5760405162461bcd60e51b815260206004820152601260248201527113585e081cdd5c1c1b1e481c995858da195960721b6044820152606401610643565b5f6108c7610c65565b9050803410156109105760405162461bcd60e51b8152602060048201526014602482015273125b9cdd59999a58da595b9d081c185e5b595b9d60621b6044820152606401610643565b5f5b601154811015610a24576011818154811061092f5761092f611c62565b5f91825260209091200154601280546001600160a01b03909216916108fc91908490811061095f5761095f611c62565b905f5260205f20015490811502906040515f60405180830381858888f19350505050158015610990573d5f803e3d5ffd5b50601181815481106109a4576109a4611c62565b5f91825260209091200154601280546001600160a01b03909216917f59d9f8b94d1de65b8eeb1b14e24d5d70c2782e96b3abef17ba687f3ee33a754a9190849081106109f2576109f2611c62565b905f5260205f200154604051610a0a91815260200190565b60405180910390a280610a1c81611c18565b915050610912565b5060098054905f610a3483611c18565b9091555050600954610a46338261112e565b5f8181526013602052604090819020805460ff1916905551339082907f2d03118aa776f7008445f6ca8490a6782ede2db364d741513555ba656ab1879f90610a919042815260200190565b60405180910390a35050610aa56001600755565b565b600e546001600160a01b03163314610b0b5760405162461bcd60e51b815260206004820152602160248201527f4f6e6c7920666163746f72792063616e2075706461746520746f6b656e2055526044820152604960f81b6064820152608401610643565b5f828152600260205260409020546001600160a01b0316610b3e5760405162461bcd60e51b815260040161064390611c76565b610b4882826111d4565b5f8281526013602052604090819020805460ff191660011790555182907f931f495b9a8e5d8e61946ea5d61e021f636cfe213a801f97589c18c152e408bd90610b929084906119bb565b60405180910390a25050565b6001600160a01b038216610bc757604051633250574960e11b81525f6004820152602401610643565b5f610bd3838333611223565b9050836001600160a01b0316816001600160a01b031614610c21576040516364283d7b60e01b81526001600160a01b0380861660048301526024820184905282166044820152606401610643565b50505050565b610c4183838360405180602001604052805f815250610e46565b505050565b60128181548110610c55575f80fd5b5f91825260209091200154905081565b5f80805b601254811015610cae5760128181548110610c8657610c86611c62565b905f5260205f20015482610c9a9190611ca4565b915080610ca681611c18565b915050610c69565b50919050565b5f818152600260205260408120546001600160a01b0316610ce75760405162461bcd60e51b815260040161064390611c76565b505f9081526013602052604090205460ff1690565b6060600c805461072d90611c30565b60118181548110610d1a575f80fd5b5f918252602090912001546001600160a01b0316905081565b5f6105e78261118f565b5f6001600160a01b038216610d67576040516322718ad960e21b81525f6004820152602401610643565b506001600160a01b03165f9081526003602052604090205490565b610d8a611315565b610aa55f611342565b600b8054610da090611c30565b80601f0160208091040260200160405190810160405280929190818152602001828054610dcc90611c30565b8015610e175780601f10610dee57610100808354040283529160200191610e17565b820191905f5260205f20905b815481529060010190602001808311610dfa57829003601f168201915b505050505081565b60606001805461072d90611c30565b6107e0338383611393565b600c8054610da090611c30565b610e51848484610b9e565b610c213385858585611431565b5f818152600260205260409020546060906001600160a01b0316610e945760405162461bcd60e51b815260040161064390611c76565b600b8054610ea190611c30565b80601f0160208091040260200160405190810160405280929190818152602001828054610ecd90611c30565b8015610f185780601f10610eef57610100808354040283529160200191610f18565b820191905f5260205f20905b815481529060010190602001808311610efb57829003601f168201915b50505050509050919050565b6060610f2f8261118f565b505f8281526006602052604081208054610f4890611c30565b80601f0160208091040260200160405190810160405280929190818152602001828054610f7490611c30565b8015610fbf5780601f10610f9657610100808354040283529160200191610fbf565b820191905f5260205f20905b815481529060010190602001808311610fa257829003601f168201915b505050505090505f610feb604080518082019091526007815266697066733a2f2f60c81b602082015290565b905080515f03610ffc575092915050565b81511561102e578082604051602001611016929190611cb7565b60405160208183030381529060405292505050919050565b61103784611559565b949350505050565b6001600160a01b039182165f90815260056020908152604080832093909416825291909152205460ff1690565b611074611315565b6001600160a01b03811661109d57604051631e4fbdf760e01b81525f6004820152602401610643565b61071c81611342565b6060600b805461072d90611c30565b5f6001600160e01b031982166380ac58cd60e01b14806110e557506001600160e01b03198216635b5e139f60e01b145b806105e757506301ffc9a760e01b6001600160e01b03198316146105e7565b60026007540361112757604051633ee5aeb560e01b815260040160405180910390fd5b6002600755565b6001600160a01b03821661115757604051633250574960e11b81525f6004820152602401610643565b5f61116383835f611223565b90506001600160a01b03811615610c41576040516339e3563760e11b81525f6004820152602401610643565b5f818152600260205260408120546001600160a01b0316806105e757604051637e27328960e01b815260048101849052602401610643565b610c4183838360016115da565b5f8281526006602052604090206111eb8282611d2a565b506040518281527ff8e1a15aba9398e019f0b49df1a4fde98ee17ae345cb5f6b5e2c27f5033e8ce79060200160405180910390a15050565b5f828152600260205260408120546001600160a01b039081169083161561124f5761124f8184866116de565b6001600160a01b038116156112895761126a5f855f806115da565b6001600160a01b0381165f90815260036020526040902080545f190190555b6001600160a01b038516156112b7576001600160a01b0385165f908152600360205260409020805460010190555b5f8481526002602052604080822080546001600160a01b0319166001600160a01b0389811691821790925591518793918516917fddf252ad1be2c89b69c2b068fc378daa952ba7f163c4a11628f55a4df523b3ef91a4949350505050565b6008546001600160a01b03163314610aa55760405163118cdaa760e01b8152336004820152602401610643565b600880546001600160a01b038381166001600160a01b0319831681179093556040519116919082907f8be0079c531659141344cd1fd0a4f28419497f9722a3daafe3b4186f6b6457e0905f90a35050565b6001600160a01b0382166113c557604051630b61174360e31b81526001600160a01b0383166004820152602401610643565b6001600160a01b038381165f81815260056020908152604080832094871680845294825291829020805460ff191686151590811790915591519182527f17307eab39ab6107e8899845ad3d59bd9653f200f220920489ca2b5937696c31910160405180910390a3505050565b6001600160a01b0383163b1561155257604051630a85bd0160e11b81526001600160a01b0384169063150b7a0290611473908890889087908790600401611de6565b6020604051808303815f875af19250505080156114ad575060408051601f3d908101601f191682019092526114aa91810190611e22565b60015b611514573d8080156114da576040519150601f19603f3d011682016040523d82523d5f602084013e6114df565b606091505b5080515f0361150c57604051633250574960e11b81526001600160a01b0385166004820152602401610643565b805160208201fd5b6001600160e01b03198116630a85bd0160e11b1461155057604051633250574960e11b81526001600160a01b0385166004820152602401610643565b505b5050505050565b60606115648261118f565b505f61158a604080518082019091526007815266697066733a2f2f60c81b602082015290565b90505f8151116115a85760405180602001604052805f8152506115d3565b806115b284611742565b6040516020016115c3929190611cb7565b6040516020818303038152906040525b9392505050565b80806115ee57506001600160a01b03821615155b156116af575f6115fd8461118f565b90506001600160a01b038316158015906116295750826001600160a01b0316816001600160a01b031614155b801561163c575061163a818461103f565b155b156116655760405163a9fbf51f60e01b81526001600160a01b0384166004820152602401610643565b81156116ad5783856001600160a01b0316826001600160a01b03167f8c5be1e5ebec7d5bd14f71427d1e84f3dd0314c0f7b2291e5b200ac8c7c3b92560405160405180910390a45b505b50505f90815260046020526040902080546001600160a01b0319166001600160a01b0392909216919091179055565b6116e98383836117d2565b610c41576001600160a01b03831661171757604051637e27328960e01b815260048101829052602401610643565b60405163177e802f60e01b81526001600160a01b038316600482015260248101829052604401610643565b60605f61174e83611833565b60010190505f8167ffffffffffffffff81111561176d5761176d611a0c565b6040519080825280601f01601f191660200182016040528015611797576020820181803683370190505b5090508181016020015b5f19016f181899199a1a9b1b9c1cb0b131b232b360811b600a86061a8153600a85049450846117a157509392505050565b5f6001600160a01b038316158015906110375750826001600160a01b0316846001600160a01b0316148061180b575061180b848461103f565b806110375750505f908152600460205260409020546001600160a01b03908116911614919050565b5f8072184f03e93ff9f4daa797ed6e38ed64bf6a1f0160401b83106118715772184f03e93ff9f4daa797ed6e38ed64bf6a1f0160401b830492506040015b6d04ee2d6d415b85acef8100000000831061189d576d04ee2d6d415b85acef8100000000830492506020015b662386f26fc1000083106118bb57662386f26fc10000830492506010015b6305f5e10083106118d3576305f5e100830492506008015b61271083106118e757612710830492506004015b606483106118f9576064830492506002015b600a83106105e75760010192915050565b6001600160e01b03198116811461071c575f80fd5b5f6020828403121561192f575f80fd5b81356115d38161190a565b80356001600160a01b0381168114611950575f80fd5b919050565b5f60208284031215611965575f80fd5b6115d38261193a565b5f5b83811015611988578181015183820152602001611970565b50505f910152565b5f81518084526119a781602086016020860161196e565b601f01601f19169290920160200192915050565b602081525f6115d36020830184611990565b5f602082840312156119dd575f80fd5b5035919050565b5f80604083850312156119f5575f80fd5b6119fe8361193a565b946020939093013593505050565b634e487b7160e01b5f52604160045260245ffd5b5f67ffffffffffffffff80841115611a3a57611a3a611a0c565b604051601f8501601f19908116603f01168101908282118183101715611a6257611a62611a0c565b81604052809350858152868686011115611a7a575f80fd5b858560208301375f602087830101525050509392505050565b5f8060408385031215611aa4575f80fd5b82359150602083013567ffffffffffffffff811115611ac1575f80fd5b8301601f81018513611ad1575f80fd5b611ae085823560208401611a20565b9150509250929050565b5f805f60608486031215611afc575f80fd5b611b058461193a565b9250611b136020850161193a565b9150604084013590509250925092565b5f8060408385031215611b34575f80fd5b611b3d8361193a565b915060208301358015158114611b51575f80fd5b809150509250929050565b5f805f8060808587031215611b6f575f80fd5b611b788561193a565b9350611b866020860161193a565b925060408501359150606085013567ffffffffffffffff811115611ba8575f80fd5b8501601f81018713611bb8575f80fd5b611bc787823560208401611a20565b91505092959194509250565b5f8060408385031215611be4575f80fd5b611bed8361193a565b9150611bfb6020840161193a565b90509250929050565b634e487b7160e01b5f52601160045260245ffd5b5f60018201611c2957611c29611c04565b5060010190565b600181811c90821680611c4457607f821691505b602082108103610cae57634e487b7160e01b5f52602260045260245ffd5b634e487b7160e01b5f52603260045260245ffd5b602080825260149082015273151bdad95b88191bd95cc81b9bdd08195e1a5cdd60621b604082015260600190565b808201808211156105e7576105e7611c04565b5f8351611cc881846020880161196e565b835190830190611cdc81836020880161196e565b01949350505050565b601f821115610c41575f81815260208120601f850160051c81016020861015611d0b5750805b601f850160051c820191505b8181101561155057828155600101611d17565b815167ffffffffffffffff811115611d4457611d44611a0c565b611d5881611d528454611c30565b84611ce5565b602080601f831160018114611d8b575f8415611d745750858301515b5f19600386901b1c1916600185901b178555611550565b5f85815260208120601f198616915b82811015611db957888601518255948401946001909101908401611d9a565b5085821015611dd657878501515f19600388901b60f8161c191681555b5050505050600190811b01905550565b6001600160a01b03858116825284166020820152604081018390526080606082018190525f90611e1890830184611990565b9695505050505050565b5f60208284031215611e32575f80fd5b81516115d38161190a56fea26469706673582212201cefcd58707dd05011e0cb5de9b57c12fb1b234236ebbc83f8d34ef25b8ebca764736f6c63430008140033a26469706673582212209fdba55c6339c8de5179f6fb1a09f68f70dd1bc0756c47bc5a2aa88db88ea7cc64736f6c63430008140033",
  "linkReferences": {},
  "deployedLinkReferences": {},
  "immutableReferences": {},
  "inputSourceName": "project/contracts/NFTCollectionFactory.sol",
  "buildInfoId": "solc-0_8_20-1c28c4b18e6b20c9e01adc03cf8550afc5af280a"
}