{
  "_format": "hh3-artifact-1",
  "contractName": "NFTCollectionFactory",
  "sourceName": "contracts/NFTCollectionFactory.sol",
  "abi": [
    {
      "inputs": [],
      "stateMutability": "nonpayable",
      "type": "constructor"
    },
    {
      "inputs": [
        {
          "internalType": "address",
          "name": "owner",
          "type": "address"
        }
      ],
      "name": "OwnableInvalidOwner",
      "type": "error"
    },
    {
      "inputs": [
        {
          "internalType": "address",
          "name": "account",
          "type": "address"
        }
      ],
      "name": "OwnableUnauthorizedAccount",
      "type": "error"
    },
    {
      "inputs": [],
      "name": "ReentrancyGuardReentrantCall",
      "type": "error"
    },
    {
      "anonymous": false,
      "inputs": [
        {
          "indexed": true,
          "internalType": "uint256",
          "name": "collectionId",
          "type": "uint256"
        },
        {
          "indexed": true,
          "internalType": "address",
          "name": "contractAddress",
          "type": "address"
        },
        {
          "indexed": true,
          "internalType": "address",
          "name": "creator",
          "type": "address"
        },
        {
          "indexed": false,
          "internalType": "address",
          "name": "parent",
          "type": "address"
        }
      ],
      "name": "CollectionCreated",
      "type": "event"
    },
    {
      "anonymous": false,
      "inputs": [
        {
          "indexed": true,
          "internalType": "address",
          "name": "previousOwner",
          "type": "address"
        },
        {
          "indexed": true,
          "internalType": "address",
          "name": "newOwner",
          "type": "address"
        }
      ],
      "name": "OwnershipTransferred",
      "type": "event"
    },
    {
      "inputs": [],
      "name": "LLM_GENERATION_FEE",
      "outputs": [
        {
          "internalType": "uint256",
          "name": "",
          "type": "uint256"
        }
      ],
      "stateMutability": "view",
      "type": "function"
    },
    {
      "inputs": [],
      "name": "PLATFORM_FEE_PERCENT",
      "outputs": [
        {
          "internalType": "uint256",
          "name": "",
          "type": "uint256"
        }
      ],
      "stateMutability": "view",
      "type": "function"
    },
    {
      "inputs": [],
      "name": "PLATFORM_WALLET",
      "outputs": [
        {
          "internalType": "address",
          "name": "",
          "type": "address"
        }
      ],
      "stateMutability": "view",
      "type": "function"
    },
    {
      "inputs": [
        {
          "internalType": "uint256",
          "name": "",
          "type": "uint256"
        }
      ],
      "name": "collectionInfo",
      "outputs": [
        {
          "internalType": "uint256",
          "name": "id",
          "type": "uint256"
        },
        {
          "internalType": "address",
          "name": "contractAddress",
          "type": "address"
        },
        {
          "internalType": "address",
          "name": "creator",
          "type": "address"
        },
        {
          "internalType": "string",
          "name": "name",
          "type": "string"
        },
        {
          "internalType": "string",
          "name": "symbol",
          "type": "string"
        },
        {
          "internalType": "string",
          "name": "prompt",
          "type": "string"
        },
        {
          "internalType": "string",
          "name": "referenceImageUrl",
          "type": "string"
        },
        {
          "internalType": "uint256",
          "name": "maxSupply",
          "type": "uint256"
        },
        {
          "internalType": "uint256",
          "name": "mintPrice",
          "type": "uint256"
        },
        {
          "internalType": "uint256",
          "name": "createdAt",
          "type": "uint256"
        },
        {
          "internalType": "uint256",
          "name": "parentId",
          "type": "uint256"
        }
      ],
      "stateMutability": "view",
      "type": "function"
    },
    {
      "inputs": [
        {
          "internalType": "uint256",
          "name": "",
          "type": "uint256"
        }
      ],
      "name": "collections",
      "outputs": [
        {
          "internalType": "address",
          "name": "",
          "type": "address"
        }
      ],
      "stateMutability": "view",
      "type": "function"
    },
    {
      "inputs": [
        {
          "internalType": "string",
          "name": "name",
          "type": "string"
        },
        {
          "internalType": "string",
          "name": "symbol",
          "type": "string"
        },
        {
          "internalType": "string",
          "name": "prompt",
          "type": "string"
        },
        {
          "internalType": "string",
          "name": "referenceImageUrl",
          "type": "string"
        },
        {
          "internalType": "uint256",
          "name": "maxSupply",
          "type": "uint256"
        },
        {
          "internalType": "uint256",
          "name": "mintPrice",
          "type": "uint256"
        },
        {
          "internalType": "uint256",
          "name": "parentId",
          "type": "uint256"
        }
      ],
      "name": "createCollection",
      "outputs": [
        {
          "internalType": "uint256",
          "name": "",
          "type": "uint256"
        }
      ],
      "stateMutability": "payable",
      "type": "function"
    },
    {
      "inputs": [
        {
          "internalType": "address",
          "name": "",
          "type": "address"
        },
        {
          "internalType": "uint256",
          "name": "",
          "type": "uint256"
        }
      ],
      "name": "creatorCollections",
      "outputs": [
        {
          "internalType": "uint256",
          "name": "",
          "type": "uint256"
        }
      ],
      "stateMutability": "view",
      "type": "function"
    },
    {
      "inputs": [],
      "name": "getAllCollections",
      "outputs": [
        {
          "components": [
            {
              "internalType": "uint256",
              "name": "id",
              "type": "uint256"
            },
            {
              "internalType": "address",
              "name": "contractAddress",
              "type": "address"
            },
            {
              "internalType": "address",
              "name": "creator",
              "type": "address"
            },
            {
              "internalType": "string",
              "name": "name",
              "type": "string"
            },
            {
              "internalType": "string",
              "name": "symbol",
              "type": "string"
            },
            {
              "internalType": "string",
              "name": "prompt",
              "type": "string"
            },
            {
              "internalType": "string",
              "name": "referenceImageUrl",
              "type": "string"
            },
            {
              "internalType": "uint256",
              "name": "maxSupply",
              "type": "uint256"
            },
            {
              "internalType": "uint256",
              "name": "mintPrice",
              "type": "uint256"
            },
            {
              "internalType": "uint256",
              "name": "createdAt",
              "type": "uint256"
            },
            {
              "internalType": "uint256",
              "name": "parentId",
              "type": "uint256"
            }
          ],
          "internalType": "struct NFTCollectionFactory.CollectionInfo[]",
          "name": "",
          "type": "tuple[]"
        }
      ],
      "stateMutability": "view",
      "type": "function"
    },
    {
      "inputs": [
        {
          "internalType": "address",
          "name": "collectionAddress",
          "type": "address"
        }
      ],
      "name": "getCollectionLineage",
      "outputs": [
        {
          "internalType": "address[]",
          "name": "lineage",
          "type": "address[]"
        }
      ],
      "stateMutability": "view",
      "type": "function"
    },
    {
      "inputs": [],
      "name": "getCollectionPrice",
      "outputs": [
        {
          "internalType": "uint256",
          "name": "",
          "type": "uint256"
        }
      ],
      "stateMutability": "pure",
      "type": "function"
    },
    {
      "inputs": [
        {
          "internalType": "address",
          "name": "creator",
          "type": "address"
        }
      ],
      "name": "getCollectionsByCreator",
      "outputs": [
        {
          "internalType": "uint256[]",
          "name": "",
          "type": "uint256[]"
        }
      ],
      "stateMutability": "view",
      "type": "function"
    },
    {
      "inputs": [],
      "name": "getTotalCollections",
      "outputs": [
        {
          "internalType": "uint256",
          "name": "",
          "type": "uint256"
        }
      ],
      "stateMutability": "view",
      "type": "function"
    },
    {
      "inputs": [],
      "name": "owner",
      "outputs": [
        {
          "internalType": "address",
          "name": "",
          "type": "address"
        }
      ],
      "stateMutability": "view",
      "type": "function"
    },
    {
      "inputs": [],
      "name": "renounceOwnership",
      "outputs": [],
      "stateMutability": "nonpayable",
      "type": "function"
    },
    {
      "inputs": [
        {
          "internalType": "address",
          "name": "newOwner",
          "type": "address"
        }
      ],
      "name": "transferOwnership",
      "outputs": [],
      "stateMutability": "nonpayable",
      "type": "function"
    },
    {
      "inputs": [
        {
          "internalType": "address",
          "name": "collectionAddress",
          "type": "address"
        },
        {
          "internalType": "uint256",
          "name": "tokenId",
          "type": "uint256"
        },
        {
          "internalType": "string",
          "name": "newTokenURI",
          "type": "string"
        }
      ],
      "name": "updateTokenURI",
      "outputs": [],
      "stateMutability": "nonpayable",
      "type": "function"
    }
  ],
  "bytecode": "0x608060405234801561000f575f80fd5b50338061003557604051631e4fbdf760e01b81525f600482015260240160405180910390fd5b61003e81610048565b5060018055610097565b5f80546001600160a01b038381166001600160a01b0319831681178455604051919092169283917f8be0079c531659141344cd1fd0a4f28419497f9722a3daafe3b4186f6b6457e09190a35050565b6149b280620000a55f395ff3fe60806040526004361062000103575f3560e01c8063939bf6dd1162000092578063f2fde38b116200005e578063f2fde38b14620002d0578063f553840714620002f4578063f56b8369146200030f578063fdbda0ec1462000342575f80fd5b8063939bf6dd1462000247578063d09a1b4e146200025d578063dcb209e31462000290578063eb8b12d414620002a7575f80fd5b80635cf7987c11620000d25780635cf7987c14620001b45780636804a95814620001d8578063715018a614620001fe5780638da5cb5b1462000215575f80fd5b80630fb4d2e514620001075780630fcd7f8f146200014d57806324a8bec01462000173578063560d52d4146200019e575b5f80fd5b34801562000113575f80fd5b506200012b62000125366004620019e1565b6200037a565b604051620001449b9a9998979695949392919062001a3e565b60405180910390f35b34801562000159575f80fd5b50620001716200016b36600462001b9c565b62000612565b005b3480156200017f575f80fd5b506200018f66038d7ea4c6800081565b60405190815260200162000144565b348015620001aa575f80fd5b506200018f60fa81565b348015620001c0575f80fd5b506200018f620001d236600462001bf7565b620006df565b348015620001e4575f80fd5b50620001ef6200070b565b60405162000144919062001c24565b3480156200020a575f80fd5b506200017162000af5565b34801562000221575f80fd5b505f546001600160a01b03165b6040516001600160a01b03909116815260200162000144565b34801562000253575f80fd5b506002546200018f565b34801562000269575f80fd5b50620002816200027b36600462001d44565b62000b0c565b60405162000144919062001d69565b6200018f620002a136600462001db7565b62000d15565b348015620002b3575f80fd5b506200022e73e55e9c8e6e2efb0c7b62e78816b6a9fed9218c8181565b348015620002dc575f80fd5b5062000171620002ee36600462001d44565b620012d5565b34801562000300575f80fd5b5066038d7ea4c680006200018f565b3480156200031b575f80fd5b50620003336200032d36600462001d44565b62001318565b60405162000144919062001ebe565b3480156200034e575f80fd5b506200022e62000360366004620019e1565b60036020525f90815260409020546001600160a01b031681565b60056020525f9081526040902080546001820154600283015460038401805493946001600160a01b03938416949390921692620003b79062001ed2565b80601f0160208091040260200160405190810160405280929190818152602001828054620003e59062001ed2565b8015620004345780601f106200040a5761010080835404028352916020019162000434565b820191905f5260205f20905b8154815290600101906020018083116200041657829003601f168201915b5050505050908060040180546200044b9062001ed2565b80601f0160208091040260200160405190810160405280929190818152602001828054620004799062001ed2565b8015620004c85780601f106200049e57610100808354040283529160200191620004c8565b820191905f5260205f20905b815481529060010190602001808311620004aa57829003601f168201915b505050505090806005018054620004df9062001ed2565b80601f01602080910402602001604051908101604052809291908181526020018280546200050d9062001ed2565b80156200055c5780601f1062000532576101008083540402835291602001916200055c565b820191905f5260205f20905b8154815290600101906020018083116200053e57829003601f168201915b505050505090806006018054620005739062001ed2565b80601f0160208091040260200160405190810160405280929190818152602001828054620005a19062001ed2565b8015620005f05780601f10620005c657610100808354040283529160200191620005f0565b820191905f5260205f20905b815481529060010190602001808311620005d257829003601f168201915b50505050509080600701549080600801549080600901549080600a015490508b565b6200061c62001383565b6001600160a01b038316620006785760405162461bcd60e51b815260206004820152601a60248201527f496e76616c696420636f6c6c656374696f6e206164647265737300000000000060448201526064015b60405180910390fd5b6040516318e97fd160e01b815283906001600160a01b038216906318e97fd190620006aa908690869060040162001f06565b5f604051808303815f87803b158015620006c2575f80fd5b505af1158015620006d5573d5f803e3d5ffd5b5050505050505050565b6004602052815f5260405f208181548110620006f9575f80fd5b905f5260205f20015f91509150505481565b60605f60025467ffffffffffffffff8111156200072c576200072c62001af7565b604051908082528060200260200182016040528015620007c857816020015b620007b46040518061016001604052805f81526020015f6001600160a01b031681526020015f6001600160a01b03168152602001606081526020016060815260200160608152602001606081526020015f81526020015f81526020015f81526020015f81525090565b8152602001906001900390816200074b5790505b50905060015b600254811162000aef575f818152600560209081526040918290208251610160810184528154815260018201546001600160a01b0390811693820193909352600282015490921692820192909252600382018054919291606084019190620008369062001ed2565b80601f0160208091040260200160405190810160405280929190818152602001828054620008649062001ed2565b8015620008b35780601f106200088957610100808354040283529160200191620008b3565b820191905f5260205f20905b8154815290600101906020018083116200089557829003601f168201915b50505050508152602001600482018054620008ce9062001ed2565b80601f0160208091040260200160405190810160405280929190818152602001828054620008fc9062001ed2565b80156200094b5780601f1062000921576101008083540402835291602001916200094b565b820191905f5260205f20905b8154815290600101906020018083116200092d57829003601f168201915b50505050508152602001600582018054620009669062001ed2565b80601f0160208091040260200160405190810160405280929190818152602001828054620009949062001ed2565b8015620009e35780601f10620009b957610100808354040283529160200191620009e3565b820191905f5260205f20905b815481529060010190602001808311620009c557829003601f168201915b50505050508152602001600682018054620009fe9062001ed2565b80601f016020809104026020016040519081016040528092919081815260200182805462000a2c9062001ed2565b801562000a7b5780601f1062000a515761010080835404028352916020019162000a7b565b820191905f5260205f20905b81548152906001019060200180831162000a5d57829003601f168201915b5050509183525050600782015460208201526008820154604082015260098201546060820152600a909101546080909101528262000abb60018462001f3c565b8151811062000ace5762000ace62001f58565b6020026020010181905250808062000ae69062001f6c565b915050620007ce565b50919050565b62000aff62001383565b62000b0a5f620013b1565b565b60606001600160a01b03821662000b665760405162461bcd60e51b815260206004820152601a60248201527f496e76616c696420636f6c6c656374696f6e206164647265737300000000000060448201526064016200066f565b5f825b6001600160a01b0381161562000c09575f819050806001600160a01b03166360f96a8f6040518163ffffffff1660e01b8152600401602060405180830381865afa15801562000bba573d5f803e3d5ffd5b505050506040513d601f19601f8201168201806040525081019062000be0919062001f87565b91506001600160a01b0382161562000c02578262000bfe8162001f6c565b9350505b5062000b69565b8167ffffffffffffffff81111562000c255762000c2562001af7565b60405190808252806020026020018201604052801562000c4f578160200160208202803683370190505b5092508390505f5b8281101562000d0d575f829050806001600160a01b03166360f96a8f6040518163ffffffff1660e01b8152600401602060405180830381865afa15801562000ca1573d5f803e3d5ffd5b505050506040513d601f19601f8201168201806040525081019062000cc7919062001f87565b92508285838151811062000cdf5762000cdf62001f58565b6001600160a01b0390921660209283029190910190910152508062000d048162001f6c565b91505062000c57565b505050919050565b5f62000d2062001400565b5f88511162000d695760405162461bcd60e51b81526020600482015260146024820152734e616d652063616e6e6f7420626520656d70747960601b60448201526064016200066f565b5f87511162000db45760405162461bcd60e51b815260206004820152601660248201527553796d626f6c2063616e6e6f7420626520656d70747960501b60448201526064016200066f565b5f86511162000dff5760405162461bcd60e51b815260206004820152601660248201527550726f6d70742063616e6e6f7420626520656d70747960501b60448201526064016200066f565b5f8411801562000e1157506127108411155b62000e545760405162461bcd60e51b8152602060048201526012602482015271496e76616c6964206d617820737570706c7960701b60448201526064016200066f565b5f831162000eaf5760405162461bcd60e51b815260206004820152602160248201527f4d696e74207072696365206d7573742062652067726561746572207468616e206044820152600360fc1b60648201526084016200066f565b66038d7ea4c6800034101562000f185760405162461bcd60e51b815260206004820152602760248201527f496e73756666696369656e74207061796d656e7420666f72204c4c4d2067656e60448201526632b930ba34b7b760c91b60648201526084016200066f565b5f821562000f8d5760025483111562000f745760405162461bcd60e51b815260206004820152601c60248201527f496e76616c696420706172656e7420636f6c6c656374696f6e2049440000000060448201526064016200066f565b505f828152600360205260409020546001600160a01b03165b60028054905f62000f9e8362001f6c565b91905055505f8062000fb186846200142b565b915091505f8b8b8b8b8b33308a8a8a60405162000fce90620019d3565b62000fe39a9998979695949392919062001fa5565b604051809103905ff08015801562000ffd573d5f803e3d5ffd5b5090508060035f60025481526020019081526020015f205f6101000a8154816001600160a01b0302191690836001600160a01b0316021790555060045f336001600160a01b03166001600160a01b031681526020019081526020015f20600254908060018154018082558091505060019003905f5260205f20015f90919091909150556040518061016001604052806002548152602001826001600160a01b03168152602001336001600160a01b031681526020018d81526020018c81526020018b81526020018a81526020018981526020018881526020014281526020018781525060055f60025481526020019081526020015f205f820151815f01556020820151816001015f6101000a8154816001600160a01b0302191690836001600160a01b031602179055506040820151816002015f6101000a8154816001600160a01b0302191690836001600160a01b0316021790555060608201518160030190816200116a9190620020dc565b5060808201516004820190620011819082620020dc565b5060a08201516005820190620011989082620020dc565b5060c08201516006820190620011af9082620020dc565b5060e082015160078201556101008201516008820155610120820151600982015561014090910151600a9091015560405173e55e9c8e6e2efb0c7b62e78816b6a9fed9218c81903480156108fc02915f818181858888f193505050501580156200121b573d5f803e3d5ffd5b50604051630355d30960e11b81523360048201526001600160a01b038216906306aba612906024015f604051808303815f87803b1580156200125b575f80fd5b505af11580156200126e573d5f803e3d5ffd5b50506002546040516001600160a01b038881168252339450851692507fcb69d5abaccdd57dd965f764aa919cfbbeb4ff85972649eec9b16fbb741162169060200160405180910390a4600254945050505050620012ca60018055565b979650505050505050565b620012df62001383565b6001600160a01b0381166200130a57604051631e4fbdf760e01b81525f60048201526024016200066f565b6200131581620013b1565b50565b6001600160a01b0381165f908152600460209081526040918290208054835181840281018401909452808452606093928301828280156200137757602002820191905f5260205f20905b81548152602001906001019080831162001362575b50505050509050919050565b5f546001600160a01b0316331462000b0a5760405163118cdaa760e01b81523360048201526024016200066f565b5f80546001600160a01b038381166001600160a01b0319831681178455604051919092169283917f8be0079c531659141344cd1fd0a4f28419497f9722a3daafe3b4186f6b6457e09190a35050565b6002600154036200142457604051633ee5aeb560e01b815260040160405180910390fd5b6002600155565b6060805f6127106200143f60fa87620021a5565b6200144b9190620021bf565b90506001600160a01b0384166200156b576040805160028082526060820183529091602083019080368337505060408051600280825260608201835293965092915060208301908036833701905050915033835f81518110620014b257620014b262001f58565b6001600160a01b0390921660209283029190910190910152620014d6818662001f3c565b825f81518110620014eb57620014eb62001f58565b60200260200101818152505073e55e9c8e6e2efb0c7b62e78816b6a9fed9218c818360018151811062001522576200152262001f58565b60200260200101906001600160a01b031690816001600160a01b031681525050808260018151811062001559576200155962001f58565b602002602001018181525050620019cb565b5f620015778562000b0c565b805190915062001589816002620021df565b67ffffffffffffffff811115620015a457620015a462001af7565b604051908082528060200260200182016040528015620015ce578160200160208202803683370190505b509450620015de816002620021df565b67ffffffffffffffff811115620015f957620015f962001af7565b60405190808252806020026020018201604052801562001623578160200160208202803683370190505b5093505f805b8281101562001700576200163f60018462001f3c565b81036200167757612710620016578a6103e8620021a5565b620016639190620021bf565b6200166f9083620021df565b9150620016eb565b5f816200168660018662001f3c565b62001692919062001f3c565b90505f620016a260018362001f3c565b620016af906002620022e6565b620016bd906101f4620021bf565b9050612710620016ce828d620021a5565b620016da9190620021bf565b620016e69085620021df565b935050505b80620016f78162001f6c565b91505062001629565b505f816200170f868b62001f3c565b6200171b919062001f3c565b905033875f8151811062001733576200173362001f58565b60200260200101906001600160a01b031690816001600160a01b03168152505080865f8151811062001769576200176962001f58565b6020026020010181815250505f5b8381101562001949575f85828151811062001796576200179662001f58565b60200260200101519050806001600160a01b03166302d05d3f6040518163ffffffff1660e01b8152600401602060405180830381865afa158015620017dd573d5f803e3d5ffd5b505050506040513d601f19601f8201168201806040525081019062001803919062001f87565b8962001811846001620021df565b8151811062001824576200182462001f58565b6001600160a01b03909216602092830291909101909101526200184960018662001f3c565b8203620018a057612710620018618c6103e8620021a5565b6200186d9190620021bf565b886200187b846001620021df565b815181106200188e576200188e62001f58565b60200260200101818152505062001933565b5f82620018af60018862001f3c565b620018bb919062001f3c565b90505f620018cb60018362001f3c565b620018d8906002620022e6565b620018e6906101f4620021bf565b9050612710620018f7828f620021a5565b620019039190620021bf565b8a62001911866001620021df565b8151811062001924576200192462001f58565b60200260200101818152505050505b5080620019408162001f6c565b91505062001777565b5073e55e9c8e6e2efb0c7b62e78816b6a9fed9218c81876200196d856001620021df565b8151811062001980576200198062001f58565b6001600160a01b03909216602092830291909101909101528486620019a7856001620021df565b81518110620019ba57620019ba62001f58565b602002602001018181525050505050505b509250929050565b61268980620022f483390190565b5f60208284031215620019f2575f80fd5b5035919050565b5f81518084525f5b8181101562001a1f5760208185018101518683018201520162001a01565b505f602082860101526020601f19601f83011685010191505092915050565b8b81526001600160a01b038b811660208301528a166040820152610160606082018190525f9062001a728382018c620019f9565b9050828103608084015262001a88818b620019f9565b905082810360a084015262001a9e818a620019f9565b905082810360c084015262001ab48189620019f9565b9150508560e08301528461010083015283610120830152826101408301529c9b505050505050505050505050565b6001600160a01b038116811462001315575f80fd5b634e487b7160e01b5f52604160045260245ffd5b5f82601f83011262001b1b575f80fd5b813567ffffffffffffffff8082111562001b395762001b3962001af7565b604051601f8301601f19908116603f0116810190828211818310171562001b645762001b6462001af7565b8160405283815286602085880101111562001b7d575f80fd5b836020870160208301375f602085830101528094505050505092915050565b5f805f6060848603121562001baf575f80fd5b833562001bbc8162001ae2565b925060208401359150604084013567ffffffffffffffff81111562001bdf575f80fd5b62001bed8682870162001b0b565b9150509250925092565b5f806040838503121562001c09575f80fd5b823562001c168162001ae2565b946020939093013593505050565b5f6020808301818452808551808352604092508286019150828160051b8701018488015f5b8381101562001d3657603f19898403018552815180518452878101516001600160a01b0390811689860152878201511687850152606080820151610160828701819052919062001c9c83880182620019f9565b925050506080808301518683038288015262001cb98382620019f9565b9250505060a0808301518683038288015262001cd68382620019f9565b9250505060c0808301518683038288015262001cf38382620019f9565b60e0858101519089015261010080860151908901526101208086015190890152610140948501519490970193909352505050938601939086019060010162001c49565b509098975050505050505050565b5f6020828403121562001d55575f80fd5b813562001d628162001ae2565b9392505050565b602080825282518282018190525f9190848201906040850190845b8181101562001dab5783516001600160a01b03168352928401929184019160010162001d84565b50909695505050505050565b5f805f805f805f60e0888a03121562001dce575f80fd5b873567ffffffffffffffff8082111562001de6575f80fd5b62001df48b838c0162001b0b565b985060208a013591508082111562001e0a575f80fd5b62001e188b838c0162001b0b565b975060408a013591508082111562001e2e575f80fd5b62001e3c8b838c0162001b0b565b965060608a013591508082111562001e52575f80fd5b5062001e618a828b0162001b0b565b979a969950949760808101359660a0820135965060c090910135945092505050565b5f8151808452602080850194508084015f5b8381101562001eb35781518752958201959082019060010162001e95565b509495945050505050565b602081525f62001d62602083018462001e83565b600181811c9082168062001ee757607f821691505b60208210810362000aef57634e487b7160e01b5f52602260045260245ffd5b828152604060208201525f62001f206040830184620019f9565b949350505050565b634e487b7160e01b5f52601160045260245ffd5b8181038181111562001f525762001f5262001f28565b92915050565b634e487b7160e01b5f52603260045260245ffd5b5f6001820162001f805762001f8062001f28565b5060010190565b5f6020828403121562001f98575f80fd5b815162001d628162001ae2565b5f61014080835262001fba8184018e620019f9565b905060208382038185015262001fd1828e620019f9565b9150838203604085015262001fe7828d620019f9565b9150838203606085015262001ffd828c620019f9565b608085018b90526001600160a01b038a811660a087015289811660c087015288811660e08701528582036101008701528751808352838901945090918301905f5b818110156200205e5785518416835294840194918401916001016200203e565b505085810361012087015262002075818862001e83565b9450505050509b9a5050505050505050505050565b601f821115620020d7575f81815260208120601f850160051c81016020861015620020b25750805b601f850160051c820191505b81811015620020d357828155600101620020be565b5050505b505050565b815167ffffffffffffffff811115620020f957620020f962001af7565b62002111816200210a845462001ed2565b846200208a565b602080601f83116001811462002147575f84156200212f5750858301515b5f19600386901b1c1916600185901b178555620020d3565b5f85815260208120601f198616915b82811015620021775788860151825594840194600190910190840162002156565b50858210156200219557878501515f19600388901b60f8161c191681555b5050505050600190811b01905550565b808202811582820484141762001f525762001f5262001f28565b5f82620021da57634e487b7160e01b5f52601260045260245ffd5b500490565b8082018082111562001f525762001f5262001f28565b600181815b80851115620019cb57815f190482111562002219576200221962001f28565b808516156200222757918102915b93841c9390800290620021fa565b5f82620022455750600162001f52565b816200225357505f62001f52565b81600181146200226c5760028114620022775762002297565b600191505062001f52565b60ff8411156200228b576200228b62001f28565b50506001821b62001f52565b5060208310610133831016604e8410600b8410161715620022bc575081810a62001f52565b620022c88383620021f5565b805f1904821115620022de57620022de62001f28565b029392505050565b5f62001d6283836200223556fe608060405234801562000010575f80fd5b5060405162002689380380620026898339810160408190526200003391620004fc565b848a8a5f620000438382620006c8565b506001620000528282620006c8565b50506001600755506001600160a01b0381166200008957604051631e4fbdf760e01b81525f60048201526024015b60405180910390fd5b6200009481620001f9565b508051825114620000f35760405162461bcd60e51b815260206004820152602260248201527f50617965657320616e6420616d6f756e7473206c656e677468206d69736d61746044820152610c6d60f31b606482015260840162000080565b5f825111620001455760405162461bcd60e51b815260206004820152601c60248201527f4d7573742068617665206174206c65617374206f6e6520706179656500000000604482015260640162000080565b600b620001538982620006c8565b50600c620001628882620006c8565b50600a869055600d80546001600160a01b038088166001600160a01b031992831617909255600e8054878416908316179055600f805492861692909116919091179055426010819055620001ba9062278d0062000790565b6011558151620001d29060129060208501906200024a565b508051620001e8906013906020840190620002b2565b5050505050505050505050620007b6565b600880546001600160a01b038381166001600160a01b0319831681179093556040519116919082907f8be0079c531659141344cd1fd0a4f28419497f9722a3daafe3b4186f6b6457e0905f90a35050565b828054828255905f5260205f20908101928215620002a0579160200282015b82811115620002a057825182546001600160a01b0319166001600160a01b0390911617825560209092019160019091019062000269565b50620002ae929150620002ee565b5090565b828054828255905f5260205f20908101928215620002a0579160200282015b82811115620002a0578251825591602001919060010190620002d1565b5b80821115620002ae575f8155600101620002ef565b634e487b7160e01b5f52604160045260245ffd5b604051601f8201601f191681016001600160401b038111828210171562000343576200034362000304565b604052919050565b5f82601f8301126200035b575f80fd5b81516001600160401b0381111562000377576200037762000304565b60206200038d601f8301601f1916820162000318565b8281528582848701011115620003a1575f80fd5b5f5b83811015620003c0578581018301518282018401528201620003a3565b505f928101909101919091529392505050565b6001600160a01b0381168114620003e8575f80fd5b50565b8051620003f881620003d3565b919050565b5f6001600160401b0382111562000418576200041862000304565b5060051b60200190565b5f82601f83011262000432575f80fd5b815160206200044b6200044583620003fd565b62000318565b82815260059290921b840181019181810190868411156200046a575f80fd5b8286015b84811015620004925780516200048481620003d3565b83529183019183016200046e565b509695505050505050565b5f82601f830112620004ad575f80fd5b81516020620004c06200044583620003fd565b82815260059290921b84018101918181019086841115620004df575f80fd5b8286015b84811015620004925780518352918301918301620004e3565b5f805f805f805f805f806101408b8d03121562000517575f80fd5b8a516001600160401b03808211156200052e575f80fd5b6200053c8e838f016200034b565b9b5060208d015191508082111562000552575f80fd5b620005608e838f016200034b565b9a5060408d015191508082111562000576575f80fd5b620005848e838f016200034b565b995060608d01519150808211156200059a575f80fd5b620005a88e838f016200034b565b985060808d01519750620005bf60a08e01620003eb565b9650620005cf60c08e01620003eb565b9550620005df60e08e01620003eb565b94506101008d0151915080821115620005f6575f80fd5b620006048e838f0162000422565b93506101208d01519150808211156200061b575f80fd5b506200062a8d828e016200049d565b9150509295989b9194979a5092959850565b600181811c908216806200065157607f821691505b6020821081036200067057634e487b7160e01b5f52602260045260245ffd5b50919050565b601f821115620006c3575f81815260208120601f850160051c810160208610156200069e5750805b601f850160051c820191505b81811015620006bf57828155600101620006aa565b5050505b505050565b81516001600160401b03811115620006e457620006e462000304565b620006fc81620006f584546200063c565b8462000676565b602080601f83116001811462000732575f84156200071a5750858301515b5f19600386901b1c1916600185901b178555620006bf565b5f85815260208120601f198616915b82811015620007625788860151825594840194600190910190840162000741565b50858210156200078057878501515f19600388901b60f8161c191681555b5050505050600190811b01905550565b80820180821115620007b057634e487b7160e01b5f52601160045260245ffd5b92915050565b611ec580620007c45f395ff3fe608060405260043610610207575f3560e01c806370a0823111610113578063aa4ffb061161009d578063c87b56dd1161006d578063c87b56dd1461058f578063d5abeb01146105ae578063e985e9c5146105c3578063f2fde38b146105e2578063fc5be82f14610601575f80fd5b8063aa4ffb061461051e578063b88d4fde14610532578063c45a015514610551578063c547c6fc14610570575f80fd5b806380f76021116100e357806380f760211461049c5780638da5cb5b146104b9578063931e2e49146104d657806395d89b41146104eb578063a22cb465146104ff575f80fd5b806370a0823114610440578063715018a61461045f578063717a002b146104735780637c65d71114610488575f80fd5b806342842e0e1161019457806360ac632b1161016457806360ac632b146103b057806360f96a8f146103cf578063611b645b146103ee57806363037b0c146104025780636352211e14610421575f80fd5b806342842e0e1461033c57806345f0a44f1461035b5780634b94f50e146103885780634f3e1efc1461039c575f80fd5b8063081812fc116101da578063081812fc146102b8578063095ea7b3146102d75780631249c58b146102f657806318e97fd1146102fe57806323b872dd1461031d575f80fd5b806301ffc9a71461020b57806302d05d3f1461023f57806306aba6121461027657806306fdde0314610297575b5f80fd5b348015610216575f80fd5b5061022a610225366004611971565b610615565b60405190151581526020015b60405180910390f35b34801561024a575f80fd5b50600d5461025e906001600160a01b031681565b6040516001600160a01b039091168152602001610236565b348015610281575f80fd5b506102956102903660046119a7565b61063f565b005b3480156102a2575f80fd5b506102ab610771565b6040516102369190611a0d565b3480156102c3575f80fd5b5061025e6102d2366004611a1f565b610800565b3480156102e2575f80fd5b506102956102f1366004611a36565b610827565b610295610836565b348015610309575f80fd5b50610295610318366004611ae5565b610af9565b348015610328575f80fd5b50610295610337366004611b3c565b610bf0565b348015610347575f80fd5b50610295610356366004611b3c565b610c79565b348015610366575f80fd5b5061037a610375366004611a1f565b610c98565b604051908152602001610236565b348015610393575f80fd5b5061037a610cb7565b3480156103a7575f80fd5b5060095461037a565b3480156103bb575f80fd5b5061022a6103ca366004611a1f565b610d06565b3480156103da575f80fd5b50600f5461025e906001600160a01b031681565b3480156103f9575f80fd5b506102ab610d4e565b34801561040d575f80fd5b5061025e61041c366004611a1f565b610d5d565b34801561042c575f80fd5b5061025e61043b366004611a1f565b610d85565b34801561044b575f80fd5b5061037a61045a3660046119a7565b610d8f565b34801561046a575f80fd5b50610295610dd4565b34801561047e575f80fd5b5061037a60115481565b348015610493575f80fd5b506102ab610de5565b3480156104a7575f80fd5b50600f546001600160a01b031661025e565b3480156104c4575f80fd5b506008546001600160a01b031661025e565b3480156104e1575f80fd5b5061037a60105481565b3480156104f6575f80fd5b506102ab610e71565b34801561050a575f80fd5b50610295610519366004611b75565b610e80565b348015610529575f80fd5b506102ab610e8b565b34801561053d575f80fd5b5061029561054c366004611bae565b610e98565b34801561055c575f80fd5b50600e5461025e906001600160a01b031681565b34801561057b575f80fd5b506102ab61058a366004611a1f565b610eb0565b34801561059a575f80fd5b506102ab6105a9366004611a1f565b610f76565b3480156105b9575f80fd5b5061037a600a5481565b3480156105ce575f80fd5b5061022a6105dd366004611c25565b611091565b3480156105ed575f80fd5b506102956105fc3660046119a7565b6110be565b34801561060c575f80fd5b506102ab6110f8565b5f6001600160e01b03198216632483248360e11b1480610639575061063982611107565b92915050565b610647611156565b600e546001600160a01b0316331461069e5760405162461bcd60e51b815260206004820152601560248201527413db9b1e48199858dd1bdc9e4818d85b881b5a5b9d605a1b60448201526064015b60405180910390fd5b600a54600954106106e65760405162461bcd60e51b815260206004820152601260248201527113585e081cdd5c1c1b1e481c995858da195960721b6044820152606401610695565b60098054905f6106f583611c6a565b90915550506009546107078282611180565b5f8181526014602052604090819020805460ff19169055516001600160a01b0383169082907f2d03118aa776f7008445f6ca8490a6782ede2db364d741513555ba656ab1879f9061075b9042815260200190565b60405180910390a35061076e6001600755565b50565b60605f805461077f90611c82565b80601f01602080910402602001604051908101604052809291908181526020018280546107ab90611c82565b80156107f65780601f106107cd576101008083540402835291602001916107f6565b820191905f5260205f20905b8154815290600101906020018083116107d957829003601f168201915b5050505050905090565b5f61080a826111e1565b505f828152600460205260409020546001600160a01b0316610639565b610832828233611219565b5050565b61083e611156565b6010544210156108865760405162461bcd60e51b8152602060048201526013602482015272135a5b9d1a5b99c81b9bdd081cdd185c9d1959606a1b6044820152606401610695565b6011544211156108c85760405162461bcd60e51b815260206004820152600d60248201526c135a5b9d1a5b99c8195b991959609a1b6044820152606401610695565b600a54600954106109105760405162461bcd60e51b815260206004820152601260248201527113585e081cdd5c1c1b1e481c995858da195960721b6044820152606401610695565b5f610919610cb7565b9050803410156109625760405162461bcd60e51b8152602060048201526014602482015273125b9cdd59999a58da595b9d081c185e5b595b9d60621b6044820152606401610695565b5f5b601254811015610a76576012818154811061098157610981611cb4565b5f91825260209091200154601380546001600160a01b03909216916108fc9190849081106109b1576109b1611cb4565b905f5260205f20015490811502906040515f60405180830381858888f193505050501580156109e2573d5f803e3d5ffd5b50601281815481106109f6576109f6611cb4565b5f91825260209091200154601380546001600160a01b03909216917f59d9f8b94d1de65b8eeb1b14e24d5d70c2782e96b3abef17ba687f3ee33a754a919084908110610a4457610a44611cb4565b905f5260205f200154604051610a5c91815260200190565b60405180910390a280610a6e81611c6a565b915050610964565b5060098054905f610a8683611c6a565b9091555050600954610a983382611180565b5f8181526014602052604090819020805460ff1916905551339082907f2d03118aa776f7008445f6ca8490a6782ede2db364d741513555ba656ab1879f90610ae39042815260200190565b60405180910390a35050610af76001600755565b565b600e546001600160a01b03163314610b5d5760405162461bcd60e51b815260206004820152602160248201527f4f6e6c7920666163746f72792063616e2075706461746520746f6b656e2055526044820152604960f81b6064820152608401610695565b5f828152600260205260409020546001600160a01b0316610b905760405162461bcd60e51b815260040161069590611cc8565b610b9a8282611226565b5f8281526014602052604090819020805460ff191660011790555182907f931f495b9a8e5d8e61946ea5d61e021f636cfe213a801f97589c18c152e408bd90610be4908490611a0d565b60405180910390a25050565b6001600160a01b038216610c1957604051633250574960e11b81525f6004820152602401610695565b5f610c25838333611275565b9050836001600160a01b0316816001600160a01b031614610c73576040516364283d7b60e01b81526001600160a01b0380861660048301526024820184905282166044820152606401610695565b50505050565b610c9383838360405180602001604052805f815250610e98565b505050565b60138181548110610ca7575f80fd5b5f91825260209091200154905081565b5f80805b601354811015610d005760138181548110610cd857610cd8611cb4565b905f5260205f20015482610cec9190611cf6565b915080610cf881611c6a565b915050610cbb565b50919050565b5f818152600260205260408120546001600160a01b0316610d395760405162461bcd60e51b815260040161069590611cc8565b505f9081526014602052604090205460ff1690565b6060600c805461077f90611c82565b60128181548110610d6c575f80fd5b5f918252602090912001546001600160a01b0316905081565b5f610639826111e1565b5f6001600160a01b038216610db9576040516322718ad960e21b81525f6004820152602401610695565b506001600160a01b03165f9081526003602052604090205490565b610ddc611367565b610af75f611394565b600b8054610df290611c82565b80601f0160208091040260200160405190810160405280929190818152602001828054610e1e90611c82565b8015610e695780601f10610e4057610100808354040283529160200191610e69565b820191905f5260205f20905b815481529060010190602001808311610e4c57829003601f168201915b505050505081565b60606001805461077f90611c82565b6108323383836113e5565b600c8054610df290611c82565b610ea3848484610bf0565b610c733385858585611483565b5f818152600260205260409020546060906001600160a01b0316610ee65760405162461bcd60e51b815260040161069590611cc8565b600b8054610ef390611c82565b80601f0160208091040260200160405190810160405280929190818152602001828054610f1f90611c82565b8015610f6a5780601f10610f4157610100808354040283529160200191610f6a565b820191905f5260205f20905b815481529060010190602001808311610f4d57829003601f168201915b50505050509050919050565b6060610f81826111e1565b505f8281526006602052604081208054610f9a90611c82565b80601f0160208091040260200160405190810160405280929190818152602001828054610fc690611c82565b80156110115780601f10610fe857610100808354040283529160200191611011565b820191905f5260205f20905b815481529060010190602001808311610ff457829003601f168201915b505050505090505f61103d604080518082019091526007815266697066733a2f2f60c81b602082015290565b905080515f0361104e575092915050565b815115611080578082604051602001611068929190611d09565b60405160208183030381529060405292505050919050565b611089846115ab565b949350505050565b6001600160a01b039182165f90815260056020908152604080832093909416825291909152205460ff1690565b6110c6611367565b6001600160a01b0381166110ef57604051631e4fbdf760e01b81525f6004820152602401610695565b61076e81611394565b6060600b805461077f90611c82565b5f6001600160e01b031982166380ac58cd60e01b148061113757506001600160e01b03198216635b5e139f60e01b145b8061063957506301ffc9a760e01b6001600160e01b0319831614610639565b60026007540361117957604051633ee5aeb560e01b815260040160405180910390fd5b6002600755565b6001600160a01b0382166111a957604051633250574960e11b81525f6004820152602401610695565b5f6111b583835f611275565b90506001600160a01b03811615610c93576040516339e3563760e11b81525f6004820152602401610695565b5f818152600260205260408120546001600160a01b03168061063957604051637e27328960e01b815260048101849052602401610695565b610c93838383600161162c565b5f82815260066020526040902061123d8282611d7c565b506040518281527ff8e1a15aba9398e019f0b49df1a4fde98ee17ae345cb5f6b5e2c27f5033e8ce79060200160405180910390a15050565b5f828152600260205260408120546001600160a01b03908116908316156112a1576112a1818486611730565b6001600160a01b038116156112db576112bc5f855f8061162c565b6001600160a01b0381165f90815260036020526040902080545f190190555b6001600160a01b03851615611309576001600160a01b0385165f908152600360205260409020805460010190555b5f8481526002602052604080822080546001600160a01b0319166001600160a01b0389811691821790925591518793918516917fddf252ad1be2c89b69c2b068fc378daa952ba7f163c4a11628f55a4df523b3ef91a4949350505050565b6008546001600160a01b03163314610af75760405163118cdaa760e01b8152336004820152602401610695565b600880546001600160a01b038381166001600160a01b0319831681179093556040519116919082907f8be0079c531659141344cd1fd0a4f28419497f9722a3daafe3b4186f6b6457e0905f90a35050565b6001600160a01b03821661141757604051630b61174360e31b81526001600160a01b0383166004820152602401610695565b6001600160a01b038381165f81815260056020908152604080832094871680845294825291829020805460ff191686151590811790915591519182527f17307eab39ab6107e8899845ad3d59bd9653f200f220920489ca2b5937696c31910160405180910390a3505050565b6001600160a01b0383163b156115a457604051630a85bd0160e11b81526001600160a01b0384169063150b7a02906114c5908890889087908790600401611e38565b6020604051808303815f875af19250505080156114ff575060408051601f3d908101601f191682019092526114fc91810190611e74565b60015b611566573d80801561152c576040519150601f19603f3d011682016040523d82523d5f602084013e611531565b606091505b5080515f0361155e57604051633250574960e11b81526001600160a01b0385166004820152602401610695565b805160208201fd5b6001600160e01b03198116630a85bd0160e11b146115a257604051633250574960e11b81526001600160a01b0385166004820152602401610695565b505b5050505050565b60606115b6826111e1565b505f6115dc604080518082019091526007815266697066733a2f2f60c81b602082015290565b90505f8151116115fa5760405180602001604052805f815250611625565b8061160484611794565b604051602001611615929190611d09565b6040516020818303038152906040525b9392505050565b808061164057506001600160a01b03821615155b15611701575f61164f846111e1565b90506001600160a01b0383161580159061167b5750826001600160a01b0316816001600160a01b031614155b801561168e575061168c8184611091565b155b156116b75760405163a9fbf51f60e01b81526001600160a01b0384166004820152602401610695565b81156116ff5783856001600160a01b0316826001600160a01b03167f8c5be1e5ebec7d5bd14f71427d1e84f3dd0314c0f7b2291e5b200ac8c7c3b92560405160405180910390a45b505b50505f90815260046020526040902080546001600160a01b0319166001600160a01b0392909216919091179055565b61173b838383611824565b610c93576001600160a01b03831661176957604051637e27328960e01b815260048101829052602401610695565b60405163177e802f60e01b81526001600160a01b038316600482015260248101829052604401610695565b60605f6117a083611885565b60010190505f8167ffffffffffffffff8111156117bf576117bf611a5e565b6040519080825280601f01601f1916602001820160405280156117e9576020820181803683370190505b5090508181016020015b5f19016f181899199a1a9b1b9c1cb0b131b232b360811b600a86061a8153600a85049450846117f357509392505050565b5f6001600160a01b038316158015906110895750826001600160a01b0316846001600160a01b0316148061185d575061185d8484611091565b806110895750505f908152600460205260409020546001600160a01b03908116911614919050565b5f8072184f03e93ff9f4daa797ed6e38ed64bf6a1f0160401b83106118c35772184f03e93ff9f4daa797ed6e38ed64bf6a1f0160401b830492506040015b6d04ee2d6d415b85acef810000000083106118ef576d04ee2d6d415b85acef8100000000830492506020015b662386f26fc10000831061190d57662386f26fc10000830492506010015b6305f5e1008310611925576305f5e100830492506008015b612710831061193957612710830492506004015b6064831061194b576064830492506002015b600a83106106395760010192915050565b6001600160e01b03198116811461076e575f80fd5b5f60208284031215611981575f80fd5b81356116258161195c565b80356001600160a01b03811681146119a2575f80fd5b919050565b5f602082840312156119b7575f80fd5b6116258261198c565b5f5b838110156119da5781810151838201526020016119c2565b50505f910152565b5f81518084526119f98160208601602086016119c0565b601f01601f19169290920160200192915050565b602081525f61162560208301846119e2565b5f60208284031215611a2f575f80fd5b5035919050565b5f8060408385031215611a47575f80fd5b611a508361198c565b946020939093013593505050565b634e487b7160e01b5f52604160045260245ffd5b5f67ffffffffffffffff80841115611a8c57611a8c611a5e565b604051601f8501601f19908116603f01168101908282118183101715611ab457611ab4611a5e565b81604052809350858152868686011115611acc575f80fd5b858560208301375f602087830101525050509392505050565b5f8060408385031215611af6575f80fd5b82359150602083013567ffffffffffffffff811115611b13575f80fd5b8301601f81018513611b23575f80fd5b611b3285823560208401611a72565b9150509250929050565b5f805f60608486031215611b4e575f80fd5b611b578461198c565b9250611b656020850161198c565b9150604084013590509250925092565b5f8060408385031215611b86575f80fd5b611b8f8361198c565b915060208301358015158114611ba3575f80fd5b809150509250929050565b5f805f8060808587031215611bc1575f80fd5b611bca8561198c565b9350611bd86020860161198c565b925060408501359150606085013567ffffffffffffffff811115611bfa575f80fd5b8501601f81018713611c0a575f80fd5b611c1987823560208401611a72565b91505092959194509250565b5f8060408385031215611c36575f80fd5b611c3f8361198c565b9150611c4d6020840161198c565b90509250929050565b634e487b7160e01b5f52601160045260245ffd5b5f60018201611c7b57611c7b611c56565b5060010190565b600181811c90821680611c9657607f821691505b602082108103610d0057634e487b7160e01b5f52602260045260245ffd5b634e487b7160e01b5f52603260045260245ffd5b602080825260149082015273151bdad95b88191bd95cc81b9bdd08195e1a5cdd60621b604082015260600190565b8082018082111561063957610639611c56565b5f8351611d1a8184602088016119c0565b835190830190611d2e8183602088016119c0565b01949350505050565b601f821115610c93575f81815260208120601f850160051c81016020861015611d5d5750805b601f850160051c820191505b818110156115a257828155600101611d69565b815167ffffffffffffffff811115611d9657611d96611a5e565b611daa81611da48454611c82565b84611d37565b602080601f831160018114611ddd575f8415611dc65750858301515b5f19600386901b1c1916600185901b1785556115a2565b5f85815260208120601f198616915b82811015611e0b57888601518255948401946001909101908401611dec565b5085821015611e2857878501515f19600388901b60f8161c191681555b5050505050600190811b01905550565b6001600160a01b03858116825284166020820152604081018390526080606082018190525f90611e6a908301846119e2565b9695505050505050565b5f60208284031215611e84575f80fd5b81516116258161195c56fea2646970667358221220286cb262a7271865fc9c5091502d651c5ea32605c89bbe42adf5b4278e7dbaa364736f6c63430008140033a2646970667358221220c67c4e0f7d5e9ab86923e36e8fbe2482569f76fda8f92288c698fae32ad9a30a64736f6c63430008140033",
  "linkReferences": {},
  "deployedLinkReferences": {},
  "immutableReferences": {},
  "inputSourceName": "project/contracts/NFTCollectionFactory.sol",
  "buildInfoId": "solc-0_8_20-bb761aa585e7ee65b6142d11ac9f2d80f95fb156"
}