{
  "_format": "hh3-artifact-1",
  "contractName": "NFTCollectionFactory",
  "sourceName": "contracts/NFTCollectionFactory.sol",
  "abi": [
    {
      "inputs": [],
      "stateMutability": "nonpayable",
      "type": "constructor"
    },
    {
      "inputs": [
        {
          "internalType": "address",
          "name": "owner",
          "type": "address"
        }
      ],
      "name": "OwnableInvalidOwner",
      "type": "error"
    },
    {
      "inputs": [
        {
          "internalType": "address",
          "name": "account",
          "type": "address"
        }
      ],
      "name": "OwnableUnauthorizedAccount",
      "type": "error"
    },
    {
      "inputs": [],
      "name": "ReentrancyGuardReentrantCall",
      "type": "error"
    },
    {
      "anonymous": false,
      "inputs": [
        {
          "indexed": true,
          "internalType": "uint256",
          "name": "collectionId",
          "type": "uint256"
        },
        {
          "indexed": true,
          "internalType": "address",
          "name": "contractAddress",
          "type": "address"
        },
        {
          "indexed": true,
          "internalType": "address",
          "name": "creator",
          "type": "address"
        }
      ],
      "name": "CollectionCreated",
      "type": "event"
    },
    {
      "anonymous": false,
      "inputs": [
        {
          "indexed": true,
          "internalType": "address",
          "name": "previousOwner",
          "type": "address"
        },
        {
          "indexed": true,
          "internalType": "address",
          "name": "newOwner",
          "type": "address"
        }
      ],
      "name": "OwnershipTransferred",
      "type": "event"
    },
    {
      "inputs": [],
      "name": "PLATFORM_WALLET",
      "outputs": [
        {
          "internalType": "address",
          "name": "",
          "type": "address"
        }
      ],
      "stateMutability": "view",
      "type": "function"
    },
    {
      "inputs": [
        {
          "internalType": "uint256",
          "name": "",
          "type": "uint256"
        }
      ],
      "name": "collectionInfo",
      "outputs": [
        {
          "internalType": "uint256",
          "name": "id",
          "type": "uint256"
        },
        {
          "internalType": "address",
          "name": "contractAddress",
          "type": "address"
        },
        {
          "internalType": "address",
          "name": "creator",
          "type": "address"
        },
        {
          "internalType": "string",
          "name": "name",
          "type": "string"
        },
        {
          "internalType": "string",
          "name": "symbol",
          "type": "string"
        },
        {
          "internalType": "string",
          "name": "prompt",
          "type": "string"
        },
        {
          "internalType": "uint256",
          "name": "maxSupply",
          "type": "uint256"
        },
        {
          "internalType": "uint256",
          "name": "mintPrice",
          "type": "uint256"
        },
        {
          "internalType": "uint256",
          "name": "createdAt",
          "type": "uint256"
        }
      ],
      "stateMutability": "view",
      "type": "function"
    },
    {
      "inputs": [
        {
          "internalType": "uint256",
          "name": "",
          "type": "uint256"
        }
      ],
      "name": "collections",
      "outputs": [
        {
          "internalType": "address",
          "name": "",
          "type": "address"
        }
      ],
      "stateMutability": "view",
      "type": "function"
    },
    {
      "inputs": [
        {
          "internalType": "string",
          "name": "name",
          "type": "string"
        },
        {
          "internalType": "string",
          "name": "symbol",
          "type": "string"
        },
        {
          "internalType": "string",
          "name": "prompt",
          "type": "string"
        },
        {
          "internalType": "uint256",
          "name": "maxSupply",
          "type": "uint256"
        },
        {
          "internalType": "uint256",
          "name": "mintPrice",
          "type": "uint256"
        }
      ],
      "name": "createCollection",
      "outputs": [
        {
          "internalType": "uint256",
          "name": "",
          "type": "uint256"
        }
      ],
      "stateMutability": "nonpayable",
      "type": "function"
    },
    {
      "inputs": [
        {
          "internalType": "address",
          "name": "",
          "type": "address"
        },
        {
          "internalType": "uint256",
          "name": "",
          "type": "uint256"
        }
      ],
      "name": "creatorCollections",
      "outputs": [
        {
          "internalType": "uint256",
          "name": "",
          "type": "uint256"
        }
      ],
      "stateMutability": "view",
      "type": "function"
    },
    {
      "inputs": [],
      "name": "getAllCollections",
      "outputs": [
        {
          "components": [
            {
              "internalType": "uint256",
              "name": "id",
              "type": "uint256"
            },
            {
              "internalType": "address",
              "name": "contractAddress",
              "type": "address"
            },
            {
              "internalType": "address",
              "name": "creator",
              "type": "address"
            },
            {
              "internalType": "string",
              "name": "name",
              "type": "string"
            },
            {
              "internalType": "string",
              "name": "symbol",
              "type": "string"
            },
            {
              "internalType": "string",
              "name": "prompt",
              "type": "string"
            },
            {
              "internalType": "uint256",
              "name": "maxSupply",
              "type": "uint256"
            },
            {
              "internalType": "uint256",
              "name": "mintPrice",
              "type": "uint256"
            },
            {
              "internalType": "uint256",
              "name": "createdAt",
              "type": "uint256"
            }
          ],
          "internalType": "struct NFTCollectionFactory.CollectionInfo[]",
          "name": "",
          "type": "tuple[]"
        }
      ],
      "stateMutability": "view",
      "type": "function"
    },
    {
      "inputs": [
        {
          "internalType": "address",
          "name": "creator",
          "type": "address"
        }
      ],
      "name": "getCollectionsByCreator",
      "outputs": [
        {
          "internalType": "uint256[]",
          "name": "",
          "type": "uint256[]"
        }
      ],
      "stateMutability": "view",
      "type": "function"
    },
    {
      "inputs": [],
      "name": "getTotalCollections",
      "outputs": [
        {
          "internalType": "uint256",
          "name": "",
          "type": "uint256"
        }
      ],
      "stateMutability": "view",
      "type": "function"
    },
    {
      "inputs": [],
      "name": "owner",
      "outputs": [
        {
          "internalType": "address",
          "name": "",
          "type": "address"
        }
      ],
      "stateMutability": "view",
      "type": "function"
    },
    {
      "inputs": [],
      "name": "platformFeePercent",
      "outputs": [
        {
          "internalType": "uint256",
          "name": "",
          "type": "uint256"
        }
      ],
      "stateMutability": "view",
      "type": "function"
    },
    {
      "inputs": [],
      "name": "renounceOwnership",
      "outputs": [],
      "stateMutability": "nonpayable",
      "type": "function"
    },
    {
      "inputs": [
        {
          "internalType": "address",
          "name": "newOwner",
          "type": "address"
        }
      ],
      "name": "transferOwnership",
      "outputs": [],
      "stateMutability": "nonpayable",
      "type": "function"
    },
    {
      "inputs": [
        {
          "internalType": "address",
          "name": "collectionAddress",
          "type": "address"
        },
        {
          "internalType": "uint256",
          "name": "tokenId",
          "type": "uint256"
        },
        {
          "internalType": "string",
          "name": "newTokenURI",
          "type": "string"
        }
      ],
      "name": "updateTokenURI",
      "outputs": [],
      "stateMutability": "nonpayable",
      "type": "function"
    }
  ],
  "bytecode": "0x608060405260fa600355348015610014575f80fd5b50338061003a57604051631e4fbdf760e01b81525f600482015260240160405180910390fd5b6100438161004d565b506001805561009c565b5f80546001600160a01b038381166001600160a01b0319831681178455604051919092169283917f8be0079c531659141344cd1fd0a4f28419497f9722a3daafe3b4186f6b6457e09190a35050565b613ab0806100a95f395ff3fe608060405234801562000010575f80fd5b5060043610620000dc575f3560e01c80638c639a851162000093578063eb8b12d4116200006b578063eb8b12d414620001c8578063f2fde38b14620001e4578063f56b836914620001fb578063fdbda0ec1462000221575f80fd5b80638c639a8514620001905780638da5cb5b146200019a578063939bf6dd14620001bf575f80fd5b80630fb4d2e514620000e05780630fcd7f8f14620001175780635cf7987c14620001305780636804a9581462000156578063715018a6146200016f5780637ad3e1cf1462000179575b5f80fd5b620000f7620000f136600462000f05565b6200024c565b6040516200010e9998979695949392919062000f62565b60405180910390f35b6200012e62000128366004620010a6565b6200044a565b005b6200014762000141366004620010ff565b62000517565b6040519081526020016200010e565b6200016062000543565b6040516200010e91906200112a565b6200012e6200087e565b620001476200018a36600462001221565b62000895565b6200014760035481565b5f546001600160a01b03165b6040516001600160a01b0390911681526020016200010e565b60025462000147565b620001a673e55e9c8e6e2efb0c7b62e78816b6a9fed9218c8181565b6200012e620001f5366004620012be565b62000da1565b620002126200020c366004620012be565b62000de4565b6040516200010e91906200131c565b620001a66200023236600462000f05565b60046020525f90815260409020546001600160a01b031681565b60066020525f9081526040902080546001820154600283015460038401805493946001600160a01b03938416949390921692620002899062001330565b80601f0160208091040260200160405190810160405280929190818152602001828054620002b79062001330565b8015620003065780601f10620002dc5761010080835404028352916020019162000306565b820191905f5260205f20905b815481529060010190602001808311620002e857829003601f168201915b5050505050908060040180546200031d9062001330565b80601f01602080910402602001604051908101604052809291908181526020018280546200034b9062001330565b80156200039a5780601f1062000370576101008083540402835291602001916200039a565b820191905f5260205f20905b8154815290600101906020018083116200037c57829003601f168201915b505050505090806005018054620003b19062001330565b80601f0160208091040260200160405190810160405280929190818152602001828054620003df9062001330565b80156200042e5780601f1062000404576101008083540402835291602001916200042e565b820191905f5260205f20905b8154815290600101906020018083116200041057829003601f168201915b5050505050908060060154908060070154908060080154905089565b6200045462000e4f565b6001600160a01b038316620004b05760405162461bcd60e51b815260206004820152601a60248201527f496e76616c696420636f6c6c656374696f6e206164647265737300000000000060448201526064015b60405180910390fd5b6040516318e97fd160e01b815283906001600160a01b038216906318e97fd190620004e2908690869060040162001364565b5f604051808303815f87803b158015620004fa575f80fd5b505af11580156200050d573d5f803e3d5ffd5b5050505050505050565b6005602052815f5260405f20818154811062000531575f80fd5b905f5260205f20015f91509150505481565b60605f60025467ffffffffffffffff81111562000564576200056462001001565b604051908082528060200260200182016040528015620005f357816020015b620005df6040518061012001604052805f81526020015f6001600160a01b031681526020015f6001600160a01b031681526020016060815260200160608152602001606081526020015f81526020015f81526020015f81525090565b815260200190600190039081620005835790505b50905060015b600254811162000878575f818152600660209081526040918290208251610120810184528154815260018201546001600160a01b0390811693820193909352600282015490921692820192909252600382018054919291606084019190620006619062001330565b80601f01602080910402602001604051908101604052809291908181526020018280546200068f9062001330565b8015620006de5780601f10620006b457610100808354040283529160200191620006de565b820191905f5260205f20905b815481529060010190602001808311620006c057829003601f168201915b50505050508152602001600482018054620006f99062001330565b80601f0160208091040260200160405190810160405280929190818152602001828054620007279062001330565b8015620007765780601f106200074c5761010080835404028352916020019162000776565b820191905f5260205f20905b8154815290600101906020018083116200075857829003601f168201915b50505050508152602001600582018054620007919062001330565b80601f0160208091040260200160405190810160405280929190818152602001828054620007bf9062001330565b80156200080e5780601f10620007e4576101008083540402835291602001916200080e565b820191905f5260205f20905b815481529060010190602001808311620007f057829003601f168201915b5050509183525050600682015460208201526007820154604082015260089091015460609091015282620008446001846200139a565b81518110620008575762000857620013b6565b602002602001018190525080806200086f90620013ca565b915050620005f9565b50919050565b6200088862000e4f565b620008935f62000e7d565b565b5f620008a062000ecc565b5f865111620008e95760405162461bcd60e51b81526020600482015260146024820152734e616d652063616e6e6f7420626520656d70747960601b6044820152606401620004a7565b5f855111620009345760405162461bcd60e51b815260206004820152601660248201527553796d626f6c2063616e6e6f7420626520656d70747960501b6044820152606401620004a7565b5f8451116200097f5760405162461bcd60e51b815260206004820152601660248201527550726f6d70742063616e6e6f7420626520656d70747960501b6044820152606401620004a7565b5f831180156200099157506127108311155b620009d45760405162461bcd60e51b8152602060048201526012602482015271496e76616c6964206d617820737570706c7960701b6044820152606401620004a7565b5f821162000a2f5760405162461bcd60e51b815260206004820152602160248201527f4d696e74207072696365206d7573742062652067726561746572207468616e206044820152600360fc1b6064820152608401620004a7565b60028054905f62000a4083620013ca565b9091555050600280546040805183815260608101825291925f929160208301908036833750506040805160028082526060820183529394505f939092509060208301908036833701905050905033825f8151811062000aa35762000aa3620013b6565b6001600160a01b039092166020928302919091019091015260035462000acc906127106200139a565b815f8151811062000ae15762000ae1620013b6565b60200260200101818152505073e55e9c8e6e2efb0c7b62e78816b6a9fed9218c818260018151811062000b185762000b18620013b6565b60200260200101906001600160a01b031690816001600160a01b0316815250506003548160018151811062000b515762000b51620013b6565b6020026020010181815250505f89898989893330898960405162000b759062000ef7565b62000b8999989796959493929190620013e5565b604051809103905ff08015801562000ba3573d5f803e3d5ffd5b5090505f8190508060045f8781526020019081526020015f205f6101000a8154816001600160a01b0302191690836001600160a01b0316021790555060055f336001600160a01b03166001600160a01b031681526020019081526020015f2085908060018154018082558091505060019003905f5260205f20015f9091909190915055604051806101200160405280868152602001826001600160a01b03168152602001336001600160a01b031681526020018c81526020018b81526020018a81526020018981526020018881526020014281525060065f8781526020019081526020015f205f820151815f01556020820151816001015f6101000a8154816001600160a01b0302191690836001600160a01b031602179055506040820151816002015f6101000a8154816001600160a01b0302191690836001600160a01b03160217905550606082015181600301908162000d00919062001502565b506080820151600482019062000d17908262001502565b5060a0820151600582019062000d2e908262001502565b5060c0820151600682015560e082015160078201556101009091015160089091015560405133906001600160a01b0383169087907fee4d8764b6b7ece682a156063b005e7b6669f9677a19d90b218fc10632eb7ab1905f90a45092935050505062000d9860018055565b95945050505050565b62000dab62000e4f565b6001600160a01b03811662000dd657604051631e4fbdf760e01b81525f6004820152602401620004a7565b62000de18162000e7d565b50565b6001600160a01b0381165f9081526005602090815260409182902080548351818402810184019094528084526060939283018282801562000e4357602002820191905f5260205f20905b81548152602001906001019080831162000e2e575b50505050509050919050565b5f546001600160a01b03163314620008935760405163118cdaa760e01b8152336004820152602401620004a7565b5f80546001600160a01b038381166001600160a01b0319831681178455604051919092169283917f8be0079c531659141344cd1fd0a4f28419497f9722a3daafe3b4186f6b6457e09190a35050565b60026001540362000ef057604051633ee5aeb560e01b815260040160405180910390fd5b6002600155565b6124af80620015cc83390190565b5f6020828403121562000f16575f80fd5b5035919050565b5f81518084525f5b8181101562000f435760208185018101518683018201520162000f25565b505f602082860101526020601f19601f83011685010191505092915050565b8981526001600160a01b03898116602083015288166040820152610120606082018190525f9062000f968382018a62000f1d565b9050828103608084015262000fac818962000f1d565b905082810360a084015262000fc2818862000f1d565b60c0840196909652505060e0810192909252610100909101529695505050505050565b80356001600160a01b038116811462000ffc575f80fd5b919050565b634e487b7160e01b5f52604160045260245ffd5b5f82601f83011262001025575f80fd5b813567ffffffffffffffff8082111562001043576200104362001001565b604051601f8301601f19908116603f011681019082821181831017156200106e576200106e62001001565b8160405283815286602085880101111562001087575f80fd5b836020870160208301375f602085830101528094505050505092915050565b5f805f60608486031215620010b9575f80fd5b620010c48462000fe5565b925060208401359150604084013567ffffffffffffffff811115620010e7575f80fd5b620010f58682870162001015565b9150509250925092565b5f806040838503121562001111575f80fd5b6200111c8362000fe5565b946020939093013593505050565b5f6020808301818452808551808352604092508286019150828160051b8701018488015f5b838110156200121357603f19898403018552815180518452878101516001600160a01b03908116898601528782015116878501526060808201516101208287018190529190620011a28388018262000f1d565b9250505060808083015186830382880152620011bf838262000f1d565b9250505060a08083015186830382880152620011dc838262000f1d565b60c0858101519089015260e0808601519089015261010094850151949097019390935250505093860193908601906001016200114f565b509098975050505050505050565b5f805f805f60a0868803121562001236575f80fd5b853567ffffffffffffffff808211156200124e575f80fd5b6200125c89838a0162001015565b9650602088013591508082111562001272575f80fd5b6200128089838a0162001015565b9550604088013591508082111562001296575f80fd5b50620012a58882890162001015565b9598949750949560608101359550608001359392505050565b5f60208284031215620012cf575f80fd5b620012da8262000fe5565b9392505050565b5f8151808452602080850194508084015f5b838110156200131157815187529582019590820190600101620012f3565b509495945050505050565b602081525f620012da6020830184620012e1565b600181811c908216806200134557607f821691505b6020821081036200087857634e487b7160e01b5f52602260045260245ffd5b828152604060208201525f6200137e604083018462000f1d565b949350505050565b634e487b7160e01b5f52601160045260245ffd5b81810381811115620013b057620013b062001386565b92915050565b634e487b7160e01b5f52603260045260245ffd5b5f60018201620013de57620013de62001386565b5060010190565b5f610120808352620013fa8184018d62000f1d565b905060208382038185015262001411828d62000f1d565b9150838203604085015262001427828c62000f1d565b606085018b9052608085018a90526001600160a01b0389811660a087015288811660c087015285820360e08701528751808352838901945090918301905f5b818110156200148657855184168352948401949184019160010162001466565b50508581036101008701526200149d8188620012e1565b9f9e505050505050505050505050505050565b601f821115620014fd575f81815260208120601f850160051c81016020861015620014d85750805b601f850160051c820191505b81811015620014f957828155600101620014e4565b5050505b505050565b815167ffffffffffffffff8111156200151f576200151f62001001565b620015378162001530845462001330565b84620014b0565b602080601f8311600181146200156d575f8415620015555750858301515b5f19600386901b1c1916600185901b178555620014f9565b5f85815260208120601f198616915b828110156200159d578886015182559484019460019091019084016200157c565b5085821015620015bb57878501515f19600388901b60f8161c191681555b5050505050600190811b0190555056fe608060405234801562000010575f80fd5b50604051620024af380380620024af83398101604081905262000033916200053a565b8389895f620000438382620006d5565b506001620000528282620006d5565b50506001600755506001600160a01b0381166200008957604051631e4fbdf760e01b81525f60048201526024015b60405180910390fd5b620000948162000237565b508051825114620000f25760405162461bcd60e51b815260206004820152602160248201527f50617965657320616e6420736861726573206c656e677468206d69736d6174636044820152600d60fb1b606482015260840162000080565b5f825111620001445760405162461bcd60e51b815260206004820152601c60248201527f4d7573742068617665206174206c65617374206f6e6520706179656500000000604482015260640162000080565b600c620001528882620006d5565b50600a869055600b859055600d80546001600160a01b038087166001600160a01b031992831617909255600e80549286169290911691909117905542600f819055620001a29062278d00620007b1565b6010558151620001ba90601190602085019062000288565b508051620001d0906012906020840190620002f0565b505f5b81518110156200022757818181518110620001f257620001f2620007cd565b602002602001015160135f8282546200020c9190620007b1565b909155508190506200021e81620007e1565b915050620001d3565b50505050505050505050620007fc565b600880546001600160a01b038381166001600160a01b0319831681179093556040519116919082907f8be0079c531659141344cd1fd0a4f28419497f9722a3daafe3b4186f6b6457e0905f90a35050565b828054828255905f5260205f20908101928215620002de579160200282015b82811115620002de57825182546001600160a01b0319166001600160a01b03909116178255602090920191600190910190620002a7565b50620002ec9291506200032c565b5090565b828054828255905f5260205f20908101928215620002de579160200282015b82811115620002de5782518255916020019190600101906200030f565b5b80821115620002ec575f81556001016200032d565b634e487b7160e01b5f52604160045260245ffd5b604051601f8201601f191681016001600160401b038111828210171562000381576200038162000342565b604052919050565b5f82601f83011262000399575f80fd5b81516001600160401b03811115620003b557620003b562000342565b6020620003cb601f8301601f1916820162000356565b8281528582848701011115620003df575f80fd5b5f5b83811015620003fe578581018301518282018401528201620003e1565b505f928101909101919091529392505050565b6001600160a01b038116811462000426575f80fd5b50565b8051620004368162000411565b919050565b5f6001600160401b0382111562000456576200045662000342565b5060051b60200190565b5f82601f83011262000470575f80fd5b815160206200048962000483836200043b565b62000356565b82815260059290921b84018101918181019086841115620004a8575f80fd5b8286015b84811015620004d0578051620004c28162000411565b8352918301918301620004ac565b509695505050505050565b5f82601f830112620004eb575f80fd5b81516020620004fe62000483836200043b565b82815260059290921b840181019181810190868411156200051d575f80fd5b8286015b84811015620004d0578051835291830191830162000521565b5f805f805f805f805f6101208a8c03121562000554575f80fd5b89516001600160401b03808211156200056b575f80fd5b620005798d838e0162000389565b9a5060208c01519150808211156200058f575f80fd5b6200059d8d838e0162000389565b995060408c0151915080821115620005b3575f80fd5b620005c18d838e0162000389565b985060608c0151975060808c01519650620005df60a08d0162000429565b9550620005ef60c08d0162000429565b945060e08c015191508082111562000605575f80fd5b620006138d838e0162000460565b93506101008c01519150808211156200062a575f80fd5b50620006398c828d01620004db565b9150509295985092959850929598565b600181811c908216806200065e57607f821691505b6020821081036200067d57634e487b7160e01b5f52602260045260245ffd5b50919050565b601f821115620006d0575f81815260208120601f850160051c81016020861015620006ab5750805b601f850160051c820191505b81811015620006cc57828155600101620006b7565b5050505b505050565b81516001600160401b03811115620006f157620006f162000342565b620007098162000702845462000649565b8462000683565b602080601f8311600181146200073f575f8415620007275750858301515b5f19600386901b1c1916600185901b178555620006cc565b5f85815260208120601f198616915b828110156200076f578886015182559484019460019091019084016200074e565b50858210156200078d57878501515f19600388901b60f8161c191681555b5050505050600190811b01905550565b634e487b7160e01b5f52601160045260245ffd5b80820180821115620007c757620007c76200079d565b92915050565b634e487b7160e01b5f52603260045260245ffd5b5f60018201620007f557620007f56200079d565b5060010190565b611ca5806200080a5f395ff3fe6080604052600436106101db575f3560e01c806370a08231116100fd578063b88d4fde11610092578063d5abeb0111610062578063d5abeb0114610515578063e985e9c51461052a578063f2fde38b14610549578063fc5be82f14610568575f80fd5b8063b88d4fde14610499578063c45a0155146104b8578063c547c6fc146104d7578063c87b56dd146104f6575f80fd5b80638da5cb5b116100cd5780638da5cb5b14610434578063931e2e491461045157806395d89b4114610466578063a22cb4651461047a575f80fd5b806370a08231146103d8578063715018a6146103f7578063717a002b1461040b5780637c65d71114610420575f80fd5b80633a98ef391161017357806360ac632b1161014357806360ac632b1461036657806363037b0c146103855780636352211e146103a45780636817c76c146103c3575f80fd5b80633a98ef39146102f157806342842e0e146103145780634f3e1efc1461033357806357a858fc14610347575f80fd5b8063095ea7b3116101ae578063095ea7b31461028a5780631249c58b146102ab57806318e97fd1146102b357806323b872dd146102d2575f80fd5b806301ffc9a7146101df57806302d05d3f1461021357806306fdde031461024a578063081812fc1461026b575b5f80fd5b3480156101ea575f80fd5b506101fe6101f9366004611728565b61057c565b60405190151581526020015b60405180910390f35b34801561021e575f80fd5b50600d54610232906001600160a01b031681565b6040516001600160a01b03909116815260200161020a565b348015610255575f80fd5b5061025e6105a6565b60405161020a9190611790565b348015610276575f80fd5b506102326102853660046117a2565b610635565b348015610295575f80fd5b506102a96102a43660046117d4565b61065c565b005b6102a961066b565b3480156102be575f80fd5b506102a96102cd366004611883565b610918565b3480156102dd575f80fd5b506102a96102ec3660046118da565b610a0f565b3480156102fc575f80fd5b5061030660135481565b60405190815260200161020a565b34801561031f575f80fd5b506102a961032e3660046118da565b610a98565b34801561033e575f80fd5b50600954610306565b348015610352575f80fd5b506103066103613660046117a2565b610ab7565b348015610371575f80fd5b506101fe6103803660046117a2565b610ad6565b348015610390575f80fd5b5061023261039f3660046117a2565b610b1e565b3480156103af575f80fd5b506102326103be3660046117a2565b610b46565b3480156103ce575f80fd5b50610306600b5481565b3480156103e3575f80fd5b506103066103f2366004611913565b610b50565b348015610402575f80fd5b506102a9610b95565b348015610416575f80fd5b5061030660105481565b34801561042b575f80fd5b5061025e610ba6565b34801561043f575f80fd5b506008546001600160a01b0316610232565b34801561045c575f80fd5b50610306600f5481565b348015610471575f80fd5b5061025e610c32565b348015610485575f80fd5b506102a961049436600461192c565b610c41565b3480156104a4575f80fd5b506102a96104b3366004611965565b610c4c565b3480156104c3575f80fd5b50600e54610232906001600160a01b031681565b3480156104e2575f80fd5b5061025e6104f13660046117a2565b610c64565b348015610501575f80fd5b5061025e6105103660046117a2565b610d2a565b348015610520575f80fd5b50610306600a5481565b348015610535575f80fd5b506101fe6105443660046119dc565b610e45565b348015610554575f80fd5b506102a9610563366004611913565b610e72565b348015610573575f80fd5b5061025e610eaf565b5f6001600160e01b03198216632483248360e11b14806105a057506105a082610ebe565b92915050565b60605f80546105b490611a0d565b80601f01602080910402602001604051908101604052809291908181526020018280546105e090611a0d565b801561062b5780601f106106025761010080835404028352916020019161062b565b820191905f5260205f20905b81548152906001019060200180831161060e57829003601f168201915b5050505050905090565b5f61063f82610f0d565b505f828152600460205260409020546001600160a01b03166105a0565b610667828233610f45565b5050565b610673610f52565b600f544210156106c05760405162461bcd60e51b8152602060048201526013602482015272135a5b9d1a5b99c81b9bdd081cdd185c9d1959606a1b60448201526064015b60405180910390fd5b6010544211156107025760405162461bcd60e51b815260206004820152600d60248201526c135a5b9d1a5b99c8195b991959609a1b60448201526064016106b7565b600a546009541061074a5760405162461bcd60e51b815260206004820152601260248201527113585e081cdd5c1c1b1e481c995858da195960721b60448201526064016106b7565b600b543410156107935760405162461bcd60e51b8152602060048201526014602482015273125b9cdd59999a58da595b9d081c185e5b595b9d60621b60448201526064016106b7565b5f5b601154811015610896575f601354601283815481106107b6576107b6611a45565b905f5260205f200154346107ca9190611a6d565b6107d49190611a84565b9050601182815481106107e9576107e9611a45565b5f9182526020822001546040516001600160a01b039091169183156108fc02918491818181858888f19350505050158015610826573d5f803e3d5ffd5b506011828154811061083a5761083a611a45565b5f91825260209182902001546040518381526001600160a01b03909116917f59d9f8b94d1de65b8eeb1b14e24d5d70c2782e96b3abef17ba687f3ee33a754a910160405180910390a2508061088e81611aa3565b915050610795565b5060098054905f6108a683611aa3565b90915550506009546108b83382610f7c565b5f8181526014602052604090819020805460ff1916905551339082907f2d03118aa776f7008445f6ca8490a6782ede2db364d741513555ba656ab1879f906109039042815260200190565b60405180910390a3506109166001600755565b565b600e546001600160a01b0316331461097c5760405162461bcd60e51b815260206004820152602160248201527f4f6e6c7920666163746f72792063616e2075706461746520746f6b656e2055526044820152604960f81b60648201526084016106b7565b5f828152600260205260409020546001600160a01b03166109af5760405162461bcd60e51b81526004016106b790611abb565b6109b98282610fdd565b5f8281526014602052604090819020805460ff191660011790555182907f931f495b9a8e5d8e61946ea5d61e021f636cfe213a801f97589c18c152e408bd90610a03908490611790565b60405180910390a25050565b6001600160a01b038216610a3857604051633250574960e11b81525f60048201526024016106b7565b5f610a4483833361102c565b9050836001600160a01b0316816001600160a01b031614610a92576040516364283d7b60e01b81526001600160a01b03808616600483015260248201849052821660448201526064016106b7565b50505050565b610ab283838360405180602001604052805f815250610c4c565b505050565b60128181548110610ac6575f80fd5b5f91825260209091200154905081565b5f818152600260205260408120546001600160a01b0316610b095760405162461bcd60e51b81526004016106b790611abb565b505f9081526014602052604090205460ff1690565b60118181548110610b2d575f80fd5b5f918252602090912001546001600160a01b0316905081565b5f6105a082610f0d565b5f6001600160a01b038216610b7a576040516322718ad960e21b81525f60048201526024016106b7565b506001600160a01b03165f9081526003602052604090205490565b610b9d61111e565b6109165f61114b565b600c8054610bb390611a0d565b80601f0160208091040260200160405190810160405280929190818152602001828054610bdf90611a0d565b8015610c2a5780601f10610c0157610100808354040283529160200191610c2a565b820191905f5260205f20905b815481529060010190602001808311610c0d57829003601f168201915b505050505081565b6060600180546105b490611a0d565b61066733838361119c565b610c57848484610a0f565b610a92338585858561123a565b5f818152600260205260409020546060906001600160a01b0316610c9a5760405162461bcd60e51b81526004016106b790611abb565b600c8054610ca790611a0d565b80601f0160208091040260200160405190810160405280929190818152602001828054610cd390611a0d565b8015610d1e5780601f10610cf557610100808354040283529160200191610d1e565b820191905f5260205f20905b815481529060010190602001808311610d0157829003601f168201915b50505050509050919050565b6060610d3582610f0d565b505f8281526006602052604081208054610d4e90611a0d565b80601f0160208091040260200160405190810160405280929190818152602001828054610d7a90611a0d565b8015610dc55780601f10610d9c57610100808354040283529160200191610dc5565b820191905f5260205f20905b815481529060010190602001808311610da857829003601f168201915b505050505090505f610df1604080518082019091526007815266697066733a2f2f60c81b602082015290565b905080515f03610e02575092915050565b815115610e34578082604051602001610e1c929190611ae9565b60405160208183030381529060405292505050919050565b610e3d84611362565b949350505050565b6001600160a01b039182165f90815260056020908152604080832093909416825291909152205460ff1690565b610e7a61111e565b6001600160a01b038116610ea357604051631e4fbdf760e01b81525f60048201526024016106b7565b610eac8161114b565b50565b6060600c80546105b490611a0d565b5f6001600160e01b031982166380ac58cd60e01b1480610eee57506001600160e01b03198216635b5e139f60e01b145b806105a057506301ffc9a760e01b6001600160e01b03198316146105a0565b5f818152600260205260408120546001600160a01b0316806105a057604051637e27328960e01b8152600481018490526024016106b7565b610ab283838360016113e3565b600260075403610f7557604051633ee5aeb560e01b815260040160405180910390fd5b6002600755565b6001600160a01b038216610fa557604051633250574960e11b81525f60048201526024016106b7565b5f610fb183835f61102c565b90506001600160a01b03811615610ab2576040516339e3563760e11b81525f60048201526024016106b7565b5f828152600660205260409020610ff48282611b5c565b506040518281527ff8e1a15aba9398e019f0b49df1a4fde98ee17ae345cb5f6b5e2c27f5033e8ce79060200160405180910390a15050565b5f828152600260205260408120546001600160a01b0390811690831615611058576110588184866114e7565b6001600160a01b03811615611092576110735f855f806113e3565b6001600160a01b0381165f90815260036020526040902080545f190190555b6001600160a01b038516156110c0576001600160a01b0385165f908152600360205260409020805460010190555b5f8481526002602052604080822080546001600160a01b0319166001600160a01b0389811691821790925591518793918516917fddf252ad1be2c89b69c2b068fc378daa952ba7f163c4a11628f55a4df523b3ef91a4949350505050565b6008546001600160a01b031633146109165760405163118cdaa760e01b81523360048201526024016106b7565b600880546001600160a01b038381166001600160a01b0319831681179093556040519116919082907f8be0079c531659141344cd1fd0a4f28419497f9722a3daafe3b4186f6b6457e0905f90a35050565b6001600160a01b0382166111ce57604051630b61174360e31b81526001600160a01b03831660048201526024016106b7565b6001600160a01b038381165f81815260056020908152604080832094871680845294825291829020805460ff191686151590811790915591519182527f17307eab39ab6107e8899845ad3d59bd9653f200f220920489ca2b5937696c31910160405180910390a3505050565b6001600160a01b0383163b1561135b57604051630a85bd0160e11b81526001600160a01b0384169063150b7a029061127c908890889087908790600401611c18565b6020604051808303815f875af19250505080156112b6575060408051601f3d908101601f191682019092526112b391810190611c54565b60015b61131d573d8080156112e3576040519150601f19603f3d011682016040523d82523d5f602084013e6112e8565b606091505b5080515f0361131557604051633250574960e11b81526001600160a01b03851660048201526024016106b7565b805160208201fd5b6001600160e01b03198116630a85bd0160e11b1461135957604051633250574960e11b81526001600160a01b03851660048201526024016106b7565b505b5050505050565b606061136d82610f0d565b505f611393604080518082019091526007815266697066733a2f2f60c81b602082015290565b90505f8151116113b15760405180602001604052805f8152506113dc565b806113bb8461154b565b6040516020016113cc929190611ae9565b6040516020818303038152906040525b9392505050565b80806113f757506001600160a01b03821615155b156114b8575f61140684610f0d565b90506001600160a01b038316158015906114325750826001600160a01b0316816001600160a01b031614155b801561144557506114438184610e45565b155b1561146e5760405163a9fbf51f60e01b81526001600160a01b03841660048201526024016106b7565b81156114b65783856001600160a01b0316826001600160a01b03167f8c5be1e5ebec7d5bd14f71427d1e84f3dd0314c0f7b2291e5b200ac8c7c3b92560405160405180910390a45b505b50505f90815260046020526040902080546001600160a01b0319166001600160a01b0392909216919091179055565b6114f28383836115db565b610ab2576001600160a01b03831661152057604051637e27328960e01b8152600481018290526024016106b7565b60405163177e802f60e01b81526001600160a01b0383166004820152602481018290526044016106b7565b60605f6115578361163c565b60010190505f8167ffffffffffffffff811115611576576115766117fc565b6040519080825280601f01601f1916602001820160405280156115a0576020820181803683370190505b5090508181016020015b5f19016f181899199a1a9b1b9c1cb0b131b232b360811b600a86061a8153600a85049450846115aa57509392505050565b5f6001600160a01b03831615801590610e3d5750826001600160a01b0316846001600160a01b0316148061161457506116148484610e45565b80610e3d5750505f908152600460205260409020546001600160a01b03908116911614919050565b5f8072184f03e93ff9f4daa797ed6e38ed64bf6a1f0160401b831061167a5772184f03e93ff9f4daa797ed6e38ed64bf6a1f0160401b830492506040015b6d04ee2d6d415b85acef810000000083106116a6576d04ee2d6d415b85acef8100000000830492506020015b662386f26fc1000083106116c457662386f26fc10000830492506010015b6305f5e10083106116dc576305f5e100830492506008015b61271083106116f057612710830492506004015b60648310611702576064830492506002015b600a83106105a05760010192915050565b6001600160e01b031981168114610eac575f80fd5b5f60208284031215611738575f80fd5b81356113dc81611713565b5f5b8381101561175d578181015183820152602001611745565b50505f910152565b5f815180845261177c816020860160208601611743565b601f01601f19169290920160200192915050565b602081525f6113dc6020830184611765565b5f602082840312156117b2575f80fd5b5035919050565b80356001600160a01b03811681146117cf575f80fd5b919050565b5f80604083850312156117e5575f80fd5b6117ee836117b9565b946020939093013593505050565b634e487b7160e01b5f52604160045260245ffd5b5f67ffffffffffffffff8084111561182a5761182a6117fc565b604051601f8501601f19908116603f01168101908282118183101715611852576118526117fc565b8160405280935085815286868601111561186a575f80fd5b858560208301375f602087830101525050509392505050565b5f8060408385031215611894575f80fd5b82359150602083013567ffffffffffffffff8111156118b1575f80fd5b8301601f810185136118c1575f80fd5b6118d085823560208401611810565b9150509250929050565b5f805f606084860312156118ec575f80fd5b6118f5846117b9565b9250611903602085016117b9565b9150604084013590509250925092565b5f60208284031215611923575f80fd5b6113dc826117b9565b5f806040838503121561193d575f80fd5b611946836117b9565b91506020830135801515811461195a575f80fd5b809150509250929050565b5f805f8060808587031215611978575f80fd5b611981856117b9565b935061198f602086016117b9565b925060408501359150606085013567ffffffffffffffff8111156119b1575f80fd5b8501601f810187136119c1575f80fd5b6119d087823560208401611810565b91505092959194509250565b5f80604083850312156119ed575f80fd5b6119f6836117b9565b9150611a04602084016117b9565b90509250929050565b600181811c90821680611a2157607f821691505b602082108103611a3f57634e487b7160e01b5f52602260045260245ffd5b50919050565b634e487b7160e01b5f52603260045260245ffd5b634e487b7160e01b5f52601160045260245ffd5b80820281158282048414176105a0576105a0611a59565b5f82611a9e57634e487b7160e01b5f52601260045260245ffd5b500490565b5f60018201611ab457611ab4611a59565b5060010190565b602080825260149082015273151bdad95b88191bd95cc81b9bdd08195e1a5cdd60621b604082015260600190565b5f8351611afa818460208801611743565b835190830190611b0e818360208801611743565b01949350505050565b601f821115610ab2575f81815260208120601f850160051c81016020861015611b3d5750805b601f850160051c820191505b8181101561135957828155600101611b49565b815167ffffffffffffffff811115611b7657611b766117fc565b611b8a81611b848454611a0d565b84611b17565b602080601f831160018114611bbd575f8415611ba65750858301515b5f19600386901b1c1916600185901b178555611359565b5f85815260208120601f198616915b82811015611beb57888601518255948401946001909101908401611bcc565b5085821015611c0857878501515f19600388901b60f8161c191681555b5050505050600190811b01905550565b6001600160a01b03858116825284166020820152604081018390526080606082018190525f90611c4a90830184611765565b9695505050505050565b5f60208284031215611c64575f80fd5b81516113dc8161171356fea2646970667358221220d1b34f9793efabbb5e10f36633cab634fe07b089ba29b339dd8e044b41624c3c64736f6c63430008140033a26469706673582212206015e54cc3df72051e82dd7eb699dbca14a037de60fbbd65ba886a35c1b4a1c164736f6c63430008140033",
  "linkReferences": {},
  "deployedLinkReferences": {},
  "immutableReferences": {},
  "inputSourceName": "project/contracts/NFTCollectionFactory.sol",
  "buildInfoId": "solc-0_8_20-64e08ecc3ae2b0690dee83aadb13fc265cf29b08"
}