{
  "_format": "hh3-artifact-1",
  "contractName": "NFTCollectionFactory",
  "sourceName": "contracts/NFTCollectionFactory.sol",
  "abi": [
    {
      "inputs": [],
      "stateMutability": "nonpayable",
      "type": "constructor"
    },
    {
      "inputs": [
        {
          "internalType": "address",
          "name": "owner",
          "type": "address"
        }
      ],
      "name": "OwnableInvalidOwner",
      "type": "error"
    },
    {
      "inputs": [
        {
          "internalType": "address",
          "name": "account",
          "type": "address"
        }
      ],
      "name": "OwnableUnauthorizedAccount",
      "type": "error"
    },
    {
      "inputs": [],
      "name": "ReentrancyGuardReentrantCall",
      "type": "error"
    },
    {
      "anonymous": false,
      "inputs": [
        {
          "indexed": true,
          "internalType": "uint256",
          "name": "collectionId",
          "type": "uint256"
        },
        {
          "indexed": true,
          "internalType": "address",
          "name": "contractAddress",
          "type": "address"
        },
        {
          "indexed": true,
          "internalType": "address",
          "name": "creator",
          "type": "address"
        }
      ],
      "name": "CollectionCreated",
      "type": "event"
    },
    {
      "anonymous": false,
      "inputs": [
        {
          "indexed": true,
          "internalType": "uint256",
          "name": "collectionId",
          "type": "uint256"
        },
        {
          "indexed": false,
          "internalType": "bool",
          "name": "isActive",
          "type": "bool"
        }
      ],
      "name": "CollectionStatusUpdated",
      "type": "event"
    },
    {
      "anonymous": false,
      "inputs": [
        {
          "indexed": true,
          "internalType": "address",
          "name": "previousOwner",
          "type": "address"
        },
        {
          "indexed": true,
          "internalType": "address",
          "name": "newOwner",
          "type": "address"
        }
      ],
      "name": "OwnershipTransferred",
      "type": "event"
    },
    {
      "inputs": [
        {
          "internalType": "uint256",
          "name": "",
          "type": "uint256"
        }
      ],
      "name": "collectionInfo",
      "outputs": [
        {
          "internalType": "uint256",
          "name": "id",
          "type": "uint256"
        },
        {
          "internalType": "address",
          "name": "contractAddress",
          "type": "address"
        },
        {
          "internalType": "address",
          "name": "creator",
          "type": "address"
        },
        {
          "internalType": "string",
          "name": "name",
          "type": "string"
        },
        {
          "internalType": "string",
          "name": "symbol",
          "type": "string"
        },
        {
          "internalType": "string",
          "name": "prompt",
          "type": "string"
        },
        {
          "internalType": "uint256",
          "name": "maxSupply",
          "type": "uint256"
        },
        {
          "internalType": "uint256",
          "name": "mintPrice",
          "type": "uint256"
        },
        {
          "internalType": "uint256",
          "name": "createdAt",
          "type": "uint256"
        },
        {
          "internalType": "bool",
          "name": "isActive",
          "type": "bool"
        }
      ],
      "stateMutability": "view",
      "type": "function"
    },
    {
      "inputs": [
        {
          "internalType": "uint256",
          "name": "",
          "type": "uint256"
        }
      ],
      "name": "collections",
      "outputs": [
        {
          "internalType": "address",
          "name": "",
          "type": "address"
        }
      ],
      "stateMutability": "view",
      "type": "function"
    },
    {
      "inputs": [
        {
          "internalType": "string",
          "name": "name",
          "type": "string"
        },
        {
          "internalType": "string",
          "name": "symbol",
          "type": "string"
        },
        {
          "internalType": "string",
          "name": "prompt",
          "type": "string"
        },
        {
          "internalType": "string",
          "name": "baseTokenURI",
          "type": "string"
        },
        {
          "internalType": "uint256",
          "name": "maxSupply",
          "type": "uint256"
        },
        {
          "internalType": "uint256",
          "name": "mintPrice",
          "type": "uint256"
        },
        {
          "internalType": "address payable[]",
          "name": "payees",
          "type": "address[]"
        },
        {
          "internalType": "uint256[]",
          "name": "shares",
          "type": "uint256[]"
        }
      ],
      "name": "createCollection",
      "outputs": [
        {
          "internalType": "uint256",
          "name": "",
          "type": "uint256"
        }
      ],
      "stateMutability": "nonpayable",
      "type": "function"
    },
    {
      "inputs": [
        {
          "internalType": "address",
          "name": "",
          "type": "address"
        },
        {
          "internalType": "uint256",
          "name": "",
          "type": "uint256"
        }
      ],
      "name": "creatorCollections",
      "outputs": [
        {
          "internalType": "uint256",
          "name": "",
          "type": "uint256"
        }
      ],
      "stateMutability": "view",
      "type": "function"
    },
    {
      "inputs": [],
      "name": "getAllCollections",
      "outputs": [
        {
          "components": [
            {
              "internalType": "uint256",
              "name": "id",
              "type": "uint256"
            },
            {
              "internalType": "address",
              "name": "contractAddress",
              "type": "address"
            },
            {
              "internalType": "address",
              "name": "creator",
              "type": "address"
            },
            {
              "internalType": "string",
              "name": "name",
              "type": "string"
            },
            {
              "internalType": "string",
              "name": "symbol",
              "type": "string"
            },
            {
              "internalType": "string",
              "name": "prompt",
              "type": "string"
            },
            {
              "internalType": "uint256",
              "name": "maxSupply",
              "type": "uint256"
            },
            {
              "internalType": "uint256",
              "name": "mintPrice",
              "type": "uint256"
            },
            {
              "internalType": "uint256",
              "name": "createdAt",
              "type": "uint256"
            },
            {
              "internalType": "bool",
              "name": "isActive",
              "type": "bool"
            }
          ],
          "internalType": "struct NFTCollectionFactory.CollectionInfo[]",
          "name": "",
          "type": "tuple[]"
        }
      ],
      "stateMutability": "view",
      "type": "function"
    },
    {
      "inputs": [
        {
          "internalType": "address",
          "name": "creator",
          "type": "address"
        }
      ],
      "name": "getCollectionsByCreator",
      "outputs": [
        {
          "internalType": "uint256[]",
          "name": "",
          "type": "uint256[]"
        }
      ],
      "stateMutability": "view",
      "type": "function"
    },
    {
      "inputs": [],
      "name": "getTotalCollections",
      "outputs": [
        {
          "internalType": "uint256",
          "name": "",
          "type": "uint256"
        }
      ],
      "stateMutability": "view",
      "type": "function"
    },
    {
      "inputs": [],
      "name": "owner",
      "outputs": [
        {
          "internalType": "address",
          "name": "",
          "type": "address"
        }
      ],
      "stateMutability": "view",
      "type": "function"
    },
    {
      "inputs": [],
      "name": "platformFeePercent",
      "outputs": [
        {
          "internalType": "uint256",
          "name": "",
          "type": "uint256"
        }
      ],
      "stateMutability": "view",
      "type": "function"
    },
    {
      "inputs": [],
      "name": "renounceOwnership",
      "outputs": [],
      "stateMutability": "nonpayable",
      "type": "function"
    },
    {
      "inputs": [
        {
          "internalType": "address",
          "name": "newOwner",
          "type": "address"
        }
      ],
      "name": "transferOwnership",
      "outputs": [],
      "stateMutability": "nonpayable",
      "type": "function"
    },
    {
      "inputs": [
        {
          "internalType": "uint256",
          "name": "collectionId",
          "type": "uint256"
        },
        {
          "internalType": "bool",
          "name": "isActive",
          "type": "bool"
        }
      ],
      "name": "updateCollectionStatus",
      "outputs": [],
      "stateMutability": "nonpayable",
      "type": "function"
    }
  ],
  "bytecode": "0x608060405260fa600355348015610014575f80fd5b50338061003a57604051631e4fbdf760e01b81525f600482015260240160405180910390fd5b6100438161004d565b506001805561009c565b5f80546001600160a01b038381166001600160a01b0319831681178455604051919092169283917f8be0079c531659141344cd1fd0a4f28419497f9722a3daafe3b4186f6b6457e09190a35050565b61430a806100a95f395ff3fe608060405234801562000010575f80fd5b5060043610620000c0575f3560e01c80638c639a8511620000775780638c639a8514620001755780638da5cb5b146200017f578063939bf6dd14620001a4578063f2fde38b14620001ad578063f56b836914620001c4578063fdbda0ec14620001ea575f80fd5b80630fb4d2e514620000c45780634646ae7314620000fc5780635cf7987c14620001155780636804a958146200013b578063715018a61462000154578063879c5872146200015e575b5f80fd5b620000db620000d5366004620010c8565b62000215565b604051620000f39a9998979695949392919062001125565b60405180910390f35b620001136200010d366004620011b3565b6200041d565b005b6200012c62000126366004620011fc565b6200053b565b604051908152602001620000f3565b6200014562000567565b604051620000f3919062001229565b62000113620008b9565b6200012c6200016f366004620014f4565b620008d0565b6200012c60035481565b5f546001600160a01b03165b6040516001600160a01b039091168152602001620000f3565b6002546200012c565b62000113620001be36600462001606565b62000f64565b620001db620001d536600462001606565b62000fa7565b604051620000f3919062001666565b6200018b620001fb366004620010c8565b60046020525f90815260409020546001600160a01b031681565b60066020525f9081526040902080546001820154600283015460038401805493946001600160a01b0393841694939092169262000252906200167a565b80601f016020809104026020016040519081016040528092919081815260200182805462000280906200167a565b8015620002cf5780601f10620002a557610100808354040283529160200191620002cf565b820191905f5260205f20905b815481529060010190602001808311620002b157829003601f168201915b505050505090806004018054620002e6906200167a565b80601f016020809104026020016040519081016040528092919081815260200182805462000314906200167a565b8015620003635780601f10620003395761010080835404028352916020019162000363565b820191905f5260205f20905b8154815290600101906020018083116200034557829003601f168201915b5050505050908060050180546200037a906200167a565b80601f0160208091040260200160405190810160405280929190818152602001828054620003a8906200167a565b8015620003f75780601f10620003cd57610100808354040283529160200191620003f7565b820191905f5260205f20905b815481529060010190602001808311620003d957829003601f168201915b505050506006830154600784015460088501546009909501549394919390925060ff168a565b5f82815260066020526040902060028101546001600160a01b03163314806200044f57505f546001600160a01b031633145b620004925760405162461bcd60e51b815260206004820152600e60248201526d139bdd08185d5d1a1bdc9a5e995960921b60448201526064015b60405180910390fd5b60018101546001600160a01b0316620004ee5760405162461bcd60e51b815260206004820152601960248201527f436f6c6c656374696f6e20646f6573206e6f7420657869737400000000000000604482015260640162000489565b60098101805460ff191683151590811790915560405190815283907f21601ac23231b49b5c87831506621c16865b56644be3815de2e5b39b771b66209060200160405180910390a2505050565b6005602052815f5260405f20818154811062000555575f80fd5b905f5260205f20015f91509150505481565b60605f60025467ffffffffffffffff81111562000588576200058862001339565b6040519080825280602002602001820160405280156200061f57816020015b6200060b6040518061014001604052805f81526020015f6001600160a01b031681526020015f6001600160a01b031681526020016060815260200160608152602001606081526020015f81526020015f81526020015f81526020015f151581525090565b815260200190600190039081620005a75790505b50905060015b6002548111620008b3575f818152600660209081526040918290208251610140810184528154815260018201546001600160a01b03908116938201939093526002820154909216928201929092526003820180549192916060840191906200068d906200167a565b80601f0160208091040260200160405190810160405280929190818152602001828054620006bb906200167a565b80156200070a5780601f10620006e0576101008083540402835291602001916200070a565b820191905f5260205f20905b815481529060010190602001808311620006ec57829003601f168201915b5050505050815260200160048201805462000725906200167a565b80601f016020809104026020016040519081016040528092919081815260200182805462000753906200167a565b8015620007a25780601f106200077857610100808354040283529160200191620007a2565b820191905f5260205f20905b8154815290600101906020018083116200078457829003601f168201915b50505050508152602001600582018054620007bd906200167a565b80601f0160208091040260200160405190810160405280929190818152602001828054620007eb906200167a565b80156200083a5780601f1062000810576101008083540402835291602001916200083a565b820191905f5260205f20905b8154815290600101906020018083116200081c57829003601f168201915b505050918352505060068201546020820152600782015460408201526008820154606082015260099091015460ff161515608090910152826200087f600184620016c2565b81518110620008925762000892620016de565b60200260200101819052508080620008aa90620016f2565b91505062000625565b50919050565b620008c362001012565b620008ce5f62001040565b565b5f620008db6200108f565b5f895111620009245760405162461bcd60e51b81526020600482015260146024820152734e616d652063616e6e6f7420626520656d70747960601b604482015260640162000489565b5f8851116200096f5760405162461bcd60e51b815260206004820152601660248201527553796d626f6c2063616e6e6f7420626520656d70747960501b604482015260640162000489565b5f875111620009ba5760405162461bcd60e51b815260206004820152601660248201527550726f6d70742063616e6e6f7420626520656d70747960501b604482015260640162000489565b5f85118015620009cc57506127108511155b62000a0f5760405162461bcd60e51b8152602060048201526012602482015271496e76616c6964206d617820737570706c7960701b604482015260640162000489565b5f841162000a6a5760405162461bcd60e51b815260206004820152602160248201527f4d696e74207072696365206d7573742062652067726561746572207468616e206044820152600360fc1b606482015260840162000489565b815183511462000ac75760405162461bcd60e51b815260206004820152602160248201527f50617965657320616e6420736861726573206c656e677468206d69736d6174636044820152600d60fb1b606482015260840162000489565b5f83511162000b195760405162461bcd60e51b815260206004820152601c60248201527f4d7573742068617665206174206c65617374206f6e6520706179656500000000604482015260640162000489565b60028054905f62000b2a83620016f2565b909155505060025483515f9062000b439060016200170d565b67ffffffffffffffff81111562000b5e5762000b5e62001339565b60405190808252806020026020018201604052801562000b88578160200160208202803683370190505b5090505f8451600162000b9c91906200170d565b67ffffffffffffffff81111562000bb75762000bb762001339565b60405190808252806020026020018201604052801562000be1578160200160208202803683370190505b5090505f5b865181101562000c945786818151811062000c055762000c05620016de565b602002602001015183828151811062000c225762000c22620016de565b60200260200101906001600160a01b031690816001600160a01b03168152505085818151811062000c575762000c57620016de565b602002602001015182828151811062000c745762000c74620016de565b60209081029190910101528062000c8b81620016f2565b91505062000be6565b505f546001600160a01b03168287518151811062000cb65762000cb6620016de565b60200260200101906001600160a01b031690816001600160a01b0316815250506003548187518151811062000cef5762000cef620016de565b6020026020010181815250505f8c8c8b8b8b3330898960405162000d1390620010ba565b62000d279998979695949392919062001723565b604051809103905ff08015801562000d41573d5f803e3d5ffd5b5090505f8190508060045f8781526020019081526020015f205f6101000a8154816001600160a01b0302191690836001600160a01b0316021790555060055f336001600160a01b03166001600160a01b031681526020019081526020015f2085908060018154018082558091505060019003905f5260205f20015f9091909190915055604051806101400160405280868152602001826001600160a01b03168152602001336001600160a01b031681526020018f81526020018e81526020018d81526020018b81526020018a81526020014281526020016001151581525060065f8781526020019081526020015f205f820151815f01556020820151816001015f6101000a8154816001600160a01b0302191690836001600160a01b031602179055506040820151816002015f6101000a8154816001600160a01b0302191690836001600160a01b03160217905550606082015181600301908162000ea7919062001840565b506080820151600482019062000ebe908262001840565b5060a0820151600582019062000ed5908262001840565b5060c0820151600682015560e082015160078201556101008201516008820155610120909101516009909101805460ff191691151591909117905560405133906001600160a01b0383169087907fee4d8764b6b7ece682a156063b005e7b6669f9677a19d90b218fc10632eb7ab1905f90a45092935050505062000f5860018055565b98975050505050505050565b62000f6e62001012565b6001600160a01b03811662000f9957604051631e4fbdf760e01b81525f600482015260240162000489565b62000fa48162001040565b50565b6001600160a01b0381165f908152600560209081526040918290208054835181840281018401909452808452606093928301828280156200100657602002820191905f5260205f20905b81548152602001906001019080831162000ff1575b50505050509050919050565b5f546001600160a01b03163314620008ce5760405163118cdaa760e01b815233600482015260240162000489565b5f80546001600160a01b038381166001600160a01b0319831681178455604051919092169283917f8be0079c531659141344cd1fd0a4f28419497f9722a3daafe3b4186f6b6457e09190a35050565b600260015403620010b357604051633ee5aeb560e01b815260040160405180910390fd5b6002600155565b6129cb806200190a83390190565b5f60208284031215620010d9575f80fd5b5035919050565b5f81518084525f5b818110156200110657602081850181015186830182015201620010e8565b505f602082860101526020601f19601f83011685010191505092915050565b8a81526001600160a01b038a8116602083015289166040820152610140606082018190525f90620011598382018b620010e0565b905082810360808401526200116f818a620010e0565b905082810360a0840152620011858189620010e0565b9150508560c08301528460e0830152836101008301528215156101208301529b9a5050505050505050505050565b5f8060408385031215620011c5575f80fd5b8235915060208301358015158114620011dc575f80fd5b809150509250929050565b6001600160a01b038116811462000fa4575f80fd5b5f80604083850312156200120e575f80fd5b82356200121b81620011e7565b946020939093013593505050565b5f6020808301818452808551808352604092508286019150828160051b8701018488015f5b838110156200132b57603f19898403018552815180518452878101516001600160a01b03908116898601528782015116878501526060808201516101408287018190529190620012a183880182620010e0565b9250505060808083015186830382880152620012be8382620010e0565b9250505060a08083015186830382880152620012db8382620010e0565b60c0858101519089015260e08086015190890152610100808601519089015261012094850151801515868a0152949093509150620013169050565b5095880195935050908601906001016200124e565b509098975050505050505050565b634e487b7160e01b5f52604160045260245ffd5b604051601f8201601f1916810167ffffffffffffffff8111828210171562001379576200137962001339565b604052919050565b5f82601f83011262001391575f80fd5b813567ffffffffffffffff811115620013ae57620013ae62001339565b620013c3601f8201601f19166020016200134d565b818152846020838601011115620013d8575f80fd5b816020850160208301375f918101602001919091529392505050565b5f67ffffffffffffffff82111562001410576200141062001339565b5060051b60200190565b5f82601f8301126200142a575f80fd5b81356020620014436200143d83620013f4565b6200134d565b82815260059290921b8401810191818101908684111562001462575f80fd5b8286015b848110156200148a5780356200147c81620011e7565b835291830191830162001466565b509695505050505050565b5f82601f830112620014a5575f80fd5b81356020620014b86200143d83620013f4565b82815260059290921b84018101918181019086841115620014d7575f80fd5b8286015b848110156200148a5780358352918301918301620014db565b5f805f805f805f80610100898b0312156200150d575f80fd5b883567ffffffffffffffff8082111562001525575f80fd5b620015338c838d0162001381565b995060208b013591508082111562001549575f80fd5b620015578c838d0162001381565b985060408b01359150808211156200156d575f80fd5b6200157b8c838d0162001381565b975060608b013591508082111562001591575f80fd5b6200159f8c838d0162001381565b965060808b0135955060a08b0135945060c08b0135915080821115620015c3575f80fd5b620015d18c838d016200141a565b935060e08b0135915080821115620015e7575f80fd5b50620015f68b828c0162001495565b9150509295985092959890939650565b5f6020828403121562001617575f80fd5b81356200162481620011e7565b9392505050565b5f8151808452602080850194508084015f5b838110156200165b578151875295820195908201906001016200163d565b509495945050505050565b602081525f6200162460208301846200162b565b600181811c908216806200168f57607f821691505b602082108103620008b357634e487b7160e01b5f52602260045260245ffd5b634e487b7160e01b5f52601160045260245ffd5b81810381811115620016d857620016d8620016ae565b92915050565b634e487b7160e01b5f52603260045260245ffd5b5f60018201620017065762001706620016ae565b5060010190565b80820180821115620016d857620016d8620016ae565b5f610120808352620017388184018d620010e0565b90506020838203818501526200174f828d620010e0565b9150838203604085015262001765828c620010e0565b606085018b9052608085018a90526001600160a01b0389811660a087015288811660c087015285820360e08701528751808352838901945090918301905f5b81811015620017c4578551841683529484019491840191600101620017a4565b5050858103610100870152620017db81886200162b565b9f9e505050505050505050505050505050565b601f8211156200183b575f81815260208120601f850160051c81016020861015620018165750805b601f850160051c820191505b81811015620018375782815560010162001822565b5050505b505050565b815167ffffffffffffffff8111156200185d576200185d62001339565b62001875816200186e84546200167a565b84620017ee565b602080601f831160018114620018ab575f8415620018935750858301515b5f19600386901b1c1916600185901b17855562001837565b5f85815260208120601f198616915b82811015620018db57888601518255948401946001909101908401620018ba565b5085821015620018f957878501515f19600388901b60f8161c191681555b5050505050600190811b0190555056fe6080604052600e805460ff60a01b1916600160a01b17905534801562000023575f80fd5b50604051620029cb380380620029cb83398101604081905262000046916200054d565b8389895f620000568382620006e8565b506001620000658282620006e8565b50506001600755506001600160a01b0381166200009c57604051631e4fbdf760e01b81525f60048201526024015b60405180910390fd5b620000a7816200024a565b508051825114620001055760405162461bcd60e51b815260206004820152602160248201527f50617965657320616e6420736861726573206c656e677468206d69736d6174636044820152600d60fb1b606482015260840162000093565b5f825111620001575760405162461bcd60e51b815260206004820152601c60248201527f4d7573742068617665206174206c65617374206f6e6520706179656500000000604482015260640162000093565b600c620001658882620006e8565b50600a869055600b859055600d80546001600160a01b038087166001600160a01b031992831617909255600e80549286169290911691909117905542600f819055620001b59062278d00620007c4565b6010558151620001cd9060119060208501906200029b565b508051620001e390601290602084019062000303565b505f5b81518110156200023a57818181518110620002055762000205620007e0565b602002602001015160135f8282546200021f9190620007c4565b909155508190506200023181620007f4565b915050620001e6565b505050505050505050506200080f565b600880546001600160a01b038381166001600160a01b0319831681179093556040519116919082907f8be0079c531659141344cd1fd0a4f28419497f9722a3daafe3b4186f6b6457e0905f90a35050565b828054828255905f5260205f20908101928215620002f1579160200282015b82811115620002f157825182546001600160a01b0319166001600160a01b03909116178255602090920191600190910190620002ba565b50620002ff9291506200033f565b5090565b828054828255905f5260205f20908101928215620002f1579160200282015b82811115620002f157825182559160200191906001019062000322565b5b80821115620002ff575f815560010162000340565b634e487b7160e01b5f52604160045260245ffd5b604051601f8201601f191681016001600160401b038111828210171562000394576200039462000355565b604052919050565b5f82601f830112620003ac575f80fd5b81516001600160401b03811115620003c857620003c862000355565b6020620003de601f8301601f1916820162000369565b8281528582848701011115620003f2575f80fd5b5f5b8381101562000411578581018301518282018401528201620003f4565b505f928101909101919091529392505050565b6001600160a01b038116811462000439575f80fd5b50565b8051620004498162000424565b919050565b5f6001600160401b0382111562000469576200046962000355565b5060051b60200190565b5f82601f83011262000483575f80fd5b815160206200049c62000496836200044e565b62000369565b82815260059290921b84018101918181019086841115620004bb575f80fd5b8286015b84811015620004e3578051620004d58162000424565b8352918301918301620004bf565b509695505050505050565b5f82601f830112620004fe575f80fd5b815160206200051162000496836200044e565b82815260059290921b8401810191818101908684111562000530575f80fd5b8286015b84811015620004e3578051835291830191830162000534565b5f805f805f805f805f6101208a8c03121562000567575f80fd5b89516001600160401b03808211156200057e575f80fd5b6200058c8d838e016200039c565b9a5060208c0151915080821115620005a2575f80fd5b620005b08d838e016200039c565b995060408c0151915080821115620005c6575f80fd5b620005d48d838e016200039c565b985060608c0151975060808c01519650620005f260a08d016200043c565b95506200060260c08d016200043c565b945060e08c015191508082111562000618575f80fd5b620006268d838e0162000473565b93506101008c01519150808211156200063d575f80fd5b506200064c8c828d01620004ee565b9150509295985092959850929598565b600181811c908216806200067157607f821691505b6020821081036200069057634e487b7160e01b5f52602260045260245ffd5b50919050565b601f821115620006e3575f81815260208120601f850160051c81016020861015620006be5750805b601f850160051c820191505b81811015620006df57828155600101620006ca565b5050505b505050565b81516001600160401b0381111562000704576200070462000355565b6200071c816200071584546200065c565b8462000696565b602080601f83116001811462000752575f84156200073a5750858301515b5f19600386901b1c1916600185901b178555620006df565b5f85815260208120601f198616915b82811015620007825788860151825594840194600190910190840162000761565b5085821015620007a057878501515f19600388901b60f8161c191681555b5050505050600190811b01905550565b634e487b7160e01b5f52601160045260245ffd5b80820180821115620007da57620007da620007b0565b92915050565b634e487b7160e01b5f52603260045260245ffd5b5f60018201620008085762000808620007b0565b5060010190565b6121ae806200081d5f395ff3fe608060405260043610610215575f3560e01c806370a082311161011e578063a3f8eace116100a8578063d5abeb011161006d578063d5abeb0114610639578063d85d3d271461064e578063e33b7de314610661578063e985e9c514610676578063f2fde38b14610695575f80fd5b8063a3f8eace1461059e578063b88d4fde146105bd578063c45a0155146105dc578063c547c6fc146105fb578063c87b56dd1461061a575f80fd5b8063931e2e49116100ee578063931e2e491461050b57806395d89b41146105205780639852595c146105345780639fd6db121461055f578063a22cb4651461057f575f80fd5b806370a08231146104a6578063715018a6146104c5578063717a002b146104d95780638da5cb5b146104ee575f80fd5b806342842e0e1161019f57806357a858fc1161016f57806357a858fc1461041557806360ac632b1461043457806363037b0c146104535780636352211e146104725780636817c76c14610491575f80fd5b806342842e0e146103a45780634ea3871a146103c35780634f3e1efc146103e257806355f804b3146103f6575f80fd5b8063095ea7b3116101e5578063095ea7b31461030357806318e97fd114610324578063191655871461034357806323b872dd146103625780633a98ef3914610381575f80fd5b806301ffc9a71461025857806302d05d3f1461028c57806306fdde03146102c3578063081812fc146102e4575f80fd5b3661025457604080513381523460208201527f6ef95f06320e7a25a04a175ca677b7052bdd97131872c2192525a629f51be770910160405180910390a1005b5f80fd5b348015610263575f80fd5b50610277610272366004611b29565b6106b4565b60405190151581526020015b60405180910390f35b348015610297575f80fd5b50600d546102ab906001600160a01b031681565b6040516001600160a01b039091168152602001610283565b3480156102ce575f80fd5b506102d76106de565b6040516102839190611b91565b3480156102ef575f80fd5b506102ab6102fe366004611ba3565b61076d565b34801561030e575f80fd5b5061032261031d366004611bce565b610794565b005b34801561032f575f80fd5b5061032261033e366004611c9d565b6107a3565b34801561034e575f80fd5b5061032261035d366004611ce1565b6108aa565b34801561036d575f80fd5b5061032261037c366004611cfc565b6109d8565b34801561038c575f80fd5b5061039660135481565b604051908152602001610283565b3480156103af575f80fd5b506103226103be366004611cfc565b610a61565b3480156103ce575f80fd5b506103226103dd366004611d4e565b610a80565b3480156103ed575f80fd5b50600954610396565b348015610401575f80fd5b50610322610410366004611d67565b610b17565b348015610420575f80fd5b5061039661042f366004611ba3565b610b62565b34801561043f575f80fd5b5061027761044e366004611ba3565b610b81565b34801561045e575f80fd5b506102ab61046d366004611ba3565b610bc9565b34801561047d575f80fd5b506102ab61048c366004611ba3565b610bf1565b34801561049c575f80fd5b50610396600b5481565b3480156104b1575f80fd5b506103966104c0366004611ce1565b610bfb565b3480156104d0575f80fd5b50610322610c40565b3480156104e4575f80fd5b5061039660105481565b3480156104f9575f80fd5b506008546001600160a01b03166102ab565b348015610516575f80fd5b50610396600f5481565b34801561052b575f80fd5b506102d7610c53565b34801561053f575f80fd5b5061039661054e366004611ce1565b60146020525f908152604090205481565b34801561056a575f80fd5b50600e5461027790600160a01b900460ff1681565b34801561058a575f80fd5b50610322610599366004611d99565b610c62565b3480156105a9575f80fd5b506103966105b8366004611ce1565b610c6d565b3480156105c8575f80fd5b506103226105d7366004611dcc565b610d49565b3480156105e7575f80fd5b50600e546102ab906001600160a01b031681565b348015610606575f80fd5b506102d7610615366004611ba3565b610d61565b348015610625575f80fd5b506102d7610634366004611ba3565b610e32565b348015610644575f80fd5b50610396600a5481565b61032261065c366004611d67565b610f29565b34801561066c575f80fd5b5061039660155481565b348015610681575f80fd5b50610277610690366004611e47565b6111b8565b3480156106a0575f80fd5b506103226106af366004611ce1565b6111e5565b5f6001600160e01b03198216632483248360e11b14806106d857506106d88261121f565b92915050565b60605f80546106ec90611e7e565b80601f016020809104026020016040519081016040528092919081815260200182805461071890611e7e565b80156107635780601f1061073a57610100808354040283529160200191610763565b820191905f5260205f20905b81548152906001019060200180831161074657829003601f168201915b5050505050905090565b5f6107778261126e565b505f828152600460205260409020546001600160a01b03166106d8565b61079f8282336112a6565b5050565b600e546001600160a01b03163314806107c657506008546001600160a01b031633145b6108175760405162461bcd60e51b815260206004820152601c60248201527f4e6f7420617574686f72697a656420746f20757064617465205552490000000060448201526064015b60405180910390fd5b5f828152600260205260409020546001600160a01b031661084a5760405162461bcd60e51b815260040161080e90611eb6565b61085482826112b3565b5f8281526016602052604090819020805460ff191660011790555182907f931f495b9a8e5d8e61946ea5d61e021f636cfe213a801f97589c18c152e408bd9061089e908490611b91565b60405180910390a25050565b336001600160a01b03821614806108cb57506008546001600160a01b031633145b6108e75760405162461bcd60e51b815260040161080e90611ee4565b5f6108f182610c6d565b9050805f036109425760405162461bcd60e51b815260206004820152601a60248201527f4163636f756e74206973206e6f7420647565207061796d656e74000000000000604482015260640161080e565b6001600160a01b0382165f9081526014602052604081208054839290610969908490611f20565b925050819055508060155f8282546109819190611f20565b90915550610991905082826112fb565b604080516001600160a01b0384168152602081018390527fdf20fd1e76bc69d672e4814fafb2c449bba3a5369d8359adf9e05e6fde87b05691015b60405180910390a15050565b6001600160a01b038216610a0157604051633250574960e11b81525f600482015260240161080e565b5f610a0d838333611387565b9050836001600160a01b0316816001600160a01b031614610a5b576040516364283d7b60e01b81526001600160a01b038086166004830152602482018490528216604482015260640161080e565b50505050565b610a7b83838360405180602001604052805f815250610d49565b505050565b600d546001600160a01b0316331480610aa357506008546001600160a01b031633145b610abf5760405162461bcd60e51b815260040161080e90611ee4565b600e8054821515600160a01b0260ff60a01b199091161790556040517ff62079051152e03bd87f33518b9ce4a5564414395b75afeef8a467e7ca4ee91b90610b0c90831515815260200190565b60405180910390a150565b600d546001600160a01b0316331480610b3a57506008546001600160a01b031633145b610b565760405162461bcd60e51b815260040161080e90611ee4565b600c61079f8282611f78565b60128181548110610b71575f80fd5b5f91825260209091200154905081565b5f818152600260205260408120546001600160a01b0316610bb45760405162461bcd60e51b815260040161080e90611eb6565b505f9081526016602052604090205460ff1690565b60118181548110610bd8575f80fd5b5f918252602090912001546001600160a01b0316905081565b5f6106d88261126e565b5f6001600160a01b038216610c25576040516322718ad960e21b81525f600482015260240161080e565b506001600160a01b03165f9081526003602052604090205490565b610c48611479565b610c515f6114a6565b565b6060600180546106ec90611e7e565b61079f3383836114f7565b5f8060155447610c7d9190611f20565b90505f805b601154811015610cf757846001600160a01b031660118281548110610ca957610ca9612034565b5f918252602090912001546001600160a01b031603610ce55760128181548110610cd557610cd5612034565b905f5260205f2001549150610cf7565b80610cef81612048565b915050610c82565b50805f03610d0857505f9392505050565b6001600160a01b0384165f90815260146020526040902054601354610d2d8385612060565b610d379190612077565b610d419190612096565b949350505050565b610d548484846109d8565b610a5b3385858585611595565b5f818152600260205260409020546060906001600160a01b0316610d975760405162461bcd60e51b815260040161080e90611eb6565b5f8281526017602052604090208054610daf90611e7e565b80601f0160208091040260200160405190810160405280929190818152602001828054610ddb90611e7e565b8015610e265780601f10610dfd57610100808354040283529160200191610e26565b820191905f5260205f20905b815481529060010190602001808311610e0957829003601f168201915b50505050509050919050565b6060610e3d8261126e565b505f8281526006602052604081208054610e5690611e7e565b80601f0160208091040260200160405190810160405280929190818152602001828054610e8290611e7e565b8015610ecd5780601f10610ea457610100808354040283529160200191610ecd565b820191905f5260205f20905b815481529060010190602001808311610eb057829003601f168201915b505050505090505f610edd6116bd565b905080515f03610eee575092915050565b815115610f20578082604051602001610f089291906120a9565b60405160208183030381529060405292505050919050565b610d41846116cc565b610f31611731565b600e54600160a01b900460ff16610f805760405162461bcd60e51b8152602060048201526013602482015272135a5b9d1a5b99c81a5cc8191a5cd8589b1959606a1b604482015260640161080e565b600f54421015610fc85760405162461bcd60e51b8152602060048201526013602482015272135a5b9d1a5b99c81b9bdd081cdd185c9d1959606a1b604482015260640161080e565b60105442111561100a5760405162461bcd60e51b815260206004820152600d60248201526c135a5b9d1a5b99c8195b991959609a1b604482015260640161080e565b600a54600954106110525760405162461bcd60e51b815260206004820152601260248201527113585e081cdd5c1c1b1e481c995858da195960721b604482015260640161080e565b600b5434101561109b5760405162461bcd60e51b8152602060048201526014602482015273125b9cdd59999a58da595b9d081c185e5b595b9d60621b604482015260640161080e565b5f8151116110e45760405162461bcd60e51b815260206004820152601660248201527550726f6d70742063616e6e6f7420626520656d70747960501b604482015260640161080e565b60098054905f6110f383612048565b9091555050600954611105338261175b565b5f81815260176020526040902061111c8382611f78565b505f8181526016602052604090819020805460ff1916905551339082907fe768813546e23b724434f7fec2919cc3b20a39442602c602009edb1998dd55189061116890869042906120d7565b60405180910390a3807fb17e456563fcdf83dd94443d81e0c5ac80da0262b52d8085c732a3dd8363ac7883336040516111a29291906120f8565b60405180910390a2506111b56001600755565b50565b6001600160a01b039182165f90815260056020908152604080832093909416825291909152205460ff1690565b6111ed611479565b6001600160a01b03811661121657604051631e4fbdf760e01b81525f600482015260240161080e565b6111b5816114a6565b5f6001600160e01b031982166380ac58cd60e01b148061124f57506001600160e01b03198216635b5e139f60e01b145b806106d857506301ffc9a760e01b6001600160e01b03198316146106d8565b5f818152600260205260408120546001600160a01b0316806106d857604051637e27328960e01b81526004810184905260240161080e565b610a7b83838360016117bc565b5f8281526006602052604090206112ca8282611f78565b506040518281527ff8e1a15aba9398e019f0b49df1a4fde98ee17ae345cb5f6b5e2c27f5033e8ce7906020016109cc565b804710156113255760405163cf47918160e01b81524760048201526024810182905260440161080e565b5f80836001600160a01b0316836040515f6040518083038185875af1925050503d805f811461136f576040519150601f19603f3d011682016040523d82523d5f602084013e611374565b606091505b509150915081610a5b57610a5b816118c0565b5f828152600260205260408120546001600160a01b03908116908316156113b3576113b38184866118e8565b6001600160a01b038116156113ed576113ce5f855f806117bc565b6001600160a01b0381165f90815260036020526040902080545f190190555b6001600160a01b0385161561141b576001600160a01b0385165f908152600360205260409020805460010190555b5f8481526002602052604080822080546001600160a01b0319166001600160a01b0389811691821790925591518793918516917fddf252ad1be2c89b69c2b068fc378daa952ba7f163c4a11628f55a4df523b3ef91a4949350505050565b6008546001600160a01b03163314610c515760405163118cdaa760e01b815233600482015260240161080e565b600880546001600160a01b038381166001600160a01b0319831681179093556040519116919082907f8be0079c531659141344cd1fd0a4f28419497f9722a3daafe3b4186f6b6457e0905f90a35050565b6001600160a01b03821661152957604051630b61174360e31b81526001600160a01b038316600482015260240161080e565b6001600160a01b038381165f81815260056020908152604080832094871680845294825291829020805460ff191686151590811790915591519182527f17307eab39ab6107e8899845ad3d59bd9653f200f220920489ca2b5937696c31910160405180910390a3505050565b6001600160a01b0383163b156116b657604051630a85bd0160e11b81526001600160a01b0384169063150b7a02906115d7908890889087908790600401612121565b6020604051808303815f875af1925050508015611611575060408051601f3d908101601f1916820190925261160e9181019061215d565b60015b611678573d80801561163e576040519150601f19603f3d011682016040523d82523d5f602084013e611643565b606091505b5080515f0361167057604051633250574960e11b81526001600160a01b038516600482015260240161080e565b805160208201fd5b6001600160e01b03198116630a85bd0160e11b146116b457604051633250574960e11b81526001600160a01b038516600482015260240161080e565b505b5050505050565b6060600c80546106ec90611e7e565b60606116d78261126e565b505f6116e16116bd565b90505f8151116116ff5760405180602001604052805f81525061172a565b806117098461194c565b60405160200161171a9291906120a9565b6040516020818303038152906040525b9392505050565b60026007540361175457604051633ee5aeb560e01b815260040160405180910390fd5b6002600755565b6001600160a01b03821661178457604051633250574960e11b81525f600482015260240161080e565b5f61179083835f611387565b90506001600160a01b03811615610a7b576040516339e3563760e11b81525f600482015260240161080e565b80806117d057506001600160a01b03821615155b15611891575f6117df8461126e565b90506001600160a01b0383161580159061180b5750826001600160a01b0316816001600160a01b031614155b801561181e575061181c81846111b8565b155b156118475760405163a9fbf51f60e01b81526001600160a01b038416600482015260240161080e565b811561188f5783856001600160a01b0316826001600160a01b03167f8c5be1e5ebec7d5bd14f71427d1e84f3dd0314c0f7b2291e5b200ac8c7c3b92560405160405180910390a45b505b50505f90815260046020526040902080546001600160a01b0319166001600160a01b0392909216919091179055565b8051156118cf57805160208201fd5b60405163d6bda27560e01b815260040160405180910390fd5b6118f38383836119dc565b610a7b576001600160a01b03831661192157604051637e27328960e01b81526004810182905260240161080e565b60405163177e802f60e01b81526001600160a01b03831660048201526024810182905260440161080e565b60605f61195883611a3d565b60010190505f8167ffffffffffffffff81111561197757611977611bf8565b6040519080825280601f01601f1916602001820160405280156119a1576020820181803683370190505b5090508181016020015b5f19016f181899199a1a9b1b9c1cb0b131b232b360811b600a86061a8153600a85049450846119ab57509392505050565b5f6001600160a01b03831615801590610d415750826001600160a01b0316846001600160a01b03161480611a155750611a1584846111b8565b80610d415750505f908152600460205260409020546001600160a01b03908116911614919050565b5f8072184f03e93ff9f4daa797ed6e38ed64bf6a1f0160401b8310611a7b5772184f03e93ff9f4daa797ed6e38ed64bf6a1f0160401b830492506040015b6d04ee2d6d415b85acef81000000008310611aa7576d04ee2d6d415b85acef8100000000830492506020015b662386f26fc100008310611ac557662386f26fc10000830492506010015b6305f5e1008310611add576305f5e100830492506008015b6127108310611af157612710830492506004015b60648310611b03576064830492506002015b600a83106106d85760010192915050565b6001600160e01b0319811681146111b5575f80fd5b5f60208284031215611b39575f80fd5b813561172a81611b14565b5f5b83811015611b5e578181015183820152602001611b46565b50505f910152565b5f8151808452611b7d816020860160208601611b44565b601f01601f19169290920160200192915050565b602081525f61172a6020830184611b66565b5f60208284031215611bb3575f80fd5b5035919050565b6001600160a01b03811681146111b5575f80fd5b5f8060408385031215611bdf575f80fd5b8235611bea81611bba565b946020939093013593505050565b634e487b7160e01b5f52604160045260245ffd5b5f67ffffffffffffffff80841115611c2657611c26611bf8565b604051601f8501601f19908116603f01168101908282118183101715611c4e57611c4e611bf8565b81604052809350858152868686011115611c66575f80fd5b858560208301375f602087830101525050509392505050565b5f82601f830112611c8e575f80fd5b61172a83833560208501611c0c565b5f8060408385031215611cae575f80fd5b82359150602083013567ffffffffffffffff811115611ccb575f80fd5b611cd785828601611c7f565b9150509250929050565b5f60208284031215611cf1575f80fd5b813561172a81611bba565b5f805f60608486031215611d0e575f80fd5b8335611d1981611bba565b92506020840135611d2981611bba565b929592945050506040919091013590565b80358015158114611d49575f80fd5b919050565b5f60208284031215611d5e575f80fd5b61172a82611d3a565b5f60208284031215611d77575f80fd5b813567ffffffffffffffff811115611d8d575f80fd5b610d4184828501611c7f565b5f8060408385031215611daa575f80fd5b8235611db581611bba565b9150611dc360208401611d3a565b90509250929050565b5f805f8060808587031215611ddf575f80fd5b8435611dea81611bba565b93506020850135611dfa81611bba565b925060408501359150606085013567ffffffffffffffff811115611e1c575f80fd5b8501601f81018713611e2c575f80fd5b611e3b87823560208401611c0c565b91505092959194509250565b5f8060408385031215611e58575f80fd5b8235611e6381611bba565b91506020830135611e7381611bba565b809150509250929050565b600181811c90821680611e9257607f821691505b602082108103611eb057634e487b7160e01b5f52602260045260245ffd5b50919050565b602080825260149082015273151bdad95b88191bd95cc81b9bdd08195e1a5cdd60621b604082015260600190565b6020808252600e908201526d139bdd08185d5d1a1bdc9a5e995960921b604082015260600190565b634e487b7160e01b5f52601160045260245ffd5b808201808211156106d8576106d8611f0c565b601f821115610a7b575f81815260208120601f850160051c81016020861015611f595750805b601f850160051c820191505b818110156116b457828155600101611f65565b815167ffffffffffffffff811115611f9257611f92611bf8565b611fa681611fa08454611e7e565b84611f33565b602080601f831160018114611fd9575f8415611fc25750858301515b5f19600386901b1c1916600185901b1785556116b4565b5f85815260208120601f198616915b8281101561200757888601518255948401946001909101908401611fe8565b508582101561202457878501515f19600388901b60f8161c191681555b5050505050600190811b01905550565b634e487b7160e01b5f52603260045260245ffd5b5f6001820161205957612059611f0c565b5060010190565b80820281158282048414176106d8576106d8611f0c565b5f8261209157634e487b7160e01b5f52601260045260245ffd5b500490565b818103818111156106d8576106d8611f0c565b5f83516120ba818460208801611b44565b8351908301906120ce818360208801611b44565b01949350505050565b604081525f6120e96040830185611b66565b90508260208301529392505050565b604081525f61210a6040830185611b66565b905060018060a01b03831660208301529392505050565b6001600160a01b03858116825284166020820152604081018390526080606082018190525f9061215390830184611b66565b9695505050505050565b5f6020828403121561216d575f80fd5b815161172a81611b1456fea2646970667358221220ee5e11ba7b09462467123d7e456d56cee39a6096fa988a1258552da9d1bbcc7064736f6c63430008140033a264697066735822122071746b041f36dc91b5f9b5d22e17cdde83c7413610900f767fba30d5208e2b6764736f6c63430008140033",
  "linkReferences": {},
  "deployedLinkReferences": {},
  "immutableReferences": {},
  "inputSourceName": "project/contracts/NFTCollectionFactory.sol",
  "buildInfoId": "solc-0_8_20-3ad7ffc181f6a641420dbec4961f5f6692675239"
}