{
  "_format": "hh3-artifact-1",
  "contractName": "NFTCollectionFactory",
  "sourceName": "contracts/NFTCollectionFactory.sol",
  "abi": [
    {
      "inputs": [],
      "stateMutability": "nonpayable",
      "type": "constructor"
    },
    {
      "inputs": [
        {
          "internalType": "address",
          "name": "owner",
          "type": "address"
        }
      ],
      "name": "OwnableInvalidOwner",
      "type": "error"
    },
    {
      "inputs": [
        {
          "internalType": "address",
          "name": "account",
          "type": "address"
        }
      ],
      "name": "OwnableUnauthorizedAccount",
      "type": "error"
    },
    {
      "inputs": [],
      "name": "ReentrancyGuardReentrantCall",
      "type": "error"
    },
    {
      "anonymous": false,
      "inputs": [
        {
          "indexed": true,
          "internalType": "uint256",
          "name": "collectionId",
          "type": "uint256"
        },
        {
          "indexed": true,
          "internalType": "address",
          "name": "contractAddress",
          "type": "address"
        },
        {
          "indexed": true,
          "internalType": "address",
          "name": "creator",
          "type": "address"
        }
      ],
      "name": "CollectionCreated",
      "type": "event"
    },
    {
      "anonymous": false,
      "inputs": [
        {
          "indexed": true,
          "internalType": "uint256",
          "name": "collectionId",
          "type": "uint256"
        },
        {
          "indexed": false,
          "internalType": "bool",
          "name": "isActive",
          "type": "bool"
        }
      ],
      "name": "CollectionStatusUpdated",
      "type": "event"
    },
    {
      "anonymous": false,
      "inputs": [
        {
          "indexed": true,
          "internalType": "address",
          "name": "previousOwner",
          "type": "address"
        },
        {
          "indexed": true,
          "internalType": "address",
          "name": "newOwner",
          "type": "address"
        }
      ],
      "name": "OwnershipTransferred",
      "type": "event"
    },
    {
      "inputs": [],
      "name": "PLATFORM_WALLET",
      "outputs": [
        {
          "internalType": "address",
          "name": "",
          "type": "address"
        }
      ],
      "stateMutability": "view",
      "type": "function"
    },
    {
      "inputs": [
        {
          "internalType": "uint256",
          "name": "",
          "type": "uint256"
        }
      ],
      "name": "collectionInfo",
      "outputs": [
        {
          "internalType": "uint256",
          "name": "id",
          "type": "uint256"
        },
        {
          "internalType": "address",
          "name": "contractAddress",
          "type": "address"
        },
        {
          "internalType": "address",
          "name": "creator",
          "type": "address"
        },
        {
          "internalType": "string",
          "name": "name",
          "type": "string"
        },
        {
          "internalType": "string",
          "name": "symbol",
          "type": "string"
        },
        {
          "internalType": "string",
          "name": "prompt",
          "type": "string"
        },
        {
          "internalType": "uint256",
          "name": "maxSupply",
          "type": "uint256"
        },
        {
          "internalType": "uint256",
          "name": "mintPrice",
          "type": "uint256"
        },
        {
          "internalType": "uint256",
          "name": "createdAt",
          "type": "uint256"
        },
        {
          "internalType": "bool",
          "name": "isActive",
          "type": "bool"
        }
      ],
      "stateMutability": "view",
      "type": "function"
    },
    {
      "inputs": [
        {
          "internalType": "uint256",
          "name": "",
          "type": "uint256"
        }
      ],
      "name": "collections",
      "outputs": [
        {
          "internalType": "address",
          "name": "",
          "type": "address"
        }
      ],
      "stateMutability": "view",
      "type": "function"
    },
    {
      "inputs": [
        {
          "internalType": "string",
          "name": "name",
          "type": "string"
        },
        {
          "internalType": "string",
          "name": "symbol",
          "type": "string"
        },
        {
          "internalType": "string",
          "name": "prompt",
          "type": "string"
        },
        {
          "internalType": "string",
          "name": "baseTokenURI",
          "type": "string"
        },
        {
          "internalType": "uint256",
          "name": "maxSupply",
          "type": "uint256"
        },
        {
          "internalType": "uint256",
          "name": "mintPrice",
          "type": "uint256"
        }
      ],
      "name": "createCollection",
      "outputs": [
        {
          "internalType": "uint256",
          "name": "",
          "type": "uint256"
        }
      ],
      "stateMutability": "nonpayable",
      "type": "function"
    },
    {
      "inputs": [
        {
          "internalType": "address",
          "name": "",
          "type": "address"
        },
        {
          "internalType": "uint256",
          "name": "",
          "type": "uint256"
        }
      ],
      "name": "creatorCollections",
      "outputs": [
        {
          "internalType": "uint256",
          "name": "",
          "type": "uint256"
        }
      ],
      "stateMutability": "view",
      "type": "function"
    },
    {
      "inputs": [],
      "name": "getAllCollections",
      "outputs": [
        {
          "components": [
            {
              "internalType": "uint256",
              "name": "id",
              "type": "uint256"
            },
            {
              "internalType": "address",
              "name": "contractAddress",
              "type": "address"
            },
            {
              "internalType": "address",
              "name": "creator",
              "type": "address"
            },
            {
              "internalType": "string",
              "name": "name",
              "type": "string"
            },
            {
              "internalType": "string",
              "name": "symbol",
              "type": "string"
            },
            {
              "internalType": "string",
              "name": "prompt",
              "type": "string"
            },
            {
              "internalType": "uint256",
              "name": "maxSupply",
              "type": "uint256"
            },
            {
              "internalType": "uint256",
              "name": "mintPrice",
              "type": "uint256"
            },
            {
              "internalType": "uint256",
              "name": "createdAt",
              "type": "uint256"
            },
            {
              "internalType": "bool",
              "name": "isActive",
              "type": "bool"
            }
          ],
          "internalType": "struct NFTCollectionFactory.CollectionInfo[]",
          "name": "",
          "type": "tuple[]"
        }
      ],
      "stateMutability": "view",
      "type": "function"
    },
    {
      "inputs": [
        {
          "internalType": "address",
          "name": "creator",
          "type": "address"
        }
      ],
      "name": "getCollectionsByCreator",
      "outputs": [
        {
          "internalType": "uint256[]",
          "name": "",
          "type": "uint256[]"
        }
      ],
      "stateMutability": "view",
      "type": "function"
    },
    {
      "inputs": [],
      "name": "getTotalCollections",
      "outputs": [
        {
          "internalType": "uint256",
          "name": "",
          "type": "uint256"
        }
      ],
      "stateMutability": "view",
      "type": "function"
    },
    {
      "inputs": [],
      "name": "owner",
      "outputs": [
        {
          "internalType": "address",
          "name": "",
          "type": "address"
        }
      ],
      "stateMutability": "view",
      "type": "function"
    },
    {
      "inputs": [],
      "name": "platformFeePercent",
      "outputs": [
        {
          "internalType": "uint256",
          "name": "",
          "type": "uint256"
        }
      ],
      "stateMutability": "view",
      "type": "function"
    },
    {
      "inputs": [],
      "name": "renounceOwnership",
      "outputs": [],
      "stateMutability": "nonpayable",
      "type": "function"
    },
    {
      "inputs": [
        {
          "internalType": "address",
          "name": "newOwner",
          "type": "address"
        }
      ],
      "name": "transferOwnership",
      "outputs": [],
      "stateMutability": "nonpayable",
      "type": "function"
    },
    {
      "inputs": [
        {
          "internalType": "uint256",
          "name": "collectionId",
          "type": "uint256"
        },
        {
          "internalType": "bool",
          "name": "isActive",
          "type": "bool"
        }
      ],
      "name": "updateCollectionStatus",
      "outputs": [],
      "stateMutability": "nonpayable",
      "type": "function"
    }
  ],
  "bytecode": "0x608060405260fa600355348015610014575f80fd5b50338061003a57604051631e4fbdf760e01b81525f600482015260240160405180910390fd5b6100438161004d565b506001805561009c565b5f80546001600160a01b038381166001600160a01b0319831681178455604051919092169283917f8be0079c531659141344cd1fd0a4f28419497f9722a3daafe3b4186f6b6457e09190a35050565b613f0a806100a95f395ff3fe608060405234801562000010575f80fd5b5060043610620000dc575f3560e01c80638c639a851162000093578063eb8b12d4116200006b578063eb8b12d414620001c9578063f2fde38b14620001e5578063f56b836914620001fc578063fdbda0ec1462000222575f80fd5b80638c639a8514620001915780638da5cb5b146200019b578063939bf6dd14620001c0575f80fd5b80630fb4d2e514620000e05780634646ae7314620001185780635cf7987c14620001315780636804a95814620001575780636c5abca51462000170578063715018a61462000187575b5f80fd5b620000f7620000f136600462000f9d565b6200024d565b6040516200010f9a9998979695949392919062000ffa565b60405180910390f35b6200012f6200012936600462001088565b62000455565b005b6200014862000142366004620010d8565b62000573565b6040519081526020016200010f565b620001616200059f565b6040516200010f919062001103565b6200014862000181366004620012b8565b620008f1565b6200012f62000e22565b6200014860035481565b5f546001600160a01b03165b6040516001600160a01b0390911681526020016200010f565b60025462000148565b620001a773e55e9c8e6e2efb0c7b62e78816b6a9fed9218c8181565b6200012f620001f63660046200137c565b62000e39565b620002136200020d3660046200137c565b62000e7c565b6040516200010f9190620013da565b620001a76200023336600462000f9d565b60046020525f90815260409020546001600160a01b031681565b60066020525f9081526040902080546001820154600283015460038401805493946001600160a01b039384169493909216926200028a90620013ee565b80601f0160208091040260200160405190810160405280929190818152602001828054620002b890620013ee565b8015620003075780601f10620002dd5761010080835404028352916020019162000307565b820191905f5260205f20905b815481529060010190602001808311620002e957829003601f168201915b5050505050908060040180546200031e90620013ee565b80601f01602080910402602001604051908101604052809291908181526020018280546200034c90620013ee565b80156200039b5780601f1062000371576101008083540402835291602001916200039b565b820191905f5260205f20905b8154815290600101906020018083116200037d57829003601f168201915b505050505090806005018054620003b290620013ee565b80601f0160208091040260200160405190810160405280929190818152602001828054620003e090620013ee565b80156200042f5780601f1062000405576101008083540402835291602001916200042f565b820191905f5260205f20905b8154815290600101906020018083116200041157829003601f168201915b505050506006830154600784015460088501546009909501549394919390925060ff168a565b5f82815260066020526040902060028101546001600160a01b03163314806200048757505f546001600160a01b031633145b620004ca5760405162461bcd60e51b815260206004820152600e60248201526d139bdd08185d5d1a1bdc9a5e995960921b60448201526064015b60405180910390fd5b60018101546001600160a01b0316620005265760405162461bcd60e51b815260206004820152601960248201527f436f6c6c656374696f6e20646f6573206e6f74206578697374000000000000006044820152606401620004c1565b60098101805460ff191683151590811790915560405190815283907f21601ac23231b49b5c87831506621c16865b56644be3815de2e5b39b771b66209060200160405180910390a2505050565b6005602052815f5260405f2081815481106200058d575f80fd5b905f5260205f20015f91509150505481565b60605f60025467ffffffffffffffff811115620005c057620005c062001213565b6040519080825280602002602001820160405280156200065757816020015b620006436040518061014001604052805f81526020015f6001600160a01b031681526020015f6001600160a01b031681526020016060815260200160608152602001606081526020015f81526020015f81526020015f81526020015f151581525090565b815260200190600190039081620005df5790505b50905060015b6002548111620008eb575f818152600660209081526040918290208251610140810184528154815260018201546001600160a01b0390811693820193909352600282015490921692820192909252600382018054919291606084019190620006c590620013ee565b80601f0160208091040260200160405190810160405280929190818152602001828054620006f390620013ee565b8015620007425780601f10620007185761010080835404028352916020019162000742565b820191905f5260205f20905b8154815290600101906020018083116200072457829003601f168201915b505050505081526020016004820180546200075d90620013ee565b80601f01602080910402602001604051908101604052809291908181526020018280546200078b90620013ee565b8015620007da5780601f10620007b057610100808354040283529160200191620007da565b820191905f5260205f20905b815481529060010190602001808311620007bc57829003601f168201915b50505050508152602001600582018054620007f590620013ee565b80601f01602080910402602001604051908101604052809291908181526020018280546200082390620013ee565b8015620008725780601f10620008485761010080835404028352916020019162000872565b820191905f5260205f20905b8154815290600101906020018083116200085457829003601f168201915b505050918352505060068201546020820152600782015460408201526008820154606082015260099091015460ff16151560809091015282620008b760018462001436565b81518110620008ca57620008ca62001452565b60200260200101819052508080620008e29062001466565b9150506200065d565b50919050565b5f620008fc62000ee7565b5f875111620009455760405162461bcd60e51b81526020600482015260146024820152734e616d652063616e6e6f7420626520656d70747960601b6044820152606401620004c1565b5f865111620009905760405162461bcd60e51b815260206004820152601660248201527553796d626f6c2063616e6e6f7420626520656d70747960501b6044820152606401620004c1565b5f855111620009db5760405162461bcd60e51b815260206004820152601660248201527550726f6d70742063616e6e6f7420626520656d70747960501b6044820152606401620004c1565b5f83118015620009ed57506127108311155b62000a305760405162461bcd60e51b8152602060048201526012602482015271496e76616c6964206d617820737570706c7960701b6044820152606401620004c1565b5f821162000a8b5760405162461bcd60e51b815260206004820152602160248201527f4d696e74207072696365206d7573742062652067726561746572207468616e206044820152600360fc1b6064820152608401620004c1565b60028054905f62000a9c8362001466565b9091555050600280546040805183815260608101825291925f929160208301908036833750506040805160028082526060820183529394505f939092509060208301908036833701905050905033825f8151811062000aff5762000aff62001452565b6001600160a01b039092166020928302919091019091015260035462000b289061271062001436565b815f8151811062000b3d5762000b3d62001452565b60200260200101818152505073e55e9c8e6e2efb0c7b62e78816b6a9fed9218c818260018151811062000b745762000b7462001452565b60200260200101906001600160a01b031690816001600160a01b0316815250506003548160018151811062000bad5762000bad62001452565b6020026020010181815250505f8a8a8a8a8a8a33308a8a60405162000bd29062000f8f565b62000be79a9998979695949392919062001481565b604051809103905ff08015801562000c01573d5f803e3d5ffd5b5090505f8190508060045f8781526020019081526020015f205f6101000a8154816001600160a01b0302191690836001600160a01b0316021790555060055f336001600160a01b03166001600160a01b031681526020019081526020015f2085908060018154018082558091505060019003905f5260205f20015f9091909190915055604051806101400160405280868152602001826001600160a01b03168152602001336001600160a01b031681526020018d81526020018c81526020018b81526020018981526020018881526020014281526020016001151581525060065f8781526020019081526020015f205f820151815f01556020820151816001015f6101000a8154816001600160a01b0302191690836001600160a01b031602179055506040820151816002015f6101000a8154816001600160a01b0302191690836001600160a01b03160217905550606082015181600301908162000d679190620015b7565b506080820151600482019062000d7e9082620015b7565b5060a0820151600582019062000d959082620015b7565b5060c0820151600682015560e082015160078201556101008201516008820155610120909101516009909101805460ff191691151591909117905560405133906001600160a01b0383169087907fee4d8764b6b7ece682a156063b005e7b6669f9677a19d90b218fc10632eb7ab1905f90a45092935050505062000e1860018055565b9695505050505050565b62000e2c62000f12565b62000e375f62000f40565b565b62000e4362000f12565b6001600160a01b03811662000e6e57604051631e4fbdf760e01b81525f6004820152602401620004c1565b62000e798162000f40565b50565b6001600160a01b0381165f9081526005602090815260409182902080548351818402810184019094528084526060939283018282801562000edb57602002820191905f5260205f20905b81548152602001906001019080831162000ec6575b50505050509050919050565b60026001540362000f0b57604051633ee5aeb560e01b815260040160405180910390fd5b6002600155565b5f546001600160a01b0316331462000e375760405163118cdaa760e01b8152336004820152602401620004c1565b5f80546001600160a01b038381166001600160a01b0319831681178455604051919092169283917f8be0079c531659141344cd1fd0a4f28419497f9722a3daafe3b4186f6b6457e09190a35050565b612854806200168183390190565b5f6020828403121562000fae575f80fd5b5035919050565b5f81518084525f5b8181101562000fdb5760208185018101518683018201520162000fbd565b505f602082860101526020601f19601f83011685010191505092915050565b8a81526001600160a01b038a8116602083015289166040820152610140606082018190525f906200102e8382018b62000fb5565b9050828103608084015262001044818a62000fb5565b905082810360a08401526200105a818962000fb5565b9150508560c08301528460e0830152836101008301528215156101208301529b9a5050505050505050505050565b5f80604083850312156200109a575f80fd5b8235915060208301358015158114620010b1575f80fd5b809150509250929050565b80356001600160a01b0381168114620010d3575f80fd5b919050565b5f8060408385031215620010ea575f80fd5b620010f583620010bc565b946020939093013593505050565b5f6020808301818452808551808352604092508286019150828160051b8701018488015f5b838110156200120557603f19898403018552815180518452878101516001600160a01b039081168986015287820151168785015260608082015161014082870181905291906200117b8388018262000fb5565b925050506080808301518683038288015262001198838262000fb5565b9250505060a08083015186830382880152620011b5838262000fb5565b60c0858101519089015260e08086015190890152610100808601519089015261012094850151801515868a0152949093509150620011f09050565b50958801959350509086019060010162001128565b509098975050505050505050565b634e487b7160e01b5f52604160045260245ffd5b5f82601f83011262001237575f80fd5b813567ffffffffffffffff8082111562001255576200125562001213565b604051601f8301601f19908116603f0116810190828211818310171562001280576200128062001213565b8160405283815286602085880101111562001299575f80fd5b836020870160208301375f602085830101528094505050505092915050565b5f805f805f8060c08789031215620012ce575f80fd5b863567ffffffffffffffff80821115620012e6575f80fd5b620012f48a838b0162001227565b975060208901359150808211156200130a575f80fd5b620013188a838b0162001227565b965060408901359150808211156200132e575f80fd5b6200133c8a838b0162001227565b9550606089013591508082111562001352575f80fd5b506200136189828a0162001227565b9350506080870135915060a087013590509295509295509295565b5f602082840312156200138d575f80fd5b6200139882620010bc565b9392505050565b5f8151808452602080850194508084015f5b83811015620013cf57815187529582019590820190600101620013b1565b509495945050505050565b602081525f6200139860208301846200139f565b600181811c908216806200140357607f821691505b602082108103620008eb57634e487b7160e01b5f52602260045260245ffd5b634e487b7160e01b5f52601160045260245ffd5b818103818111156200144c576200144c62001422565b92915050565b634e487b7160e01b5f52603260045260245ffd5b5f600182016200147a576200147a62001422565b5060010190565b5f610140808352620014968184018e62000fb5565b9050602083820381850152620014ad828e62000fb5565b91508382036040850152620014c3828d62000fb5565b91508382036060850152620014d9828c62000fb5565b608085018b905260a085018a90526001600160a01b0389811660c087015288811660e08701528582036101008701528751808352838901945090918301905f5b818110156200153957855184168352948401949184019160010162001519565b50508581036101208701526200155081886200139f565b9450505050509b9a5050505050505050505050565b601f821115620015b2575f81815260208120601f850160051c810160208610156200158d5750805b601f850160051c820191505b81811015620015ae5782815560010162001599565b5050505b505050565b815167ffffffffffffffff811115620015d457620015d462001213565b620015ec81620015e58454620013ee565b8462001565565b602080601f83116001811462001622575f84156200160a5750858301515b5f19600386901b1c1916600185901b178555620015ae565b5f85815260208120601f198616915b82811015620016525788860151825594840194600190910190840162001631565b50858210156200167057878501515f19600388901b60f8161c191681555b5050505050600190811b0190555056fe6080604052600f805460ff60a01b1916600160a01b17905534801562000023575f80fd5b50604051620028543803806200285483398101604081905262000046916200055d565b838a8a5f62000056838262000720565b50600162000065828262000720565b50506001600755506001600160a01b0381166200009c57604051631e4fbdf760e01b81525f60048201526024015b60405180910390fd5b620000a7816200025a565b508051825114620001055760405162461bcd60e51b815260206004820152602160248201527f50617965657320616e6420736861726573206c656e677468206d69736d6174636044820152600d60fb1b606482015260840162000093565b5f825111620001575760405162461bcd60e51b815260206004820152601c60248201527f4d7573742068617665206174206c65617374206f6e6520706179656500000000604482015260640162000093565b600c62000165888262000720565b50600d62000174898262000720565b50600a869055600b859055600e80546001600160a01b038087166001600160a01b031992831617909255600f805492861692909116919091179055426010819055620001c49062278d00620007fc565b6011558151620001dc906012906020850190620002ab565b508051620001f290601390602084019062000313565b505f5b8151811015620002495781818151811062000214576200021462000818565b602002602001015160145f8282546200022e9190620007fc565b9091555081905062000240816200082c565b915050620001f5565b505050505050505050505062000847565b600880546001600160a01b038381166001600160a01b0319831681179093556040519116919082907f8be0079c531659141344cd1fd0a4f28419497f9722a3daafe3b4186f6b6457e0905f90a35050565b828054828255905f5260205f2090810192821562000301579160200282015b828111156200030157825182546001600160a01b0319166001600160a01b03909116178255602090920191600190910190620002ca565b506200030f9291506200034f565b5090565b828054828255905f5260205f2090810192821562000301579160200282015b828111156200030157825182559160200191906001019062000332565b5b808211156200030f575f815560010162000350565b634e487b7160e01b5f52604160045260245ffd5b604051601f8201601f191681016001600160401b0381118282101715620003a457620003a462000365565b604052919050565b5f82601f830112620003bc575f80fd5b81516001600160401b03811115620003d857620003d862000365565b6020620003ee601f8301601f1916820162000379565b828152858284870101111562000402575f80fd5b5f5b838110156200042157858101830151828201840152820162000404565b505f928101909101919091529392505050565b6001600160a01b038116811462000449575f80fd5b50565b8051620004598162000434565b919050565b5f6001600160401b0382111562000479576200047962000365565b5060051b60200190565b5f82601f83011262000493575f80fd5b81516020620004ac620004a6836200045e565b62000379565b82815260059290921b84018101918181019086841115620004cb575f80fd5b8286015b84811015620004f3578051620004e58162000434565b8352918301918301620004cf565b509695505050505050565b5f82601f8301126200050e575f80fd5b8151602062000521620004a6836200045e565b82815260059290921b8401810191818101908684111562000540575f80fd5b8286015b84811015620004f3578051835291830191830162000544565b5f805f805f805f805f806101408b8d03121562000578575f80fd5b8a516001600160401b03808211156200058f575f80fd5b6200059d8e838f01620003ac565b9b5060208d0151915080821115620005b3575f80fd5b620005c18e838f01620003ac565b9a5060408d0151915080821115620005d7575f80fd5b620005e58e838f01620003ac565b995060608d0151915080821115620005fb575f80fd5b620006098e838f01620003ac565b985060808d0151975060a08d015196506200062760c08e016200044c565b95506200063760e08e016200044c565b94506101008d01519150808211156200064e575f80fd5b6200065c8e838f0162000483565b93506101208d015191508082111562000673575f80fd5b50620006828d828e01620004fe565b9150509295989b9194979a5092959850565b600181811c90821680620006a957607f821691505b602082108103620006c857634e487b7160e01b5f52602260045260245ffd5b50919050565b601f8211156200071b575f81815260208120601f850160051c81016020861015620006f65750805b601f850160051c820191505b81811015620007175782815560010162000702565b5050505b505050565b81516001600160401b038111156200073c576200073c62000365565b62000754816200074d845462000694565b84620006ce565b602080601f8311600181146200078a575f8415620007725750858301515b5f19600386901b1c1916600185901b17855562000717565b5f85815260208120601f198616915b82811015620007ba5788860151825594840194600190910190840162000799565b5085821015620007d857878501515f19600388901b60f8161c191681555b5050505050600190811b01905550565b634e487b7160e01b5f52601160045260245ffd5b80820180821115620008125762000812620007e8565b92915050565b634e487b7160e01b5f52603260045260245ffd5b5f60018201620008405762000840620007e8565b5060010190565b611fff80620008555f395ff3fe6080604052600436106101fc575f3560e01c806370a0823111610113578063b88d4fde1161009d578063d5abeb011161006d578063d5abeb011461058c578063d85d3d27146105a1578063e985e9c5146105b4578063f2fde38b146105d3578063fc5be82f146105f2575f80fd5b8063b88d4fde14610510578063c45a01551461052f578063c547c6fc1461054e578063c87b56dd1461056d575f80fd5b80638da5cb5b116100e35780638da5cb5b1461048b578063931e2e49146104a857806395d89b41146104bd5780639fd6db12146104d1578063a22cb465146104f1575f80fd5b806370a082311461042f578063715018a61461044e578063717a002b146104625780637c65d71114610477575f80fd5b806342842e0e1161019457806357a858fc1161016457806357a858fc1461039e57806360ac632b146103bd57806363037b0c146103dc5780636352211e146103fb5780636817c76c1461041a575f80fd5b806342842e0e1461032d5780634ea3871a1461034c5780634f3e1efc1461036b57806355f804b31461037f575f80fd5b8063095ea7b3116101cf578063095ea7b3146102ab57806318e97fd1146102cc57806323b872dd146102eb5780633a98ef391461030a575f80fd5b806301ffc9a71461020057806302d05d3f1461023457806306fdde031461026b578063081812fc1461028c575b5f80fd5b34801561020b575f80fd5b5061021f61021a366004611a0d565b610606565b60405190151581526020015b60405180910390f35b34801561023f575f80fd5b50600e54610253906001600160a01b031681565b6040516001600160a01b03909116815260200161022b565b348015610276575f80fd5b5061027f610630565b60405161022b9190611a75565b348015610297575f80fd5b506102536102a6366004611a87565b6106bf565b3480156102b6575f80fd5b506102ca6102c5366004611ab9565b6106e6565b005b3480156102d7575f80fd5b506102ca6102e6366004611b86565b6106f5565b3480156102f6575f80fd5b506102ca610305366004611bca565b6107fc565b348015610315575f80fd5b5061031f60145481565b60405190815260200161022b565b348015610338575f80fd5b506102ca610347366004611bca565b610885565b348015610357575f80fd5b506102ca610366366004611c12565b6108a4565b348015610376575f80fd5b5060095461031f565b34801561038a575f80fd5b506102ca610399366004611c2b565b61095c565b3480156103a9575f80fd5b5061031f6103b8366004611a87565b6109c8565b3480156103c8575f80fd5b5061021f6103d7366004611a87565b6109e7565b3480156103e7575f80fd5b506102536103f6366004611a87565b610a2f565b348015610406575f80fd5b50610253610415366004611a87565b610a57565b348015610425575f80fd5b5061031f600b5481565b34801561043a575f80fd5b5061031f610449366004611c5d565b610a61565b348015610459575f80fd5b506102ca610aa6565b34801561046d575f80fd5b5061031f60115481565b348015610482575f80fd5b5061027f610ab9565b348015610496575f80fd5b506008546001600160a01b0316610253565b3480156104b3575f80fd5b5061031f60105481565b3480156104c8575f80fd5b5061027f610b45565b3480156104dc575f80fd5b50600f5461021f90600160a01b900460ff1681565b3480156104fc575f80fd5b506102ca61050b366004611c76565b610b54565b34801561051b575f80fd5b506102ca61052a366004611ca7565b610b5f565b34801561053a575f80fd5b50600f54610253906001600160a01b031681565b348015610559575f80fd5b5061027f610568366004611a87565b610b77565b348015610578575f80fd5b5061027f610587366004611a87565b610c48565b348015610597575f80fd5b5061031f600a5481565b6102ca6105af366004611c2b565b610d47565b3480156105bf575f80fd5b5061021f6105ce366004611d1e565b611086565b3480156105de575f80fd5b506102ca6105ed366004611c5d565b6110b3565b3480156105fd575f80fd5b5061027f6110ed565b5f6001600160e01b03198216632483248360e11b148061062a575061062a826110fc565b92915050565b60605f805461063e90611d46565b80601f016020809104026020016040519081016040528092919081815260200182805461066a90611d46565b80156106b55780601f1061068c576101008083540402835291602001916106b5565b820191905f5260205f20905b81548152906001019060200180831161069857829003601f168201915b5050505050905090565b5f6106c98261114b565b505f828152600460205260409020546001600160a01b031661062a565b6106f1828233611183565b5050565b600f546001600160a01b031633148061071857506008546001600160a01b031633145b6107695760405162461bcd60e51b815260206004820152601c60248201527f4e6f7420617574686f72697a656420746f20757064617465205552490000000060448201526064015b60405180910390fd5b5f828152600260205260409020546001600160a01b031661079c5760405162461bcd60e51b815260040161076090611d7e565b6107a68282611190565b5f8281526015602052604090819020805460ff191660011790555182907f931f495b9a8e5d8e61946ea5d61e021f636cfe213a801f97589c18c152e408bd906107f0908490611a75565b60405180910390a25050565b6001600160a01b03821661082557604051633250574960e11b81525f6004820152602401610760565b5f6108318383336111df565b9050836001600160a01b0316816001600160a01b03161461087f576040516364283d7b60e01b81526001600160a01b0380861660048301526024820184905282166044820152606401610760565b50505050565b61089f83838360405180602001604052805f815250610b5f565b505050565b600e546001600160a01b03163314806108c757506008546001600160a01b031633145b6109045760405162461bcd60e51b815260206004820152600e60248201526d139bdd08185d5d1a1bdc9a5e995960921b6044820152606401610760565b600f8054821515600160a01b0260ff60a01b199091161790556040517ff62079051152e03bd87f33518b9ce4a5564414395b75afeef8a467e7ca4ee91b9061095190831515815260200190565b60405180910390a150565b600e546001600160a01b031633148061097f57506008546001600160a01b031633145b6109bc5760405162461bcd60e51b815260206004820152600e60248201526d139bdd08185d5d1a1bdc9a5e995960921b6044820152606401610760565b600c6106f18282611df1565b601381815481106109d7575f80fd5b5f91825260209091200154905081565b5f818152600260205260408120546001600160a01b0316610a1a5760405162461bcd60e51b815260040161076090611d7e565b505f9081526015602052604090205460ff1690565b60128181548110610a3e575f80fd5b5f918252602090912001546001600160a01b0316905081565b5f61062a8261114b565b5f6001600160a01b038216610a8b576040516322718ad960e21b81525f6004820152602401610760565b506001600160a01b03165f9081526003602052604090205490565b610aae6112d1565b610ab75f6112fe565b565b600d8054610ac690611d46565b80601f0160208091040260200160405190810160405280929190818152602001828054610af290611d46565b8015610b3d5780601f10610b1457610100808354040283529160200191610b3d565b820191905f5260205f20905b815481529060010190602001808311610b2057829003601f168201915b505050505081565b60606001805461063e90611d46565b6106f133838361134f565b610b6a8484846107fc565b61087f33858585856113ed565b5f818152600260205260409020546060906001600160a01b0316610bad5760405162461bcd60e51b815260040161076090611d7e565b5f8281526016602052604090208054610bc590611d46565b80601f0160208091040260200160405190810160405280929190818152602001828054610bf190611d46565b8015610c3c5780601f10610c1357610100808354040283529160200191610c3c565b820191905f5260205f20905b815481529060010190602001808311610c1f57829003601f168201915b50505050509050919050565b6060610c538261114b565b505f8281526006602052604081208054610c6c90611d46565b80601f0160208091040260200160405190810160405280929190818152602001828054610c9890611d46565b8015610ce35780601f10610cba57610100808354040283529160200191610ce3565b820191905f5260205f20905b815481529060010190602001808311610cc657829003601f168201915b505050505090505f610cf3611515565b905080515f03610d04575092915050565b815115610d36578082604051602001610d1e929190611ead565b60405160208183030381529060405292505050919050565b610d3f84611524565b949350505050565b610d4f611589565b600f54600160a01b900460ff16610d9e5760405162461bcd60e51b8152602060048201526013602482015272135a5b9d1a5b99c81a5cc8191a5cd8589b1959606a1b6044820152606401610760565b601054421015610de65760405162461bcd60e51b8152602060048201526013602482015272135a5b9d1a5b99c81b9bdd081cdd185c9d1959606a1b6044820152606401610760565b601154421115610e285760405162461bcd60e51b815260206004820152600d60248201526c135a5b9d1a5b99c8195b991959609a1b6044820152606401610760565b600a5460095410610e705760405162461bcd60e51b815260206004820152601260248201527113585e081cdd5c1c1b1e481c995858da195960721b6044820152606401610760565b600b54341015610eb95760405162461bcd60e51b8152602060048201526014602482015273125b9cdd59999a58da595b9d081c185e5b595b9d60621b6044820152606401610760565b5f815111610f025760405162461bcd60e51b815260206004820152601660248201527550726f6d70742063616e6e6f7420626520656d70747960501b6044820152606401610760565b5f5b601254811015610feb575f60145460138381548110610f2557610f25611edb565b905f5260205f20015434610f399190611f03565b610f439190611f1a565b90508015610fd857610f7b60128381548110610f6157610f61611edb565b5f918252602090912001546001600160a01b0316826115b3565b60128281548110610f8e57610f8e611edb565b5f91825260209182902001546040518381526001600160a01b03909116917f59d9f8b94d1de65b8eeb1b14e24d5d70c2782e96b3abef17ba687f3ee33a754a910160405180910390a25b5080610fe381611f39565b915050610f04565b5060098054905f610ffb83611f39565b909155505060095461100d338261163f565b5f8181526016602052604090206110248382611df1565b505f8181526015602052604090819020805460ff1916905551339082907fe768813546e23b724434f7fec2919cc3b20a39442602c602009edb1998dd5518906110709086904290611f51565b60405180910390a3506110836001600755565b50565b6001600160a01b039182165f90815260056020908152604080832093909416825291909152205460ff1690565b6110bb6112d1565b6001600160a01b0381166110e457604051631e4fbdf760e01b81525f6004820152602401610760565b611083816112fe565b6060600d805461063e90611d46565b5f6001600160e01b031982166380ac58cd60e01b148061112c57506001600160e01b03198216635b5e139f60e01b145b8061062a57506301ffc9a760e01b6001600160e01b031983161461062a565b5f818152600260205260408120546001600160a01b03168061062a57604051637e27328960e01b815260048101849052602401610760565b61089f83838360016116a0565b5f8281526006602052604090206111a78282611df1565b506040518281527ff8e1a15aba9398e019f0b49df1a4fde98ee17ae345cb5f6b5e2c27f5033e8ce79060200160405180910390a15050565b5f828152600260205260408120546001600160a01b039081169083161561120b5761120b8184866117a4565b6001600160a01b03811615611245576112265f855f806116a0565b6001600160a01b0381165f90815260036020526040902080545f190190555b6001600160a01b03851615611273576001600160a01b0385165f908152600360205260409020805460010190555b5f8481526002602052604080822080546001600160a01b0319166001600160a01b0389811691821790925591518793918516917fddf252ad1be2c89b69c2b068fc378daa952ba7f163c4a11628f55a4df523b3ef91a4949350505050565b6008546001600160a01b03163314610ab75760405163118cdaa760e01b8152336004820152602401610760565b600880546001600160a01b038381166001600160a01b0319831681179093556040519116919082907f8be0079c531659141344cd1fd0a4f28419497f9722a3daafe3b4186f6b6457e0905f90a35050565b6001600160a01b03821661138157604051630b61174360e31b81526001600160a01b0383166004820152602401610760565b6001600160a01b038381165f81815260056020908152604080832094871680845294825291829020805460ff191686151590811790915591519182527f17307eab39ab6107e8899845ad3d59bd9653f200f220920489ca2b5937696c31910160405180910390a3505050565b6001600160a01b0383163b1561150e57604051630a85bd0160e11b81526001600160a01b0384169063150b7a029061142f908890889087908790600401611f72565b6020604051808303815f875af1925050508015611469575060408051601f3d908101601f1916820190925261146691810190611fae565b60015b6114d0573d808015611496576040519150601f19603f3d011682016040523d82523d5f602084013e61149b565b606091505b5080515f036114c857604051633250574960e11b81526001600160a01b0385166004820152602401610760565b805160208201fd5b6001600160e01b03198116630a85bd0160e11b1461150c57604051633250574960e11b81526001600160a01b0385166004820152602401610760565b505b5050505050565b6060600c805461063e90611d46565b606061152f8261114b565b505f611539611515565b90505f8151116115575760405180602001604052805f815250611582565b8061156184611808565b604051602001611572929190611ead565b6040516020818303038152906040525b9392505050565b6002600754036115ac57604051633ee5aeb560e01b815260040160405180910390fd5b6002600755565b804710156115dd5760405163cf47918160e01b815247600482015260248101829052604401610760565b5f80836001600160a01b0316836040515f6040518083038185875af1925050503d805f8114611627576040519150601f19603f3d011682016040523d82523d5f602084013e61162c565b606091505b50915091508161087f5761087f81611898565b6001600160a01b03821661166857604051633250574960e11b81525f6004820152602401610760565b5f61167483835f6111df565b90506001600160a01b0381161561089f576040516339e3563760e11b81525f6004820152602401610760565b80806116b457506001600160a01b03821615155b15611775575f6116c38461114b565b90506001600160a01b038316158015906116ef5750826001600160a01b0316816001600160a01b031614155b801561170257506117008184611086565b155b1561172b5760405163a9fbf51f60e01b81526001600160a01b0384166004820152602401610760565b81156117735783856001600160a01b0316826001600160a01b03167f8c5be1e5ebec7d5bd14f71427d1e84f3dd0314c0f7b2291e5b200ac8c7c3b92560405160405180910390a45b505b50505f90815260046020526040902080546001600160a01b0319166001600160a01b0392909216919091179055565b6117af8383836118c0565b61089f576001600160a01b0383166117dd57604051637e27328960e01b815260048101829052602401610760565b60405163177e802f60e01b81526001600160a01b038316600482015260248101829052604401610760565b60605f61181483611921565b60010190505f8167ffffffffffffffff81111561183357611833611ae1565b6040519080825280601f01601f19166020018201604052801561185d576020820181803683370190505b5090508181016020015b5f19016f181899199a1a9b1b9c1cb0b131b232b360811b600a86061a8153600a850494508461186757509392505050565b8051156118a757805160208201fd5b60405163d6bda27560e01b815260040160405180910390fd5b5f6001600160a01b03831615801590610d3f5750826001600160a01b0316846001600160a01b031614806118f957506118f98484611086565b80610d3f5750505f908152600460205260409020546001600160a01b03908116911614919050565b5f8072184f03e93ff9f4daa797ed6e38ed64bf6a1f0160401b831061195f5772184f03e93ff9f4daa797ed6e38ed64bf6a1f0160401b830492506040015b6d04ee2d6d415b85acef8100000000831061198b576d04ee2d6d415b85acef8100000000830492506020015b662386f26fc1000083106119a957662386f26fc10000830492506010015b6305f5e10083106119c1576305f5e100830492506008015b61271083106119d557612710830492506004015b606483106119e7576064830492506002015b600a831061062a5760010192915050565b6001600160e01b031981168114611083575f80fd5b5f60208284031215611a1d575f80fd5b8135611582816119f8565b5f5b83811015611a42578181015183820152602001611a2a565b50505f910152565b5f8151808452611a61816020860160208601611a28565b601f01601f19169290920160200192915050565b602081525f6115826020830184611a4a565b5f60208284031215611a97575f80fd5b5035919050565b80356001600160a01b0381168114611ab4575f80fd5b919050565b5f8060408385031215611aca575f80fd5b611ad383611a9e565b946020939093013593505050565b634e487b7160e01b5f52604160045260245ffd5b5f67ffffffffffffffff80841115611b0f57611b0f611ae1565b604051601f8501601f19908116603f01168101908282118183101715611b3757611b37611ae1565b81604052809350858152868686011115611b4f575f80fd5b858560208301375f602087830101525050509392505050565b5f82601f830112611b77575f80fd5b61158283833560208501611af5565b5f8060408385031215611b97575f80fd5b82359150602083013567ffffffffffffffff811115611bb4575f80fd5b611bc085828601611b68565b9150509250929050565b5f805f60608486031215611bdc575f80fd5b611be584611a9e565b9250611bf360208501611a9e565b9150604084013590509250925092565b80358015158114611ab4575f80fd5b5f60208284031215611c22575f80fd5b61158282611c03565b5f60208284031215611c3b575f80fd5b813567ffffffffffffffff811115611c51575f80fd5b610d3f84828501611b68565b5f60208284031215611c6d575f80fd5b61158282611a9e565b5f8060408385031215611c87575f80fd5b611c9083611a9e565b9150611c9e60208401611c03565b90509250929050565b5f805f8060808587031215611cba575f80fd5b611cc385611a9e565b9350611cd160208601611a9e565b925060408501359150606085013567ffffffffffffffff811115611cf3575f80fd5b8501601f81018713611d03575f80fd5b611d1287823560208401611af5565b91505092959194509250565b5f8060408385031215611d2f575f80fd5b611d3883611a9e565b9150611c9e60208401611a9e565b600181811c90821680611d5a57607f821691505b602082108103611d7857634e487b7160e01b5f52602260045260245ffd5b50919050565b602080825260149082015273151bdad95b88191bd95cc81b9bdd08195e1a5cdd60621b604082015260600190565b601f82111561089f575f81815260208120601f850160051c81016020861015611dd25750805b601f850160051c820191505b8181101561150c57828155600101611dde565b815167ffffffffffffffff811115611e0b57611e0b611ae1565b611e1f81611e198454611d46565b84611dac565b602080601f831160018114611e52575f8415611e3b5750858301515b5f19600386901b1c1916600185901b17855561150c565b5f85815260208120601f198616915b82811015611e8057888601518255948401946001909101908401611e61565b5085821015611e9d57878501515f19600388901b60f8161c191681555b5050505050600190811b01905550565b5f8351611ebe818460208801611a28565b835190830190611ed2818360208801611a28565b01949350505050565b634e487b7160e01b5f52603260045260245ffd5b634e487b7160e01b5f52601160045260245ffd5b808202811582820484141761062a5761062a611eef565b5f82611f3457634e487b7160e01b5f52601260045260245ffd5b500490565b5f60018201611f4a57611f4a611eef565b5060010190565b604081525f611f636040830185611a4a565b90508260208301529392505050565b6001600160a01b03858116825284166020820152604081018390526080606082018190525f90611fa490830184611a4a565b9695505050505050565b5f60208284031215611fbe575f80fd5b8151611582816119f856fea2646970667358221220ea5e01ef78ddbb6f7520b53d460c2e99e3a3633c6897ca0d8823851cd3a32e4664736f6c63430008140033a2646970667358221220eb4a8fad99fed363fa64253e2070bae4c50fa0acc3c4477b483189ac1a7991fe64736f6c63430008140033",
  "linkReferences": {},
  "deployedLinkReferences": {},
  "immutableReferences": {},
  "inputSourceName": "project/contracts/NFTCollectionFactory.sol",
  "buildInfoId": "solc-0_8_20-a8a2287707159d5d2d39c6061efdf4ad6ab34281"
}